:0200000490006A
:10200000680B002471230090A39700909F95009087
:10201000959700908B4900903DBB00900000000018
:10202000000000000000000000000000F9AC00907B
:102030008550009000000000A9980090FBAC009033
:102040008F2300908F2300908F2300908F23009088
:102050008F2300908F2300908F2300908F23009078
:102060008F2300908F2300908F230090854A00904B
:102070008F2300908F2300908F2300908F23009058
:102080008F2300908F2300908F2300905D5100904C
:102090008F230090695100908F2300908F23009030
:1020A0008F2300908F2300908F2300908F23009028
:1020B0008F2300908F2300908F2300908F23009018
:1020C0008F2300908F2300908F2300908F23009008
:1020D0008F23009031BB00908F2300908F230090BE
:1020E0008F2300908F230090000000008F2300902A
:1020F0008F2300908F2300908F2300908F230090D8
:102100008F2300908F2300908F2300908F230090C7
:102110008F2300908F2300906DB100908F2300904B
:102120008F2300908F2300908F2300908F230090A7
:102130008F2300908F2300908F2300907551009083
:10214000000000000000000000000000000000008F
:102150008F2300908F2300908F2300908F23009077
:102160008F2300908F2300908F2300908F23009067
:102170008F2300908F2300908F2300908F23009057
:102180008F2300908F2300908F2300908F23009047
:102190008F2300908F2300908F2300908F23009037
:1021A0008F2300908F2300908F2300908F23009027
:1021B0008F2300908F2300908F2300908F23009017
:1021C0008F2300908F2300908F2300908F23009007
:1021D0008F2300908F2300908F2300908F230090F7
:1021E0008F2300908F2300908F2300908F230090E7
:1021F0008F2300908F2300908F2300908F230090D7
:102200008F2300908F2300908F2300908F230090C6
:102210008F2300908F2300908F2300908F230090B6
:102220008F2300908F2300908F23009000000000E8
:102230008F2300908F230090000000008F230090D8
:102240008F2300908F2300908F2300908F23009086
:102250008F2300908F2300908F2300908F23009076
:102260008F2300908F2300908F2300908F23009066
:102270008F2300908F2300908F2300900000000098
:102280008F2300908F2300908F2300900000000088
:10229000000000008F23009000F002F800F058F8D2
:1022A0000AA090E8000C82448344AAF10107DA45B1
:1022B00001D100F04DF8AFF2090EBAE80F0013F0AB
:1022C000010F18BFFB1A43F001031847DCBA0000E6
:1022D000FCBA0000103A24BF78C878C1FAD8520777
:1022E00024BF30C830C144BF04680C607047000090
:1022F0000023002400250026103A28BF78C1FBD80F
:10230000520728BF30C148BF0B60704766290BF0E9
:10231000328067290BF02F80642900F0298173290E
:1023200000F09586002070471FB50BF01CF800F0F8
:10233000D9FB0400002000210AF09CFF401C6060D3
:10234000002000210AF0ACFFE0601FBD10B510BDF9
:1023500001F0E8F91146FFF7E7FF09F02BFF01F064
:102360008DFC03B4FFF7F2FF03BC09F028FD000069
:102370000A4880470A4880470A480047FEE7FEE7C8
:10238000FEE7FEE7FEE7FEE7FEE7FEE7FEE7FEE725
:1023900005480649064A074B704700004151009026
:1023A000A5AD00909922009068050024680B0024D8
:1023B00068070024680700247047000010B500F08B
:1023C00091FB001D10BD00BFADAE000053EA020C32
:1023D00000F069802DE9F04B4FF00006002B1FBF85
:1023E000B3FA83F503FA05F424FA05F65E4012BF4A
:1023F0001643B2FA82F502FA05F4C5F120051EBFB4
:1024000022FA05FC44EA0C04203556EA044C4FEA53
:10241000144418BF641C4FF000084FF000099042AC
:1024200071EB030C39D3002919BFB1FA81F701FA16
:1024300007F6B0FA80F700FA07F6C7F120071EBFCB
:1024400020FA07FC46EA0C062037B6FBF4FCA7EBA3
:102450000507103F07F01F0BCBF120060CFA0BFB12
:102460002CFA06F644BFB3460026202FA4BF5E46D2
:102470004FF0000B5BEA060C08BF4FF0010B19EBA5
:102480000B09ABFB027C48EB0608C01B06FB02CC29
:102490000BFB03CC71EB0C01C1E70B460246414636
:1024A0004846BDE8F08B13B54FF000004FF0000137
:1024B000AFF30080BDE81C40704700000FB4044932
:1024C00010B503AA029800F0C7FD10BC5DF814FB1C
:1024D000040000240FB4014610B504AA039800F0CC
:1024E000BBFD10BC5DF814FB0FB41CB50C0007AAB3
:1024F000009001D02044401E074B7B446946019068
:10250000069800F072FD002C03D06946002000F010
:102510007FFD1CBC5DF814FB1D0B000070B50C4664
:102520000546012A05D02878800600D5EA690023EF
:1025300002E0012305E05B1C934202D2E05C00282C
:10254000F9D1A869E618C01AA861286A1844286257
:102550002846AFF3008004E0D5E9012114F8010B0F
:102560009047B442F8D32846AFF3008070BD000016
:102570002DE9F0410646002410687529314616A55C
:1025800010D0AFF30080002802DA404213A507E024
:1025900031688A0701D512A502E0490704D511A5C3
:1025A000012401E0AFF3008000210A2206F1240794
:1025B00009E0B0FBF2FCB0FBF2F302FB1C00303090
:1025C00078541846491C0028F3D123462A46304641
:1025D000BDE8F04100F09BBA000000002D000000B3
:1025E0002B000000200000002DE9F0474FF0000A0A
:1025F00089460446C0F820A02046E16888470028A4
:1026000076D0252806D0D4E901219047206A401CC5
:102610002062F1E7E168204600268847C4F81CA044
:1026200005460027C4F818A02A2D09D0284609F02D
:10263000BFFB38B304EB8708303DC8F8185019E0E9
:1026400059F8041B204604EB87029161E168884732
:10265000012F054618D1E069002820DA26F020066F
:102660001DE0D8F8180000EB800005EB4000303882
:10267000C8F818002046E1688847054609F098FB2D
:102680000028EED1012F0AD02E2D08D12046E16876
:1026900088477F1C0546022F46F02006C4DBA06950
:1026A000002803DA404246F00106A061F00701D09D
:1026B00026F010066C2D0AD0682D08D04C2D39D08C
:1026C0006A2D35D0742D35D07A2D33D016E0E168DF
:1026D0002F4620468847B84205460AD16C2F27D09E
:1026E0004FF48060E168064320468847054605E0D0
:1026F00027E06C2F1AD04FF4807006430DB3A5F17C
:102700004100192802D8203546F400664A46294679
:10271000204626604E46FFF7F9FD80B101280BD018
:10272000F61D26F0070000F1080965E74020E4E700
:102730008020D7E70020D5E706F104095CE72846AA
:1027400061E7206ABDE8F0872DE9F04791460F4622
:1027500080460446002614F8015B2DB1FFF72EFEDB
:102760000068405DC007F6D12B2D02D02D2D18D06A
:10277000641E4A463946204600F080FC27B139687D
:10278000A14201D1C7F800804FF0020471050BD5BA
:102790004042002803DD00F0A9F90460A007BDE86D
:1027A000F08746F48066E4E70028F8DA00F09EF946
:1027B00004606FF00040F2E72DE9F05F93460F46AA
:1027C00080460446002600F091F9D0F80090824639
:1027D00014F8015B2DB1FFF7F1FD0068405DC00703
:1027E000F6D12B2D02D02D2D1AD0641E0021CAF84F
:1027F00000105A463946204600F040FC014627B1F9
:102800003868A04201D1C7F80080DAF80000022839
:1028100009D0CAF80090700505D54842BDE8F09F80
:1028200046F48066E2E70846F8E700F0C9BC00F02D
:102830000FBD10B5431E13F8014F002CFBD105E06E
:1028400011F8014B002C03F8014B03D0521EF7D2B4
:102850000021197010BD2DE9F041054690460E4645
:102860000020044600E0641C44450BD2285D00F0C3
:1028700041F90746305D00F03DF9381A02D1295D73
:102880000029F0D1BDE8F08110B5431C02E010F83A
:10289000011B71B18107FAD14FF0013202C88C1AC5
:1028A0008C4314EAC211F9D0C01A0A0603D0C01E24
:1028B00010BDC01A10BD0A0401D0801E10BD09024F
:1028C000FCD0401E10BD032A40F2308010F0030CF3
:1028D00000F0158011F8013BBCF1020F624498BF73
:1028E00011F801CB00F8013B38BF11F8013BA2F110
:1028F000040298BF00F801CB38BF00F8013B11F08B
:10290000030300F06780083AC0F0088051F8043BE8
:10291000083A51F804CBA0E80810F5E7121D5CBF97
:1029200051F8043B40F8043BAFF30080D20724BFCA
:1029300011F8013B11F801CB48BF11F8012B24BF5E
:1029400000F8013B00F801CB48BF00F8012B7047AD
:10295000431A28BF9A427FF6B6AF032A10441144A7
:1029600040F2268010F0030F1EBF11F8013D521EE9
:1029700000F8013D10F0030F7FF4F6AF11F00303F0
:1029800000F0B784083AC0F00B8051F8043D083AD3
:1029900051F804CD40F8043D40F804CDFFF7F3BFF3
:1029A000121D5CBF51F8043D40F8043DAFF30080B8
:1029B000D20724BF11F8013D11F801CD48BF11F82D
:1029C000012C24BF00F8013D00F801CD48BF00F8FC
:1029D000012C704710B5203AC0F00B80B1E81850B8
:1029E000203AA0E81850B1E81850A0E81850BFF4F9
:1029F000F5AF5FEA027C24BFB1E81850A0E8185098
:102A000044BF18C918C0BDE810405FEA827C24BFEB
:102A100051F8043B40F8043B08BF7047D20728BF79
:102A200031F8023B48BF11F8012B28BF20F8023BC8
:102A300048BF00F8012B70474FF0000200B5134665
:102A400094469646203922BFA0E80C50A0E80C50CE
:102A5000B1F12001BFF4F7AF090728BFA0E80C507F
:102A600048BF0CC05DF804EB890028BF40F8042B78
:102A700008BF704748BF20F8022B11F0804F18BFE5
:102A800000F8012B704710B5044610F0030F08BF83
:102A900011F0030F40F015804FF0013E121FC0F2FD
:102AA0000E8051F8043BA3EB0E0C2CEA030C1CEA3D
:102AB000CE1C08BF40F8043BF0D0A1F1040102F1A4
:102AC0000402521E08DB11F8013B002B00F8013B09
:102AD000F7D1114600F037FC204610BD7047704713
:102AE0007047704700487047280500240048704729
:102AF0000805002410B50446FFF760FC0068005D7F
:102B0000C00602D504F1200010BD204610BD2DE9FD
:102B1000F0470D4699469246044600F124080168A4
:102B2000880604D5E06921F01001216000E0012051
:102B3000A84201DD471B00E00027A1697A1902EBDA
:102B40000900081AA0612078C00602D42046AFF31D
:102B50000080002608E0D4E901211AF80600904719
:102B6000206A401C761C20624E45F4DB2078C006AB
:102B70000AD52046AFF3008006E0D4E901213020D9
:102B80009047206A401C2062381EA7F10107F4DC40
:102B900007E0D4E9012118F805009047206A401C9D
:102BA0002062281EA5F10105F3DC2046AFF300806A
:102BB0002078000602D50220BDE8F0870120FBE75F
:102BC00070472DE9FF4F0C461E464FF0FF378BB084
:102BD000D2E90001DDF860800A908A46C1F30A5507
:102BE00005B93D46002108464FF00000BAF1000F3C
:102BF00000F4400005DA00EB80004FF4400101EAE8
:102C000050004FEA9059B9F1010F00DDB9460A981A
:102C100050EA4A000ED044F61050A5F2FF35454365
:102C20002F14B8F1000F1ED07542291E1EDDC9F108
:102C300000021CE0B8F1010F4FF0000001D030217C
:102C400003E0F24305E02154401CB042FBDB304678
:102C50000022002121540B99C1F80880C1E900200D
:102C60000FB0BDE8F08FBD1B6D1CDEE74A4600DAF1
:102C7000694206A800F0ACFC06AB93E8070003AB82
:102C800083E8070050460A9901F03FFA8DE80700F3
:102C9000A0F500501F3800900398002D0ADD42F285
:102CA0001F014A460844002303A90390684601F027
:102CB000EBFC09E0A0F500504A461F38002303A9A9
:102CC0000390684601F00AFD8DE807000004000C3F
:102CD00003D04FF0FF30410800E01046B8F1000F7C
:102CE00003D00022009215461EE0751E05D400F0A8
:102CF00051FB303262556D1EF9D5B34601220843AF
:102D000002D000227F1C04E02078302801D100226C
:102D10007F1E002A099784D01DE0112D07DA00F0EC
:102D200039FB303262556D1C50EA0102F5D108437F
:102D300002D00098C8B10EE00021681E05E0235CB7
:102D4000625C63542254401E491C8142F7DBAB464F
:102D5000A81B401E0990002004F80B000B98099A4C
:102D6000C0F80880C0E9002B7AE711264FF0000870
:102D700057E72DE9F04F88460446D21D22F007019F
:102D800091B0D1E90001CDE90A0108F0E3FE024665
:102D90000B98C00F01D02D2007E02068810701D5D6
:102DA0002B2002E0202101EAC000032A099001D073
:102DB000072A05DB03464146204600F039FB0BE1BC
:102DC0002078800601D5E06900E00620B8F1650FA3
:102DD000814606D0B8F1660F18D0B8F1670F70D1F0
:102DE00031E00020B9F1110F009001DB112301E067
:102DF00009F101030AAA01A90CA8FFF7E2FEDDE927
:102E00000C70002609F10105834647E001204B467E
:102E100000904FF000470AAA01A90CA8FFF7D1FEC5
:102E2000DDE90DB00C995D46002610B909F10100ED
:102E30000D18B9EB050003D4C0F1FF3609F1010507
:102E4000A5EB09002BE0B9F1010F01DA4FF0010900
:102E50000020B9F1110F0090484601DD112300E078
:102E600003460AAA01A90CA8FFF7ABFEDDE90C7026
:102E70004D4600268346207800070AD4AB4500DA89
:102E80005D4601A8012D04DD411911F8011C30290E
:102E900007D04F4502DA17F1040F04DA0120824609
:102EA0000FE06D1EEEE7002F02DCED1B3E4403E059
:102EB000781CA84200DD7D1CB81B00F1010A4FF010
:102EC00000472078000703D4AA4501DB4FF0FF3A02
:102ED0000021B7F1004F0DF143088DF8431024D0C5
:102EE00002202B23002F01DA7F422D230A21021E0C
:102EF000A0F1010000DC5FB197FBF1FC97FBF1F260
:102F000001FB1C7C17460CF1300C08F801CDEEE7F4
:102F1000A8F1010003702188090501D5452100E0D1
:102F20006521A0F1010800F8011C09980FA9A1EB87
:102F30000807FF1D00B10120411901EBEA70A169EA
:102F40003844081A401EA0612078C00602D42046EA
:102F5000AFF30080099828B1D4E901219047206A95
:102F6000401C20622078C00622D52046AFF30080A6
:102F70001EE0002E04DBB34502DD01A8805D00E009
:102F80003020D4E901219047206A401C2062761C41
:102F9000AAF101005FEA000A0AD1FFF7A3FDC068A9
:102FA0000168405CD4E901219047206A401C2062FE
:102FB000281EA5F10105DCDC07E0D4E9012118F8A1
:102FC000010B9047206A401C2062381EA7F10107C0
:102FD000F3DC2046AFF30080032011B041E600008F
:102FE00001694A1C02610878704700B58FB0CDE9CD
:102FF00001310021059105497944CDE903101146BD
:103000006846FFF7F1FA0FB000BD0000E5FFFFFFD3
:103010000A6802F8010B0A607047D1E900239A425E
:1030200002D2531C0B601070704710B5436913B186
:10303000AFF3008001E0FFF771FA012010BD1278B4
:1030400000F124010A7000224A700122EDE71168A4
:103050004FF0FF32E9E70000074B70B50D467B44A7
:10306000FFF7C3FF0446284600F024FB10B14FF0E1
:10307000FF3070BD204670BDDF8F00002DE9F05F8E
:10308000824615468B4600270AF10104B9460078AE
:10309000302801D09DB113E014F8010B01277828E6
:1030A00003D0582801D045B10AE00DB1102D07D149
:1030B000002714F8010B102502E0082500E00A257E
:1030C0000026B0460EE005FB080005FB06F10127CF
:1030D0001FFA80F801EB1046B6F5803F00D3B946E1
:1030E00014F8010B294600F0E3F90028EBDABBF1F4
:1030F000000F05D00FB1641E00E05446CBF800402D
:10310000B9F1000F06D0FFF7F1FC02210160C81EE3
:10311000BDE8F09F48EA0640FAE700000FB400233C
:1031200000B589B00CA900910B99CB60214B7B4471
:103130000693214B7B44079304236FF00042CDE9B3
:1031400001321E4A7A446B460892024600200AF079
:1031500074F909B05DF814FB70B506464FF0FF3006
:1031600015460C46324686B00091CDE9010169460C
:103170000020049004A8FFF7D1FF0246049821180C
:1031800025B108B1084600E02046286004980028D0
:103190000DD0002A02DD0098884208D03246081B74
:1031A00069460094CDE9010404A8FFF7B7FF06B013
:1031B00070BD00009B030000B3030000D7020000B5
:1031C0002DE9F04791460E4680460446002514F846
:1031D000017B2FB1FFF7F2F80068C05DC007F6D1A0
:1031E0002B2F02D02D2F1ED0641E4A46314620467A
:1031F00000F08CF926B13268A24201D1C6F80080F5
:103200004FF002046A0518D50023D0EB030563EBE9
:1032100001025D1B934109DB0023D0EB030063EB4C
:103220000101BDE8F08745F48065DEE7FFF75EFC4D
:10323000046000204FF00041F3E7021E71F100022C
:10324000EFDAFFF753FC04604FF0FF304108E8E786
:103250002DE9F05F93460F46804604460026FFF7AF
:1032600045FCD0F80090824614F8015B2DB1FFF7C1
:10327000A5F80068405DC007F6D12B2D02D02D2D9A
:103280001FD0641E0021CAF800105A463946204655
:1032900000F03CF9024627B13868A04201D1C7F8D6
:1032A0000080DAF8000002280ED0CAF800907005FD
:1032B0000AD500200346D2EB000063EB0101BDE814
:1032C000F09F46F48066DDE71046F8E7431A28BF12
:1032D0009A427FF67FAB104410F0030F11441EBFDB
:1032E00011F8013D521E00F8013D10F0030F7FF46C
:1032F000F6AF103AC0F00A8010B531E91850103A14
:1033000020E91850BFF4F9AFBDE81040530724BFBF
:1033100031E9081020E9081044BF51F8043D40F895
:10332000043D12F0030F08BF7047D20728BF31F8E1
:10333000023D48BF11F8012C28BF20F8023D48BFCC
:1033400000F8012C70474FF000020429C0F01280F1
:1033500010F0030C3FF472ABCCF1040CBCF1020F83
:1033600018BF00F8012BA8BF20F8022BA1EB0C011D
:10337000FFF764BB5FEAC17C24BF00F8012B00F8B3
:10338000012B48BF00F8012B704700000048704730
:103390000805002430B5B0F10A024FEA900E71F131
:1033A00000034EEA817EB0EB0E0061EB91014FEA23
:1033B000101E4EEA017E10EB0E0041EB11114FEA98
:1033C000102E4EEA016E10EB0E0041EB11214FEA78
:1033D000104E4EEA014E10EB0E0041EB1141401829
:1033E00041F100014FEAD00040EA41704FEAD101BB
:1033F00010EB80054FEA810444EA907444EB010429
:103400006D1944EB0404521BA3414FF0000348BF65
:103410000A3200D530BD401C41F1000130BD10B56D
:103420000446FEF7CBFF0068005D00F0010010BD10
:103430002DE9F0411F46044603260168072A01F4DE
:10344000006004DB08B116A505E016A503E008B18D
:1034500015A500E015A521F010002060A069C01E90
:10346000A0610FB1401EA0612046AFF300804FB1B4
:10347000D4E9012138469047206A401C2062C01CD4
:10348000206206E0206AFAE7D4E9012115F8010B71
:103490009047761EF8D22046AFF30080BDE8F08159
:1034A0004E414E006E616E00494E4600696E6600E8
:1034B0003A2800D2303820F02002412A01D3A2F16C
:1034C0003700884201D34FF0FF307047426842B165
:1034D000016811F8013B23B1521EC0E900121846E1
:1034E00070470121C160881E704742685AB1C368A5
:1034F000016843B983688B4205D0491E521CC0E95C
:103500000012002070474FF0FF3070472DE9F74F51
:103510004FF000091546CA46009C14F8010B3028EC
:1035200001D0ADB115E014F8010B4FF00109782876
:1035300003D0582801D04DB10BE00DB1102D08D1AA
:103540004FF0000914F8010B102502E0082500E0F7
:103550000A2500274FEAE57B3E46B84616E0A5FB64
:1035600007234FF0010905FB08000BFB07311FFA89
:1035700080F805FB0616010C571846F10006381EA8
:1035800076F5803000D3CA4614F8010B2946FFF7C0
:103590008FFF0028E3DA019838B1B9F1000F01D0AC
:1035A000641E00E0009C01980460BAF1000F08D08E
:1035B000FFF79CFA02210160C81E014603B0BDE876
:1035C000F08F310441EA174148EA0740F6E700006E
:1035D0002DE9F047814616468AB0354878440DC833
:1035E0008DE80D0032487844801C03AC0DC884E897
:1035F0000D0041F69B300844372190FBF1F290FB1F
:10360000F1F5A5F1800501FB12041B3C02D56442D3
:10361000012000E00020DFF898A080460027FA444F
:10362000AAF1BE0A0EE0E0070AD03246684607EB70
:10363000470101230AEB810101F050F88DE80700F2
:1036400064107F1C002CEED1194F7F44AE3F19E06F
:10365000E80715D007EB04100DF1180A90E80E00EA
:103660008AE80E00C068F04201D1981908903246ED
:10367000012306A903A801F031F803AB83E8070092
:103680006D10641C002DE3D14FF0010332466946F2
:10369000B8F1000F03A802D000F0F6FF01E001F03E
:1036A0001DF8C9E90001C9F808200AB0BDE8F08793
:1036B00024A40000007B00F0800070474FF0013C24
:1036C00050F8042B51F8043B9A4215D1A2EB0C039D
:1036D000934313EACC130BD150F8042B51F8043B5D
:1036E0009A4209D1A2EB0C03934313EACC13E7D01F
:1036F0004FF00000704700BFD01A01BAB1FA81F153
:1037000001F0180122FA01F0CB40C1F12001DBB237
:10371000C0B2C01A2CFA01F3D11A914311EAC311B5
:10372000E6D170477546FFF731FEAE4605006946A3
:10373000534620F00700854618B020B5FEF728FE56
:10374000BDE820404FF000064FF000074FF00008A2
:103750004FF0000B21F00701AC46ACE8C009ACE823
:10376000C009ACE8C009ACE8C0098D46704710B587
:10377000FFF7BCF9006810BD10B50446FFF7B6F9B5
:10378000046010BD2DE9FF4F06468BB00878FF2876
:1037900006D0491C2D2805D000244FF0000908E070
:1037A00000200CE00124F8E709EB8903491C00EB39
:1037B00043090878FF28F7D114B1C9F10000814608
:1037C000107800252C46AA4629462D2801D02B2802
:1037D00004D1521C2D2813D0002082468B4610782D
:1037E000FF280FD04FF0000C0A21521CA5FB0178D6
:1037F00004FB018105FB0C11C5194BEB0104EEE73D
:103800000120EAE7002108464FF00000BAF1000F5E
:1038100002D000EB80004008C0F38157012F01DD8A
:103820004FF0FF370E9955EA040009EB01080BD061
:103830004FF0020918F5FA7F16DA4FEACA70002F26
:10384000706008DD012007E04FEACA70C6E900B0E9
:103850000FB0BDE8F08F00203060FFF747F9C0F8E7
:1038600000901821084616E0B8F5FA7F18DD002F01
:1038700002DAF748784401E0F6487844D0E90010CD
:10388000C6E9001040EACA707060FFF72FF9C0F86F
:103890000090142108460FB0BDE8F04F09F068BD54
:1038A000002108464FF00000B8F10001099002DA4B
:1038B000C7F1000200E03A4601DAC8F1000106A8AB
:1038C000FFF786FE06AB93E8070003AB83E807002B
:1038D00044F23E005BEA04010090584604D144F2F1
:1038E0001E012C465D460091210C0904014306D1BE
:1038F0000099240444EA15442D041039009104F081
:103900007F41014306D10099240244EA15642D0247
:103910000839009104F07041014306D10099240157
:1039200044EA15742D01091F009104F04041014340
:1039300006D10099A40044EA9574AD00891E009157
:1039400004F00041084304D100986D196441401E01
:1039500000904FF001033A466846B8F1000FCDE9F8
:10396000014503A902DD00F0CEFE01E000F0A1FE5A
:10397000BAF1000F04460D4601D084F00044002146
:1039800008464FF00000099940F2FF77484010F0D8
:103990000C0F07D124F00040284303D0C4F30A5091
:1039A000B84212D1FFF7A2F8C0F80090C4F30A5051
:1039B000B8420AD1A8487844D0E90010C6E90010FE
:1039C00004F000410843706042E7C6E900543FE755
:1039D0002DE9FF4F1F464FF0000A4FF0FF384546D4
:1039E00091B0D7E90146CDF83CA0FFF77BF8C0685D
:1039F0000168405C1090B96912986D1C8847396A5B
:103A0000814688470028F6D1B9F1FF3F0AD0002E41
:103A100024F4D06411DDB9F12B0F08D0B9F12D0FCA
:103A20000BD102E0404615B013E744F48064B96955
:103A300012986D1C8847761E8146600504A901D541
:103A40002D2000E02B20002E01F1010B0DF130089C
:103A50008DF810003FDDB9F1690F08D0B9F1490FB9
:103A600005D0B9F16E0F02D0B9F14E0F1CD13B4613
:103A700001A8009580E85002DDE912126FF0020003
:103A800009F0DFFCC11CCED10EE0B96912986D1CA3
:103A9000884781461398761E44F4007405600F9899
:103AA000401C002E0F9016DDB9F1300FEDD0B9F1AA
:103AB000780F02D0B9F1580F0DD10F9801280AD113
:103AC0003B46CDE90054DDE91212001F029609F0D1
:103AD000B6FCC11CA7D1109989453ED144F08004A1
:103AE00006E01399681CAAF1010A44F40074086006
:103AF000B9696D1C1298761E884730288146F0D02F
:103B00002BE01099894505D1200603D4761E44F098
:103B1000800418E0484608F04BF908B3761E0DF112
:103B200023018B4544F4007408D2A9F130000BF84E
:103B3000010B200607D5AAF1010003E0200602D4FC
:103B40000AF101008246A00502D51399681C08609D
:103B5000B96912986D1C88478146002ED1DC53E06C
:103B6000002E51DDB9F1650F02D0B9F1450F4BD1EF
:103B7000A00549D5B9696D1C1298761E24F44074CD
:103B80008847002E81460CDD2B2804D0B9F12D0F7B
:103B900007D144F48074B96912986D1C8847761E69
:103BA0008146E00501D52D2100E02B2108F8011BFD
:103BB000CDF8008021E0761E0DF13901884544F4EE
:103BC00000740CD2A9F1300010F0FF0088F800005A
:103BD00002D10099884509D908F1010806E0E005FD
:103BE00001D51E4801E042F20F708246B969129871
:103BF0006D1C8847814613980560002E04DD4846F9
:103C000008F0D6F80028D6D1F96912988847FF2025
:103C100053468BF8000088F8000000200A900B90B3
:103C200004AA0CA90AA8FFF7ADFDA00502D46FF005
:103C30000100F8E614F0240F12D0E0071CD1386818
:103C4000DDE90A12031D3B600068C0E9001213E0C1
:103C500058A500004AA500000EA40000F1D8FFFFFF
:103C60000AA9684608F03CF8E00705D13868009AD0
:103C7000011D3960006802602846D4E610B504468C
:103C8000AFF300802046BDE81040FEF76ABB00009D
:103C90002DE9FF4F1F464FF03C0987B04FF000421F
:103CA000DDE9141001F10108DDF858A002EA4050E6
:103CB0000390002005908346054604460490B969A8
:103CC000461E08988847AAF1010A0290BAF1000F2F
:103CD0003BDD02982E2815D01021FFF7E9FB0028C4
:103CE0002EDB4FF0010B0599014317D0B9F1000FFE
:103CF0000BDB4A46C11700F0F5F905430C43A9F167
:103D0000040905E0012004900BE008B145F001052D
:103D100001200590049820B9361D02E0049800B1F6
:103D2000361FB969089808F101088847BBF1000FF0
:103D3000AAF1010A0290C9D00999C1F80080C5E72B
:103D40000298702808D0502806D0F969089888474A
:103D5000BBF1000F14D04FE0002002900120BBF116
:103D6000000F049009D0B969089808F10108884744
:103D7000AAF10109B9F1000F07DCF9690898884731
:103D80006FF001000BB0BDE8F08F2B2804D02D2878
:103D90000CD14FF0FF300490B969089808F1010880
:103DA0008847A9F10109B9F1000FE6DD411CE4D013
:103DB0000A21FFF77DFB0028DFDB029908F10108EB
:103DC00001EB810100EB41000290B9690898884736
:103DD0000A21FFF76DFB099AA9F10109B9F1000F5A
:103DE000C2F8008001DD0028E7DAF9690898884701
:103DF0000499029800FB016655EA040004D004F01F
:103E00004041090002D006E0039898E0A40044EA8B
:103E10009574AD00B61E04F00041080002D16D1982
:103E20006441761E159810F0240F03D04FF00B0953
:103E30005C4803E04FF028096FF07D00824656454C
:103E400007DAAAEB06018944B9F1410F01DD4FF011
:103E5000410901200021A9F1010200F043F90246C5
:103E600028400B462140084301D0012100E00021F9
:103E7000501E029143F1FF3128402140084301D0F8
:103E8000012000E000200299834651EA0B014FD047
:103E9000002108464FF00000039900F4400039B1BA
:103EA00000EB80004FF4400100EBD07001EA6000AD
:103EB0008015012802DD4FF0FF3000E013D0401CD8
:103EC00036D0029860B3BBF1000F0CD14A460120F6
:103ED000002100F007F928402140084301D00120CB
:103EE00000E00020E0B101204A46002100F0FAF88D
:103EF000034640190A4661412D1A8C4111D3B9F18C
:103F0000400F09DD159810F0240F02D0AAF13406F5
:103F100003E0AAF1170600E0761C00254FF00044EC
:103F200006E05B1E42F1FF3220EA030521EA0204AB
:103F3000CAF10100B04206DA1B4903980843019018
:103F4000002000900EE0039AC4F3D321E80A0A434C
:103F5000164940EA44500A433146CDE9000268461A
:103F600007F0CAFE159810F0240F0BD01598C00763
:103F700015D13868DDE90012031D3B600068C0E917
:103F800000120CE002A8694607F0AAFE1598C007C7
:103F900005D13868029A011D396000680260404608
:103FA000F0E6000002FCFFFF0000F07F0000F03FA1
:103FB0002DE9FF4F92461D4685B04FF00041DDE9E7
:103FC000124BDDE914727F1E01EA4B50414940F06B
:103FD000FF4940EA0108002122F02000492804910D
:103FE00002D04E2828D04CE03BA0012607C88DE81F
:103FF0000700A9690698641C88477F1E014606D4FD
:104000001DF8060018B121F0200181420BD0E969AA
:1040100006988847032E34D0082E32D06FF0010066
:1040200009B0BDE8F08F761C032E01D0082EE0D138
:10403000601CCAF80000DCE7A9690698641C884780
:104040007F1E2AD420F02000412826D1A969069895
:10405000641C88477F1E20D420F020004E281CD1ED
:10406000A9690698641C88477F1E48F4002849F413
:104070008009CAF8004001D4282806D0E9690698CA
:1040800088475FEACB7012D022E0A9690698641CC9
:1040900088477F1E01D4002803DAE969069888471B
:1040A000BCE72928F1D1641CCAF80040E9E71BF0FD
:1040B000240F07D028680499031D2B600068C0E90D
:1040C000001805E02868021D2A600068C0F800900A
:1040D0002046A5E70000F07F494E46494E49545915
:1040E00000000000B2F120030AD5C2F1200301FA5A
:1040F00002F120FA03F300FA02F041EA03017047EB
:1041000000FA03F14FF0000070475FEA400C08BF6F
:1041100091F0000F4FEA8C234FEAC12243EA51513C
:104120004FEA1C5018BF00F5F0404FEA300018BFAE
:1041300041F000415FEA6C5C00F02980BCF1FF3F78
:1041400008BF40F080407047130C06BF12044FF0C8
:10415000100C4FF0000C130E04BF12020CF1080CEF
:10416000130F04BF12010CF1040C930F04BF920053
:104170000CF1020CD30F04BF52000CF1010C1146DC
:104180004FF00002A0F11F00A0EB0C00704711F0EF
:10419000004F08BF704731F000413FF4D5AF0B0C22
:1041A00006BF09044FF0100C4FF0000C0B0E04BFBB
:1041B00009020CF1080C0B0F04BF09010CF1040CEF
:1041C0008B0F04BF89000CF1020CCB0F04BF490018
:1041D0000CF1010CCCF12003A0EB0C0022FA03F34C
:1041E00002FA0CF241EA030100F10100704720F0ED
:1041F0007F4C80EA030023F07F47ACEB070303F515
:104200007C5300F0004003F1FF032DE980494FEAA1
:10421000154B09B44FEA144325EA0B4E24EA034830
:104220000FF2042606EB132749083E785FEA3202B4
:1042300003FB0667C7F5000707FB06F64FEA54378E
:104240004FEAD64606F1020607FB066CCCF1005C8D
:104250004FEA1C472CEA074C07FB06F40CFB06F55B
:1042600004EB15464FEA961634BF00204FF000408D
:104270004FEAD13706FB07FC4FEA1C4C0CFB0BF74F
:10428000D21B03FB0CF761EB07010CFB0EF7B0EB45
:10429000074072EB17420CFB08F734BFA2EB074252
:1042A000B2EB074261EB17414FEA0C444FEA91072A
:1042B00006FB07FC4FEA1C4C0CFB0BF7B0EBC740AE
:1042C00072EB573203FB0CF734BFA2EBC742B2EBE1
:1042D000C74261EB57310CFB0EF7B0EBC70072EB36
:1042E00057720CFB08F734BFA2EBC702B2EBC70250
:1042F00061EB5771039F4FEA816141EA921104EB30
:10430000CC044FEAD1374FEA826206FB07FC42EA4F
:1043100090124FEA80604FEA1C4C0CFB0BF7D21B4B
:1043200003FB0CF761EB07010CFB0EF7B0EB07404A
:1043300072EB17420CFB08F734BFA2EB0742B2EB5B
:10434000074261EB17414FEA8C554FEA910704EBA6
:104350009C2406FB07FC4FEA1C4C0CFB0BF7B0EB54
:10436000C74072EB573203FB0CF734BFA2EBC742D6
:10437000B2EBC74261EB57310CFB0EF7B0EBC70055
:1043800072EB57720CFB08F734BFA2EBC702B2EB1B
:10439000C70261EB577115EB4C254FEA816141EA89
:1043A00092114FEA82624FEAD13742EA901206FB3D
:1043B00007FC44F100044FEA80604FEA1C4C0CFB00
:1043C0000BF7D21B03FB0CF761EB07010CFB0EF79D
:1043D000B0EB074072EB17420CFB08F734BFA2EBBF
:1043E0000742B2EB074261EB174115EB1C154FEA90
:1043F000813141EA92414FEA823242EA90424FEAE9
:1044000080304FEA0C7644F1000448EA03434EEA58
:104410000B484FF0000EB2EB080C71EB030724BF02
:10442000624639464EEB0E0E4FF0000B001852411B
:1044300049414BEB0B0BB2EB080C71EB03077BF123
:10444000000B24BF624639464EEB0E0E4FF0000BB8
:104450000018524149414BEB0B0BB2EB080C71EBCE
:1044600003077BF1000B24BF624639464EEB0E0E6C
:1044700051EA020718BF46F0010616EB0E7655F119
:10448000000254F1000103D5BDE88901BDE80088B0
:10449000BDE88901BDE80048B619524141EB010170
:1044A000A3F10103704780807F7E7D7C7B7A7978E1
:1044B000777676757473727171706F6E6E6D6C6CE9
:1044C0006B6A6A696868676666656464636362618B
:1044D0006160605F5F5E5E5D5D5C5C5B5B5A5A590C
:1044E0005958585757565655555554545353525278
:1044F0005251515050504F4F4F4E4E4D4D4D4C4CD0
:104500004C4B4B4B4A4A4A49494948484847474718
:104510004746464645454544444444434343434255
:10452000424242414141000046EA0646A3F570532B
:104530004FEA164646EA42564FEAD22242EA415232
:1045400010B54FEAD121A3F1010300F02FF820F0BC
:10455000004000F1020C00F0004701EB0050114652
:10456000BCF5006F40EA070000D210BDBAF1000FA1
:104570000AD01CB503B44FF004004FF004014FF013
:1045800000000FBCBDE810404FF00001BBF1010F6F
:10459000B9BF04484FF0FF310348002140EA07004B
:1045A00010BD00BFFFFFEF7F0000F07F002B9C4697
:1045B00030D477002BD01CB54FEA370703B44FF047
:1045C00010004FF01001BAF1000F06D0BCF1000F3F
:1045D000DCBF40F0080040F008014FF000000FBCC5
:1045E000BDE810400BF1010BBBF1010F08BF5FEA02
:1045F000170722BF12F1010211F101014FF0004132
:1046000043F1000300F0004043EA00007047F9D393
:104610005708D0E746EA064613F1400F4FEA164620
:104620001FDD13F1200FDFBF16430A4600212033A0
:104630005B42BED0C3F1200746EA064602FA07F7FE
:104640004FEA164646EA0706C3F1200722FA03F2AC
:1046500001FA07F721FA03F14FF0000342EA0702DB
:10466000A7E746EA020646EA06464FEA164646EA43
:104670000106BCBF46EA0646360C4FF000034FF079
:1046800000024FF0000194E72DE9804C9A469346D2
:1046900070B491E8380007C831EA400C48BF34EAEA
:1046A000430C03D5FFF7A3FDFFF780FFF0BCBDE887
:1046B000008C2DE9804C9A46934670B491E83800FE
:1046C00007C831EA400C48BF34EA430C03D5FFF772
:1046D0008EFDFFF729FFF0BCBDE8008C2DE9804C72
:1046E0009A46934670B491E8380007C810F0804F9E
:1046F00008BF13F0804F03D100F01AF8FFF756FF00
:10470000F0BCBDE8008C2DE9804C9A46934670B40D
:1047100091E8380007C810F0804F08BF13F0804FB1
:1047200003D100F005F8FFF7FFFEF0BCBDE8008CF8
:1047300020F07F4780EA030023F07F4C07EB0C0357
:10474000A3F57C5300F00040A3F1FE0392F0000FAC
:1047500000F0B38095F0000F00F077802DE901495B
:104760004FEA11404FEA144621EA004800FB06FCDC
:1047700024EA064708FB06F607FB08F800FB07F7E4
:1047800018EB06484CEB164C4FEA124B18EB074857
:104790004FEA15464CEB174022EA0B4E0BFB06FC8A
:1047A00025EA06470EFB06F607FB0EFE0BFB07F796
:1047B0001EEB064E4CEB164C4FF000061EEB074E60
:1047C0004CEB174B18EB0B0840F1000018EB0E0BED
:1047D00058EB000840F100008F1A4FF000013CBF79
:1047E000C943661B14BFB5EB040C00213CBFC94391
:1047F000F61B4FEA17444EEA8E0E27EA04454FEAAD
:104800001C4704FB07622CEA074C05FB07F70CFB6F
:1048100005F604FB0CFC16EB074642EB174216EBC1
:104820000C4642EB1C421BEB060658EB02024141D0
:1048300046EA9E0601D5BDE80189B619524141EB11
:104840000101A3F10103BDE801894FEA14454FEAD4
:10485000114724EA054621EA074C05FB07F406FB4D
:1048600007F70CFB06F105FB0CFC11EB074144EBD1
:1048700017444FEA124711EB0C4144EB1C4422EA67
:10488000074C05FB07F206FB07F70CFB06F605FBDA
:104890000CFC16EB074642EB174216EB0C4642EBBC
:1048A0001C456A1854F1000148BF7047B6195241BF
:1048B00041EB0101A3F10103704795F0000F37D0E0
:1048C0004FEA11424FEA144721EA024624EA074C14
:1048D00002FB07F106FB07F70CFB06F402FB0CFCDE
:1048E00014EB074441EB17414FEA154714EB0C4416
:1048F00041EB1C4125EA074C02FB07F506FB07F7D5
:104900000CFB06F602FB0CFC16EB074645EB1745C5
:1049100016EB0C4645EB1C42121951F1000148BF41
:104920007047B619524141EB0101A3F101037047F1
:104930004FEA14454FEA114724EA054621EA074C9D
:1049400005FB07F106FB07F70CFB06F24FF000062C
:1049500005FB0CFC12EB074241EB174112EB0C423A
:1049600051EB1C4148BF7047921841EB0101A3F184
:10497000010370470246002004E01378002B03D0A7
:10498000401C521C8842F8D37047FEE708B501224C
:10499000694605F00FFD40B19DF8000000F0A2FB54
:1049A0009DF8000020B105A103E04FF0FF3008BDE5
:1049B00003A104A0FDF782FD012008BD4F4E0000B9
:1049C0004F464600534350492045786563757465EA
:1049D000643A204F75747075742025730D0A0000B9
:1049E00010B586B0044618216846FEF725F815492B
:1049F00000236A46204605F09FFD40B19DF8000067
:104A000080B10298012806D0022807D00AE04FF0B2
:104A1000FF3006B010BD9FED0C0B01E09FED0C0BBD
:104A20008DED020B9DED020BB7EEC00B00F072FB9B
:104A30009DED020B08A053EC102BFDF73FFD01206C
:104A4000E7E7000058D700900000000000000000D9
:104A50000000000000004E40534350492045786557
:104A600063757465643A2053657420486F737420CD
:104A7000566F6C7461676520746F20252E336656FF
:104A80000D0A0000014800F08FBF000088020024DA
:104A9000294A016891423AD0274A1832914236D0C9
:104AA000254A3032914232D0234A483291422ED0A8
:104AB000214A603291422AD01F4A7832914226D050
:104AC0001D4A9032914222D01B4AA83291421ED0F8
:104AD0001A4A91421BD0194A1832914217D0174AEC
:104AE0003032914213D0154A483291420FD0134AC6
:104AF000603291420BD0114A7832914207D00F4A6E
:104B00009032914203D00D4AA832914211D1CAB2DB
:104B10001823103AB2FBF3F26FF30901032A02F0F3
:104B20000703074AD25CC26500D9091D81650846A2
:104B3000704721F0FF01F9E7100002401004024025
:104B400076D4009030B5224A012301689142CAB25E
:104B50001BD01F4C1434A14217D01D4C2834A14245
:104B600013D01B4C3C34A1420FD0194C5034A142FD
:104B70000BD0174C6434A14207D0154C7834A142B5
:104B800003D0134C8C34A1420CD11421114C083A9F
:104B9000B2FBF1F10F4A803201F01F0504EB8101F5
:104BA000AB4010E00C4D1824103A0D44B2FBF4F168
:104BB000A82D00D80831094A01F01F0402EB810139
:104BC000064AA3408032603080E80E0030BD00000D
:104BD0000854025800580258F0FBFDBF000802407C
:104BE00010B50279531E072B2DD8174C0168A1422E
:104BF0001BD0154C1434A14217D0134C2834A142B9
:104C000013D0114C3C34A1420FD00F4C5034A14270
:104C10000BD00D4C6434A14207D00B4C7834A14228
:104C200003D0094C8C34A14203D10849074C4431CC
:104C300002E00749064C443104EB8202C0E91B2123
:104C400001219940416710BD08540258FC58025890
:104C5000FC08024010B583694FF0C074826A0146B7
:104C6000002053B1B3F5005F15D072B1012A0CD00A
:104C7000022A0AD0032A09D104E01AB1012A06D077
:104C8000022A03D1C96AC90100D5012010BDC96A31
:104C9000A142FAD010BD002AF7D0012AF2D0022A90
:104CA000F3D0032AF3D010BD2DE9F04F804E804F92
:104CB000DFF8FC911836DFF8F8A148370468856DF5
:104CC0000AF1300ADFF8ECB14C45DFF8ECC1DFF84F
:104CD000ECE16DD0B4426BD0544569D0BC4267D092
:104CE000DFF8D081A8F11808444561D05C455FD059
:104CF00064455DD074455BD0DFF8C481444557D02E
:104D0000DFF8BC8108F11808444551D0DFF8B081C4
:104D100008F1300844454BD0DFF8A48108F1480879
:104D2000444545D0DFF8988108F1600844453FD0FC
:104D3000DFF88C8108F17808444539D0DFF88081AC
:104D400008F19008444533D0DFF8748108F1A808D1
:104D500044452DD0DFF86C81444529D0DFF86481CB
:104D600008F11408444523D0DFF8588108F12808D9
:104D700044451DD0DFF84C8108F13C08444517D06C
:104D8000DFF8408108F15008444511D0DFF8348144
:104D900008F1640844450BD0DFF8288108F1780851
:104DA000444505D0DFF81C8108F18C08444509D141
:104DB000D0E91948C4F80480C46E1CB1D0E91C487D
:104DC000C4F8048004684C452ED0B4422CD054451D
:104DD0002AD0BC4228D0374E183EB44224D05C457D
:104DE00022D0644520D074451ED0354EB4421BD02D
:104DF000334E1836B44217D0314E3036B44213D049
:104E00002F4E4836B4420FD02D4E6036B4420BD0F0
:104E10002B4E7836B44207D0294E9036B44203D098
:104E2000274EA836B44215D190F85C603F2406F0B6
:104E30001F06B440AC600468256825F48025256011
:104E40002EE09A600068C160BDE8F08F996000684C
:104E5000C260F9E71B4EB4421BD01A4E1436B4425E
:104E600017D0184E2836B44213D0164E3C36B442F2
:104E70000FD0144E5036B4420BD0124E6436B442AA
:104E800007D0104E7836B44203D00E4E8C36B44262
:104E9000DAD190F85C60012406F01F06B4406C6023
:104EA000046863608368402B0368CFD1C9E70000C2
:104EB0001000024088000240A0000240B8000240FA
:104EC00010040240085402581FB513A104461648A6
:104ED000FDF700FB01226946204605F0EFFAB8B164
:104EE0000022204602A905F0E9FA9DED000B0E48CC
:104EF0000EA153EC102BFDF7EDFA9DED020B0A48C5
:104F00000DA153EC102BFDF7E5FA012004B010BD04
:104F10004FF0FF30FAE70000636F6E663A766F6C11
:104F2000743A64630D0A0000080000240950313D02
:104F3000256C660D0A0000000950323D256C660D97
:104F40000A00000030B593B005461C4817A1FDF7D4
:104F5000C1FA1B49002306AA284605F0EDFA1849B4
:104F600000230CAA284605F0E7FA15490F2401ABE7
:104F7000284606AA009405F099F9104801AA11A143
:104F8000FDF7A8FA0E4901AB0CAA2846009405F0DB
:104F90008DF90A4801AA0EA1FDF79CFA9FED0F0BAF
:104FA000284605F0A9FD13B0012030BD6D65617381
:104FB0003A766F6C743A61630D0A000008000024B1
:104FC00058D700900950313D25730D0A00000000AC
:104FD0000950323D25730D0A00000000000000005A
:104FE0000000000030B593B005461C4817A1FDF73E
:104FF00071FA1B49002306AA284605F09DFA1849B4
:1050000000230CAA284605F097FA15490F2401AB96
:10501000284606AA009405F049F9104801AA11A1F2
:10502000FDF758FA0E4901AB0CAA2846009405F08A
:105030003DF90A4801AA0EA1FDF74CFA9FED0F0BAE
:10504000284605F059FD13B0012030BD6D65617330
:105050003A766F6C743A64630D0A0000080000240D
:1050600058D700900950313D25730D0A000000000B
:105070000950323D25730D0A0000000000000000B9
:10508000000000007047000010B58AB0002308241B
:105090004FF080428DE81D0007480A466946049398
:1050A000059306930793089301F066FB002800D050
:1050B00001200AB010BD0000540000241CB50021DE
:1050C000012000918DF8000001918DF8010001A8E8
:1050D00006F035FD024808226946FFF7D5FF1CBDE2
:1050E000021001001CB500220121009201928DF8EE
:1050F00000108DF801108DF8042008B1012000E0A7
:105100000020694608228DF805004FF48830FFF72B
:10511000BBFF1CBD1CB50021012000918DF80000D3
:1051200001918DF8010001A806F009FD024808224E
:105130006946FFF7A9FF1CBD0110010072B6FEE72A
:10514000054805490839026842F002020260086811
:105150008004FCD5704700000C480258014801F05B
:1051600049BC000054000024014801F043BC000089
:1051700054000024014801F03DBC0000540000240C
:10518000F0B503684FF6FC716D4C426BD3F8845058
:105190008D4345EA8205C3F88450036853F8845F61
:1051A000068F25F47F0545EA06451D60836B654D36
:1051B0009F180268D2F888308B4343EA8703C2F80D
:1051C0008830026852F8883F868F23F4FE0343EA52
:1051D00006431360066856F8A03FC26B8B4307EB8B
:1051E000420243EA82033360076857F8A03FB0F8F1
:1051F000406023F4FE0343EA06433B60D0E91036E7
:1052000003FB06220368D3F8B0608E4346EA8206A9
:10521000C3F8B0600368B0F84860D3F8B07027F402
:10522000FE0747EA0646C3F8B060D0E91267036894
:1052300006FB0722D3F8AC608E4346EA8206C3F829
:10524000AC60D0E91467036806FB0722D3F8F0606E
:105250008E4346EA8206C3F8F0600368B0F85860EF
:10526000D3F8F07027F47C1747EA0646C3F8F060DD
:105270000368876D53F8C06F02EB47028E4346EA1E
:10528000820119600168B0F85C20D1F8C03023F4C5
:105290007C1343EA0242C1F8C020016890F8602004
:1052A000D1F8C03023F07C5343EA0262C1F8C02039
:1052B000416B04EB8101C166826B01EB82020267E4
:1052C000C36B02EBC3024267D0E91034634302EBC5
:1052D00083028267D0E91234634302EB8302C26720
:1052E000D0E91434634302EB8302C0F88020836D5D
:1052F00002EBC303C0F88430C46D826E544303EBE9
:105300008403C0F88830046E544303EB8402C0F871
:105310009020AA420AD9D0F89C20032142F0200212
:10532000C0F89C2080F898100120F0BD002200E019
:1053300004C1D0F890308B42FAD80020F0BD0000B4
:1053400000AC0040FCD30040F0B58E680C69D1E998
:10535000005744EA0604DFB145F080452C43866ED1
:10536000D1E906C54F695E4391F8203045EA0C0546
:10537000B1F80CC0D0F884E0002047EA0363104F76
:105380001D430EEB860345EA0C45E3E8024511E0B8
:1053900044EA8544E3E71418155CA67894F803C042
:1053A00094F801E0360445EA0C6446EA0E252C43E5
:1053B000001D10C3CC683C5D8442ECD8F0BD0000F9
:1053C00080D400902DE9F84F044601F0A9FF009029
:1053D0003CB194F83500022806D080216165002098
:1053E000E4E00120BDE8F88FC74DC74EC649183527
:1053F00020683036DFF81483DFF814938842DFF832
:1054000014A3DFF814B32ED0A8422CD0B0422AD077
:10541000404528D0484526D0504524D0584522D074
:10542000BD4A183290421ED0BC4A90421BD0BB4AA3
:105430001832904217D0B94A3032904213D0B74A4E
:10544000483290420FD0B54A603290420BD0B34AF6
:105450007832904207D0B14A9032904203D0AF4A9E
:10546000A832904209D1026822F01E020260206830
:10547000426922F08002426103E0026822F00E02DB
:10548000026027688F4238464DD0A8424BD0B042C8
:1054900049D0404547D0484545D0504543D0584570
:1054A00041D09D4A183290423DD09C4A90423AD019
:1054B0009A4A1832904236D0984A3032904232D0CE
:1054C000964A483290422ED0944A603290422AD076
:1054D000924A7832904226D0904A9032904222D01E
:1054E0008E4AA83290421ED08D4A90421BD08C4AE0
:1054F0001432904217D08A4A2832904213D0884AF8
:105500003C3290420FD0864A503290420BD0844AAF
:105510006432904207D0824A7832904203D0804A67
:105520008C32974204D1206E026822F480720260AD
:1055300075492068884228D0A84226D0B04224D09D
:10554000404522D0484520D050451ED058451CD05B
:1055500071491831884218D07049884215D06F4976
:105560001831884211D06D49303188420DD06B49D5
:105570004831884209D069496031884205D067497D
:105580007831884201D065499031016821F00101EC
:1055900001600EE001F0C4FE0099401A052808D908
:1055A000202262650321002084F8351084F834003D
:1055B00017E73868C007EDD1534A012120689042AF
:1055C0002ED0A8422CD0B0422AD0404528D0484501
:1055D00026D0504524D0584522D04F4B18339842FE
:1055E0001ED04E4B98421BD04C4B1833984217D0CC
:1055F0004A4B3033984213D0484B483398420FD02F
:10560000464B603398420BD0444B7833984207D0D6
:10561000424B9033984203D0404BA833984208D174
:1056200094F85C703F23A06D07F01F07BB408360B8
:1056300007E094F85C30A06D03F01F0301FA03F358
:105640004360206890424DD0A8424BD0B04249D030
:10565000404547D0484545D0504543D0584541D0B6
:105660002D4A183290423DD02C4A90423AD02B4AD3
:105670001832904236D0294A3032904232D0274AEE
:10568000483290422ED0254A603290422AD0234A96
:105690007832904226D0214A9032904222D01F4A3E
:1056A000A83290421ED01E4A90421BD01C4A14328F
:1056B000904217D01A4A2832904213D0184A3C32EE
:1056C00090420FD0164A503290420BD0144A6432A6
:1056D000904207D0124A7832904203D0104A8C325E
:1056E00090420BD1D4E919024260E06E30B10268F9
:1056F00022F480720260D4E91C024260002084F827
:10570000351084F834006DE6100002405800024065
:105710007000024088000240A000024010040240D5
:10572000085402582DE9F05F28B190F8351002298D
:1057300004D0802141650120BDE8F09F904C904B42
:105740000168183C18338E4ADFF83C92A1428D4C18
:10575000DFF838E28E4FDFF83CB2DFF83CA28F4D25
:105760008F4E31D091422FD099422DD0A1422BD0D3
:10577000494529D0714527D0B94225D0DFF810C25C
:105780000CF1180C61451FD0DFF808C2ACF1600CB9
:10579000614519D0DFF8FCC1ACF1480C614513D06C
:1057A000DFF8F0C1ACF1300C61450DD0DFF8E4C199
:1057B000ACF1180C614507D0594505D0514503D0CF
:1057C000A94201D0B1422CD1DFF8B4C14FF0040896
:1057D00080F83580ACF1180C61451DD091421BD08A
:1057E000994219D0A14217D0494515D0714513D01F
:1057F000B94211D06648183081420DD065486038F2
:10580000814209D063484838814205D06148303828
:10581000814201D05F481838086820F00100086014
:10582000ABE0D1F800C02CF00E08DFF854C1C1F88D
:105830000080ACF1180C0168614527D0914225D059
:10584000994223D0A14221D049451FD071451DD096
:10585000B9421BD0DFF838C10CF1180C614515D0E6
:10586000DFF830C1ACF1600C61450FD0DFF824C126
:10587000ACF1480C614509D0DFF818C1ACF1300C2F
:10588000614503D0DFF80CC1ACF1180CD1F800C0B1
:105890002CF0010CC1F800C0DFF8E4804FF0010CDF
:1058A0000168A8F11808414546D0914244D0994278
:1058B00042D0A14240D049453ED071453CD0B9428A
:1058C0003AD0334A1832914236D0324A603A914245
:1058D00032D0304A483A91422ED02E4A303A914244
:1058E0002AD02C4A183A914226D0594524D0514505
:1058F00022D0A94220D0B1421ED02A4A91421BD0C8
:10590000284A1432914217D0264A2832914213D0A5
:10591000244A3C3291420FD0224A503291420BD05D
:10592000204A6432914207D01E4A7832914203D015
:105930001C4A8C32914218D1016E0A6822F480729E
:105940000A6090F85C20816D02F01F020CFA02F2EE
:105950004A60D0E919124A60C16E31B10A6822F476
:1059600080720A60D0E91C124A600022016D80F842
:1059700035C080F8342001B188470020DCE6000003
:105980002800024058000240700002408800024097
:10599000A00002407004024088040240A0040240BB
:1059A000B8040240085402582DE9FC5F0446F74E43
:1059B0000020DFF8D88300904FF41652F44808F125
:1059C0001808A56DDFF8C493DFF8C0A3016809F1DA
:1059D000300920680AF1480AB1FBF2F1B0420191A6
:1059E0002F68D5F800C0DFF8ACB335D04146884207
:1059F00032D0484530D050452ED058452CD0E549BE
:105A00001831884228D0E3493031884224D0E14916
:105A10004831884220D0E04988421DD0DE49183103
:105A2000884219D0DC493031884215D0DA494831F2
:105A3000884211D0DFF860E30EF1600E70450BD0A4
:105A4000D54A7832904207D0D34B9033984203D056
:105A5000D149A83188427DD194F85C20082102F018
:105A60001F0201FA02F23A424AD0B04232D0404517
:105A700030D048452ED050452CD058452AD0C54A64
:105A80001832904226D0C34A3032904222D0C14AC6
:105A9000483290421ED0C04A90421BD0BE4A1832B3
:105AA000904217D0BC4A3032904213D0BA4A4832A2
:105AB00090420FD0B84A603290420BD0B64A78324A
:105AC000904207D0B44A9032904203D0B24AA832F2
:105AD000904203D1026802F0040202E0026802F080
:105AE00008026AB1026822F00402026094F85C00C5
:105AF00000F01F008140A960606D40F0010060650A
:105B000094F85C00012100F01F008140394240D030
:105B10002068B04234D0404532D0484530D050455E
:105B20002ED058452CD09B4A1832904228D0994A02
:105B30003032904224D0974A4832904220D0964A40
:105B400090421DD0944A1832904219D0924A303275
:105B5000904200E0AFE113D08F4A483290420FD01C
:105B60008D4A603290420BD08B4A7832904207D0F7
:105B7000894A9032904203D0874AA83290427DD120
:105B8000406910F0800F04D0A960606D40F0020001
:105B9000606594F85C00042100F01F0081403942E8
:105BA0003ED02068B04232D0404530D048452ED05B
:105BB00050452CD058452AD0764A1832904226D0EB
:105BC000744A3032904222D0724A483290421ED0FB
:105BD000714A90421BD0704A1832904217D06E4AD8
:105BE0003032904213D06C4A483290420FD06A4A09
:105BF000603290420BD0684A7832904207D0664AB1
:105C00009032904203D0644AA83290424ED100684C
:105C100010F0020F04D0A960606D40F004006065D0
:105C200094F85C00102100F01F008140394258D0E8
:105C30002068B04234D0404532D0484530D050453D
:105C40002ED058452CD0534A1832904228D0514A71
:105C50003032904224D04F4A4832904220D04E4AAF
:105C600090421DD04C4A1832904219D04A4A3032E4
:105C7000904215D0484A4832904200E014E00FD0DC
:105C8000454A603290420BD0434A7832904207D066
:105C9000414A9032904203D03F4AA832904207D105
:105CA000006800F0080006E0006872E70068B7E7E7
:105CB000006800F00400A0B1A960206801684903F1
:105CC00004D50068000308D5A16C07E00168C90588
:105CD00003D4016821F008010160216C09B120465C
:105CE000884794F85C00202100F01F008140394271
:105CF00079D02068B04232D0404530D048452ED0CF
:105D000050452CD058452AD0224A1832904226D0ED
:105D1000204A3032904222D01E4A483290421ED051
:105D20001D4A90421BD01C4A1832904217D01A4A82
:105D30003032904213D0184A483290420FD0164A5F
:105D4000603290420BD0144A7832904207D0124A07
:105D50009032904203D0104AA832904203D100689A
:105D600000F0100002E0006800F00200B0B3A9608B
:105D700094F835000428206801680FD049037ED5C7
:105D8000006800032BD4616C2AE000001000024080
:105D900018000024700002401004024021F0160197
:105DA00001602068416921F080014161206C08B9DF
:105DB000A06C20B12068016821F00801016094F80E
:105DC0005C303F21012003F01F0300229940A960AD
:105DD00084F8350084F83420216D65E003E0E16B40
:105DE00009B120468847606D00287DD0606DC007EE
:105DF00059D02068042184F83510B0422BD040459A
:105E000029D0484527D0504525D0584523D09D4915
:105E1000884220D09B49183188421CD099493031A2
:105E2000884218D09849884215D09749183188423D
:105E300011D09549303188420DD09349483188427C
:105E400009D091496031884205D08F497831884224
:105E500001D08D499031016821F001010160206875
:105E60000099019A491C0091914202D80168C90722
:105E7000F6D10068C00710D003200FE0FFE70168EB
:105E8000C905ACD403680121002223F0100303608C
:105E900084F8351084F83420A1E7012084F8350017
:105EA000002084F83400E16C00291DD002B02046A7
:105EB000BDE8F05F0847754988421DD07349143129
:105EC000884219D071492831884215D06F493C3138
:105ED000884211D06D49503188420DD06B496431F0
:105EE000884209D0694900E084E07831884203D0D3
:105EF00066498C3188427DD194F85C800427016822
:105F000008F01F0807FA08F717EA0C0F009746D0A9
:105F10004F0744D500980F04686003D5C8033CD4EC
:105F2000A16CC1E7880638D42068B0422DD055490D
:105F30006039884229D0484527D0504525D058455A
:105F400023D05049884220D04E49183188421CD075
:105F50004C493031884218D04B49884215D04A49C3
:105F60001831884211D04849303188420DD0464915
:105F70004831884209D0704507D0904205D09842F8
:105F800003D04149A831884203D1016821F00801BA
:105F900002E0016821F004010160216C84E702271E
:105FA00007FA08F717EA0C0F00974ED08F074CD569
:105FB00000980F04686003D5C80344D4616C73E78C
:105FC000880640D42068B0422FD02E4960398842DC
:105FD0002BD0484529D0504527D0584525D02949B0
:105FE000884222D02749183188421ED025493031B5
:105FF000884200E044E018D02349884215D0224965
:106000001831884211D02049303188420DD01E49C4
:106010004831884209D0704507D0904205D0984257
:1060200003D01949A831884203D1016821F0140135
:1060300002E0016821F00A010160012184F83510B5
:10604000002084F83400E16B2EE7082202FA08F2FF
:1060500012EA0C0F14D0090712D5016821F00E01C5
:10606000016094F85C100120002201F01F0100FA89
:1060700001F16960606584F8350084F8342012E726
:10608000BDE8FC9F880002401004024008540258FA
:106090002DE9F05F044601F043F9002C07467DD05E
:1060A000E34E022120684FF00308DFF888934FF099
:1060B0000005DFF884A3B042DFF880B334D0DC4AB7
:1060C0001832904230D048452ED050452CD05845FB
:1060D0002AD0DA4A1832904226D0D84A303290423A
:1060E00022D0D64A483290421ED0D54A90421BD088
:1060F000D34A1832904217D0D14A3032904213D04E
:10610000CF4A483290420FD0CD4A603290420BD0F5
:10611000CB4A7832904207D0C94A9032904203D09D
:10612000C74AA83290427DD184F83510B04284F835
:1061300034502ED0BE49183188422AD0484528D044
:10614000504526D0584524D0BC491831884220D02B
:10615000BA49303188421CD0B8494831884218D0F9
:10616000B749884215D0B6491831884211D0B44990
:10617000303188420DD0B2494831884209D0B04907
:106180006031884205D0AE497831884201D0AC49AF
:106190009031016821F00101016008E027E100BFB2
:1061A00001F0BEF8C01B052801D920211CE12068A0
:1061B0000068C007F4D104F108002168D4E9053C67
:1061C0008E4685C809681043D4E907281F43636ACF
:1061D00038439C4F40EA0C001043394040EA080025
:1061E000042B40EA010003D1D4E90B121143084308
:1061F000954909686FF30F01B1F1005F0FD3616832
:10620000A1F12902052A08D9163A032A05D9083A24
:10621000012A02D94F39032901D840F48010CEF861
:10622000000000E023E02068676A4069042F20F046
:10623000070047EA00070DD1D4E90A01074349B135
:106240002046FEF707FD28B140206065012184F853
:106250003510CCE0206847612046FEF719FC94F821
:106260005C203F2102F01F029140816054E0774A98
:1062700090421BD0754B1433984217D0734B283380
:10628000984213D0714B3C3398420FD06F4B503330
:1062900098420BD06D4B6433984207D06B4B7833E8
:1062A000984203D0694B8C3398427DD184F83510E5
:1062B00084F83450664B0168A26801EA030E402A54
:1062C00073D0802A72D00022D4E90378D4E9053152
:1062D00042EAD70242EAD8085C4AD4E9077C48EA95
:1062E000D30848EAD10141EAD701524241EA1C11E0
:1062F000142341EA0E01016020681044B0FBF3F062
:106300008000E0652046FEF7C3FB94F85C20012185
:1063100002F01F02914041602068B04257D04449CA
:106320001831884253D0484551D050454FD0584538
:106330004DD042491831884249D0404930318842D5
:1063400045D03E494831884241D03D4988423ED0FF
:106350003B49183188423AD039493031884236D0E9
:1063600037494831884232D03549603188422ED091
:106370003349783188422AD031499031884226D039
:106380002F49A831884222D0304988421FD02F4956
:10639000143188421BD02D492831884217D02B490F
:1063A0003C31884213D002E01DE017E018E0274995
:1063B000503188420BD025496431884207D02349A7
:1063C0007831884203D021498C31884229D1204636
:1063D000FEF7B8FBA06880280CD00CE0102273E711
:1063E0004FF4804270E74021616584F835800120D8
:1063F000BDE8F09F6560216E20790860D4E919013D
:1064000041606068401E072808D82046FEF7E8FB78
:10641000E06E0560D4E91C01416002E0E566256795
:1064200065670120656584F835000020E0E700001D
:10643000100002404000024058000240700002403C
:10644000100402403F8010FE0010005C0854025807
:106450000F00FEFF2DE9F84F04008C464FF00000BE
:10646000009014D094F83400012812D094F83550DC
:106470000120002184F83400012D0CD0C002606599
:106480000120009084F834100098BDE8F88F0120B6
:10649000FBE70220F9E78C4D0226206884F835607E
:1064A000A8428A4D61658A4E8A4FDFF82C82DFF858
:1064B0002C92DFF82CA2DFF82CB226D0A84224D0F0
:1064C000B04222D0B84220D040451ED048451CD012
:1064D00050451AD0584518D08349884215D0824972
:1064E0001831884211D08049303188420DD07E4920
:1064F0004831884209D07C496031884205D07A49C8
:106500007831884201D078499031016821F0010149
:10651000016061462046FEF7C7FB6B492068884250
:106520002CD0A8422AD0B04228D0B84226D040452C
:1065300024D0484522D0504520D058451ED06A4A24
:1065400090421BD0684A1832904217D0664A3032C7
:10655000904213D0644A483290420FD0624A60326F
:1065600090420BD0604A7832904207D05E4A903217
:10657000904203D05C4AA83290420CD1026822F0CB
:106580001E0242F016020260206C88B12068026888
:1065900042F008020BE0026822F00E0242F00A020A
:1065A0000260206C20B12068026842F004020260A0
:1065B000206888424BD0A84249D0B04247D0B84268
:1065C00045D0404543D0484541D050453FD058453F
:1065D0003DD0454A90423AD0434A1832904236D094
:1065E000414A3032904232D03F4A483290422ED017
:1065F0003D4A603290422AD03B4A7832904226D0BF
:10660000394A9032904222D0374AA83290421ED066
:10661000364A90421BD0354A1432904217D0334A42
:106620002832904213D0314A3C3290420FD02F4A48
:10663000503290420BD02D4A6432904207D02B4A00
:106640007832904203D0294A8C3290420DD1206E8C
:106650000268D20303D5026842F480720260E06EE1
:1066600018B1026842F4807202602068884226D025
:10667000A84224D0B04222D0B84220D040451ED0FB
:1066800048451CD050451AD0584518D01649884264
:1066900015D015491831884211D01349303188423C
:1066A0000DD011494831884209D00F4960318842E4
:1066B00005D00D497831884201D00B4990310168ED
:1066C00041F001010160DFE61000024028000240B5
:1066D0004000024058000240700002408800024022
:1066E000A0000240B80002401004024008540258C2
:1066F00010B590F89830012B09D0022B07D0D0F8B4
:106700009C1041F00201C0F89C10012010BD0368EC
:106710009C6D0C4203D1DC6D44F0010404E09C6DDF
:1067200031EA04041FD00324DC658B0505D503681A
:10673000D3F8E0401443C3F8E0404B0505D50368A7
:10674000D3F8E4401443C3F8E4400068084A01EA7F
:106750000203446D074A1C434465106840EA917087
:106760001060002010BDDC6D44F00204DCE7000086
:10677000FFFFCF3F14A8004070B5044690F8980082
:10678000022804D0D4F89C0040F008000DE02068F6
:10679000D0F8C03013F07C5F0BD0D0F8C4309B022F
:1067A0000CD5D4F89C0040F40070C4F89C00012083
:1067B00070BDD4F89C0040F02000F6E7D0F8C4008B
:1067C000C0F3044520462B46FEF7BEFD216801209C
:1067D000A840C1F8D000C4F89400002070BD7047F4
:1067E00070B590F89820012A09D0022A07D0D0F875
:1067F0009C1041F00201C0F89C10012070BD0B6894
:10680000CA6883B10B69072A43EA427325D00C7A20
:106810004A6942EA84724968006F00EBC100C0E92E
:106820000032002070BD072A0DD00C7AD6060D8AE2
:106830004B6943EA847246EA0543C06E49681A43CD
:1068400040F82120EDE70B8A4FF06055D1E906248E
:1068500042EA034245EA0423EFE78A69DBE770472F
:1068600070470000F0B590F898500024022D04D035
:10687000D0F89C1041F0080129E0402905D04129B9
:1068800029D0056D8D4219D942E00568D5F8A06080
:1068900016F4FE0F12D0D5F8A460760613D0D5F802
:1068A000A460F60105D5D5F8A06016F0004F00D51C
:1068B0000124D5F8A470466F456C24E0D0F89C10F4
:1068C00041F0200103E0D0F89C1041F48071C0F841
:1068D0009C100120F0BD0568D5F8B06016F4FE0FDD
:1068E000ECD0D5F8B4607606EDD0D5F8B460F601FA
:1068F00005D5D5F8B06016F0004F00D50124D5F8C5
:10690000B470866FC56CC7F305273C44654302E04D
:10691000456DC66F4D4306EB85052E6816F0804623
:1069200056602E6836D026F060461660D5F800C056
:1069300000262E4F0CF0005CC2F808C0D5F800C04D
:106940000CF0004CC2F810C0B5F804C01FFA8CFC63
:10695000C2F81CC0D5F804C0CCF3034CC2F80CC07C
:10696000D5F804C00CF4801CC2F814C0D5F804C0DB
:106970000CF4001CC2F818C0D5F804C0CCF3066CA7
:10698000C2F820C0D5F804C008354FEADC7CC2F854
:1069900024C008E0C6F38A46C7E700BF15F806C062
:1069A00003F806C0761CD2F80CC017F80CC0B4452A
:1069B000F4D840290AD041290CD020294FF00102F7
:1069C0000CD200688A40C0F898200DE00068C0F83A
:1069D000A84009E00068C0F8B84005E0006801F090
:1069E0001F018A40C0F89C200020F0BD80D4009098
:1069F000704700002DE9FF5FDFF80CB304460BF190
:106A00000401DBF8000025680F68AA468007D5F866
:106A10005090696DD5F850806E6D2A6DD5F854C0D0
:106A20002B6D00EA8770009009F470496F6D286D36
:106A300001EA09010191DAF85410DAF85490DAF811
:106A4000505008F00F0806EA0806029602F0F0021D
:106A500003F071536FEA09061F4000F060700CEA02
:106A6000020CCDF80CC0F20501EA00090CD4E84391
:106A7000C00509D400214FF48073CAF85030CBF818
:106A800000102046FFF7B4FF700512D4E84340051C
:106A90000FD4206800234FF48068D0F8DC20D0F8B1
:106AA000E410C0F85080CBF800301140204600F0D0
:106AB00011FBDFF858A2009850B12268830F00EA5A
:106AC0000A001065CBF8003020460099FFF787FEDA
:106AD000019850B12268830F00EA0A001065CBF8D4
:106AE00000302046019900F0F7FA029850B1226870
:106AF000830F00EA0A001065CBF8003020460299A7
:106B000000F088FA039850B12268830F00EA0A0067
:106B10001065CBF800302046039900F0BBFA300531
:106B20000CD4E843000509D4236800204FF4006228
:106B30001A65CBF80000204600F0CFFAB00512D459
:106B4000E84380050FD4206800234FF40078D0F884
:106B5000D820D0F8E010C0F85080CBF800301140B9
:106B6000204600F0B8FA30030CD4E843000309D4FF
:106B7000236800204FF400221A65CBF8000020465D
:106B800000F046FAF0030CD4E843C00309D42368AC
:106B900000204FF480321A65CBF80000204600F048
:106BA00098FA70030CD4E843400309D4226800200B
:106BB0004FF480231365CBF80000204600F088FADC
:106BC000B0030FD4E84380030CD4236800204FF4B3
:106BD00000321A65CBF80000D4F89C0040F0800029
:106BE000C4F89C00B9F1000F0BD022684FEA9973EA
:106BF00009EA0A001065CBF8003049462046FFF745
:106C00002FFE5FB12268BB0F07EA0A001065CBF8C0
:106C10000030D4F89C003843C4F89C003C492068FC
:106C2000884268D1606881468068800763D0D9F85F
:106C30002060D9F82410D9F82080D9F82400D9F898
:106C400020C0D9F82470D9F82030D9F82450D9F8C8
:106C5000202003F4FC4306F00F0AD9F824601D40FD
:106C6000D9F824B008F030080CF4C07C02F4F0220B
:106C700011EA0A0100EA080807EA0C0706EA020618
:106C8000D9F820A004D0C9F82010204600F01DFA41
:106C9000B8F1000005D0616808624146204600F066
:106CA00016FA6FEA0B0040060ED46FEA0A0040069F
:106CB0000AD460684021C36BC26B01622046190C84
:106CC00002F03F0200F002FA2FB160680762394615
:106CD000204600F0F9F935B160680562D4F89C00EF
:106CE0002843C4F89C0036B160680662D4F89C0062
:106CF0003043C4F89C00D4F89C00002802D0204601
:106D0000FFF7ADFDBDE8FF9F10A80040FFFFCF3F9C
:106D100000A000402DE9F04194B08D494C2204467A
:106D20006846FBF757FE64B18A4D2068A84202D13D
:106D300000F58070606094F898004FF0000820B172
:106D400008E0012014B0BDE8F081204684F8998065
:106D500000F002F92068816921F01001816100F0E2
:106D6000DFFA0327064604E000F0DAFA801B0A285F
:106D700011D8206880690007F6D42068816941F045
:106D80000101816100F0CCFA06460DE000F0C8FA7E
:106D9000801B0A2808D9D4F89C0040F00100C4F8F0
:106DA0009C0084F89870CCE720688069C007EDD01B
:106DB0002068816941F002018161207C01282068FE
:106DC000816937D041F040018161607C01282068F1
:106DD000816932D021F480418161A07C0128206842
:106DE00081692DD041F4805181612068A268816958
:106DF00021F44071114381612068816921F0A4016F
:106E000081612068016921F010010161E0680128B9
:106E100019D010B302281BD02068816941F080018D
:106E200081612068016941F010010161E068032877
:106E30000ED012E021F04001C6E741F48041CBE7DB
:106E400021F48051D0E72068816941F0040103E01A
:106E50002068816941F020018161207E6FF0FF028E
:106E6000D4E90773A68A1102400602EB0727A0F1B6
:106E70000070384327685B1E184301EB0646304319
:106E8000F861A068B0F5407F11D104F12800A68C0C
:106E90006FF00F0C89C801EB0641401E02EB032284
:106EA000104322680CEB071318430843D060206E90
:106EB00030B12068626ED0F8C0101143C0F8C01025
:106EC000D4E917126846D14209D02168A36E51F85F
:106ED000C82F50F8233022F007021A430A60216CB1
:106EE00049B12168626C51F8BC3F50F8226023F030
:106EF000070232430A60A16C51B12168E36C51F87A
:106F0000BC2F50F8233022F0700242EA03120A60CC
:106F1000216D51B12168626D51F8BC3F50F82200DB
:106F200023F4E06242EA002008602068A84204D10D
:106F30006068816821F003018160C4F894800121B8
:106F4000C4F89C8084F898102046FEF719F9F9E6F9
:106F500090D4009000A0004010B5B6B004461421B3
:106F600030A8FBF769FDC0216846FBF765FD2549A0
:106F70002068884244D100201C904FF40041CDE9A4
:106F80000010684600F06AFC08B1FEF7D7F81E480A
:106F9000016841F480710160006800F480703590F0
:106FA00019480C38016841F00101016000680DF1D9
:106FB000C00C022100F001003590012203230924B6
:106FC0004FF4C0508CE81F00104830A900F086F83C
:106FD00000220521132000F08FFA132000F07EFA22
:106FE00000220521152000F087FA152000F076FA1E
:106FF000002205213F2000F07FFA3F2000F06EFACA
:1070000036B010BD00A00040EC4402580000025809
:107010007047000030B5C9078DB026D0402101ABC4
:1070200003AAFFF71FFC00281FD111480399014450
:1070300004291AD89DF8085000299DF809409DF8A8
:107040000A3065F31F609DF80B2064F3174063F36B
:107050000F2062F3070008D100EE100A05A0B7EE7A
:10706000C00A53EC102BFBF729FA0DB030BD00001D
:1070700000DFF5FF2D3E20E5AE9EE697B6E6B58B28
:10708000E9878FE794B5E58E8B3A20252E3366206D
:10709000560D0A00704790F89810012907D0D0F8D3
:1070A0009C1041F00401C0F89C100120704702219F
:1070B00080F89810002201688B6923F001038B612E
:1070C000C0F89C2010467047704770477047704763
:1070D0007047704770477047704770472DE9F84F09
:1070E00003247D4D00234FF001094FF0B04B4FF0CA
:1070F0000F0AE9E009FA03F73A4076D00E7906F074
:107100000306012E01D0022E18D1D0F808C04FEA94
:10711000430ECE6804FA0EF82CEA080C06FA0EF6B6
:1071200046EA0C068660D0F804C00E792CEA070CFB
:10713000C6F300169E4046EA0C0646600E79F643FA
:10714000B6070BD0C6684FEA43088F6804FA08FCFC
:1071500026EA0C0607FA08F73743C7600E7906F0EF
:107160000306022E12D1DE080F694FEA437C00EBC2
:107170008606B646366A4FEADC6C0AFA0CF807FA5D
:107180000CF726EA08063743CEF820700F79066818
:107190004FEA430807F0030704FA08FC07FA08F768
:1071A00026EA0C06374307604E6816F4403F1CD0B1
:1071B0004A4E376847F00207376036689F0706F087
:1071C0000206009623F0030606F1B046B6463F0FCE
:1071D000D6F80864DFF808810AFA07FC404526EA79
:1071E0000C0603D14FF0000C41E06CE0DFF8F4C076
:1071F000604502D14FF0010C39E0DFF8ECC060458A
:1072000002D14FF0020C32E0DFF8E0C0604502D15D
:107210004FF0030C2BE0DFF8D8C0604502D14FF0EF
:10722000040C24E0DFF8CCC0604502D14FF0050C1F
:107230001DE0DFF8C4C0604502D14FF0060C16E037
:10724000DFF8B8C0604502D14FF0070C0FE0DFF85F
:10725000B0C0604502D14FF0080C08E0DFF8A4C0D0
:10726000604502D14FF0090C01E04FF00A0C0CFA16
:1072700007FC4CEA060CCEF808C44F68DBF8006047
:10728000FF0226EA020600D516435F46CBF80060EF
:10729000D1F804C0DBF804605FEA8C2C26EA020611
:1072A00000D516437E606E684F6826EA0206BF036B
:1072B00000D516436E602E684F6826EA0206FF036B
:1072C00000D516432E605B1C0A6832FA03F67FF481
:1072D00011AFBDE8F88F000080000058F444025858
:1072E000000002580004025800080258000C02581E
:1072F000001002580014025800180258001C0258CE
:1073000000200258002402580AB181617047090424
:10731000FBE7000001480068000C70470010005CAB
:1073200001488068704700000C0000240248816812
:1073300002781144816070470C000024032010B5CE
:1073400000F0FAF801F002F90F4A104914681368C6
:10735000C4F3032203F00F038A5CC95C02F01F022E
:1073600001F01F01D0400A4A20FA01F111600949D9
:1073700008600F2000F010F808B1012010BD00F0E7
:107380009FF8002010BD00001844025804D500905A
:107390001C0000241800002410B5102804468AB0F0
:1073A0002CD200220146362000F0A6F8362000F04C
:1073B00095F8174804601748016841F01001016012
:1073C000006809A900F010000890684601F04AF82A
:1073D0000598B0B101F096F840000F4900220F4C1B
:1073E000B0FBF1F10E4840F2E7330460C0E903322C
:1073F000491EC0E9011201F009FC28B101200AB0C0
:1074000010BD01F07FF8E8E7054801F031FCF6E730
:1074100010000024E844025840420F0000100040D1
:1074200000030024154BF0B5083B427813491A605D
:107430000B680A1F23F001030B6043681360057B90
:10744000C67A827A437B2D07847B45EA0665C77B33
:1074500090F809C0067A90F800E045EAC24040EA98
:10746000834040EA444040EA074040EA0C2040EABA
:10747000460040EA0E000860F0BD0000A0ED00E00C
:10748000BFF35F8F044800210368034A23F480336D
:10749000036070321160704724ED00E0074A40F04D
:1074A0000100064970321060086840F480300860BE
:1074B000BFF34F8FBFF36F8F7047000024ED00E0E4
:1074C000054808B5016841F002010160006800F05C
:1074D0000200009008BD0000F4440258002809DBB7
:1074E000410900F01F028900012001F1E0219040D4
:1074F000C1F80001704700000E4BF0B41B680D4648
:10750000C3F30223C3F10706042E00D90426191D74
:10751000072901D2002300E0DB1E012404FA06F152
:107520009C40491E2940641E994014402143F0BCF0
:1075300004F028BB0CED00E0064900F0070210B58E
:107540004FF6FF040868044B204040EA022018432D
:10755000086010BD0CED00E00000FA05134970B59D
:107560000A68D243520705D5096801F00701814234
:1075700013D118E00A6822F0070202430A60FFF7FD
:10758000CFFE0A4D4FF47A760446083D07E000BF6F
:10759000FFF7C6FE001BB04201D9012070BD28686C
:1075A000C0438004F4D4002070BD00000C48025891
:1075B00010B500F085FF05490968054AC1F30211BD
:1075C000515C01F01F01C84010BD0000204402586A
:1075D00004D50090494930B5484C0B1D0A68143455
:1075E00009681D68246802F00303C5F30012C1F3A3
:1075F0000531C4F3CC04002914FB02F200EE102A7A
:10760000F8EE400A75D03F4A9FED3D1AB7EE000AEA
:107610006BB1DFED3D1A012B01D0022B64D002EEDD
:10762000101A1168F8EE422A81EEA22A21E0334CAA
:10763000283C23689B0612D5344B246801EE901A2F
:107640001168C4F3C104F8EE612AE34001EE903AF8
:10765000C1F30801F8EE611A81EEA22A0BE001EEF7
:10766000901ADFED2B2A00BFF8EE611A116882EE46
:10767000A12AC1F3080101EE901A1168F8EE611A0F
:1076800040EE811A71EE800A62EE200AC1F34621B3
:1076900001EE101AB8EE411A31EE001AC0EE811A4E
:1076A000BCEEE11A80ED001A1168C1F3064101EE4B
:1076B000101AB8EE411A31EE001AC0EE811ABCEE73
:1076C000E11A80ED011A1168C1F3066101EE101A8A
:1076D000B8EE411A31EE000A80EE801ABCEEC10A03
:1076E00080ED020A30BD04E001EE901ADFED092AB8
:1076F000BAE70021016041608160F3E72844025845
:1077000000000039384402580024744A0090D00325
:107710000024744C20BCBE4B494930B5484C0B1D6D
:107720000A681C3409681D68246802F00303C5F365
:107730000022C1F30551C4F3CC04002914FB02F26A
:1077400000EE102AF8EE400A75D03F4A9FED3D1A30
:10775000B7EE000A6BB1DFED3D1A012B01D0022B11
:1077600064D002EE101A1168F8EE422A81EEA22AC5
:1077700021E0334C283C23689B0612D5344B246807
:1077800001EE901A1168C4F3C104F8EE612AE340D7
:1077900001EE903AC1F30801F8EE611A81EEA22AD7
:1077A0000BE001EE901ADFED2B2A00BFF8EE611A14
:1077B000116882EEA12AC1F3080101EE901A116846
:1077C000F8EE611A40EE811A71EE800A62EE200A2C
:1077D000C1F3462101EE101AB8EE411A31EE001A3B
:1077E000C0EE811ABCEEE11A80ED001A1168C1F3F7
:1077F000064101EE101AB8EE411A31EE001AC0EE41
:10780000811ABCEEE11A80ED011A1168C1F306611C
:1078100001EE101AB8EE411A31EE000A80EE801A1D
:10782000BCEEC10A80ED020A30BD04E001EE901A00
:10783000DFED092ABAE70021016041608160F3E7CA
:107840002844025800000039404402580024744A79
:107850000090D0030024744C20BCBE4B2DE9FE4F99
:107860000546DFF8E48350F8081B0024F64FC943AF
:10787000019005F12800264608F12408009008012F
:107880001DD4A86E50B1B0F5801F0CD0B0F5001F0C
:107890000ED0B0F5401F1ED001240FE0386840F430
:1078A0000030386017E00198022101F0FFFF03E08B
:1078B0000098022102F08AF804000CD0264628889D
:1078C000C043C00523D4A86D05281ED2DFE800F010
:1078D0000C11161B1B00AA6ED8F8001021F44011E1
:1078E0001143C8F80010EAE7386840F40030386007
:1078F00009E00198002101F0D9FF03E00098002180
:1079000002F064F8044674B100E001242646288899
:10791000C043800528D4E86D80281ED00CDC90B1CF
:1079200040280ED114E0AA6DD8F8001021F007010C
:107930001143C8F80010EAE7C02813D0B0F5807FE3
:1079400010D001240FE0386840F40030386009E0BE
:107950000198002101F0AAFF03E00098002102F045
:1079600035F804469CB126462888DFF8DC92C043EF
:1079700009F12C0940052CD4D5F8A800B0F5800FEA
:1079800020D00DDCA0B1B0F5001F0FD115E0EA6DDD
:10799000D8F8001021F4E0711143C8F80010E3E7B3
:1079A000B0F5C00F13D0B0F5000F10D001240FE0D8
:1079B000386840F40030386009E00198002101F097
:1079C00075FF03E00098002102F000F804467CB146
:1079D00026462888C04300052DD4D5F8AC00B0F168
:1079E000007F21D00EDCA8B1B0F1807F10D116E06D
:1079F000D5F8A820D9F8001021F460011143C9F886
:107A00000010E6E7B0F1407F13D0B0F1806F10D0E6
:107A100001240FE0386840F40030386009E0019834
:107A2000002101F043FF03E00098002101F0CEFFA8
:107A3000044674B126462868C04380011FD4E86C10
:107A4000D8B110280FD0202812D0302815D001240A
:107A500014E0D5F8AC20D9F8001021F0E061114312
:107A6000C9F80010E7E7386840F40030386004E0F7
:107A70000198022101F01AFF044674B126462888B5
:107A8000C043C0042BD4286EB0F5005F20D00DDCBD
:107A9000A0B1B0F5805F0FD115E06B48EA6C2030E3
:107AA000016821F0300111430160E8E7B0F5405F63
:107AB00013D0B0F5804F10D001240FE0386840F4A7
:107AC0000030386009E00198002101F0EFFE03E08A
:107AD0000098002101F07AFF04468CB126462888E0
