:0200000490006A
:10200000700B002459230090A77900906B77009003
:10201000A57900905B2D0090A58A0090000000003B
:10202000000000000000000000000000F97F0090A8
:102030005532009000000000A9790090FB7F0090CD
:1020400077230090772300907723009077230090E8
:1020500077230090772300907723009077230090D8
:10206000772300907723009077230090112E009023
:1020700077230090772300907723009077230090B8
:102080007723009077230090772300907932009097
:10209000772300908532009077230090772300907B
:1020A0007723009077230090772300907723009088
:1020B0007723009077230090772300907723009078
:1020C0007723009077230090772300907723009068
:1020D00077230090998A00907723009077230090CF
:1020E0007723009077230090000000007723009072
:1020F0007723009077230090772300907723009038
:102100007723009077230090772300907723009027
:1021100077230090772300909D8100907723009093
:102120007723009077230090772300907723009007
:102130007723009077230090772300904533009019
:10214000000000000000000000000000000000008F
:1021500077230090772300907723009077230090D7
:1021600077230090772300907723009077230090C7
:1021700077230090772300907723009077230090B7
:1021800077230090772300907723009077230090A7
:102190007723009077230090772300907723009097
:1021A0007723009077230090772300907723009087
:1021B0007723009077230090772300907723009077
:1021C0007723009077230090772300907723009067
:1021D0007723009077230090772300907723009057
:1021E0007723009077230090772300907723009047
:1021F0007723009077230090772300907723009037
:102200007723009077230090772300907723009026
:102210007723009077230090772300907723009016
:102220007723009077230090772300900000000030
:102230007723009077230090000000007723009020
:1022400077230090772300907723009077230090E6
:1022500077230090772300907723009077230090D6
:1022600077230090772300907723009077230090C6
:1022700077230090772300907723009000000000E0
:1022800077230090772300907723009000000000D0
:10229000000000007723009000F002F800F04DF8F5
:1022A0000AA090E8000C82448344AAF10107DA45B1
:1022B00001D100F042F8AFF2090EBAE80F0013F0B6
:1022C000010F18BFFB1A43F001031847987B000069
:1022D000B87B0000103A24BF78C878C1FAD85207FA
:1022E00024BF30C830C144BF04680C607047000090
:1022F0000023002400250026103A28BF78C1FBD80F
:10230000520728BF30C148BF0B607047642900F0F6
:10231000FD80782900F03681002070471FB507F056
:10232000E3FC00F073FB04000020002107F0C6FC72
:10233000401C60601FBD10B510BD00F0D5FC1146FB
:10234000FFF7ECFF06F0DCFC00F0F3FC03B4FFF752
:10235000F2FF03BC06F0BFFB0A4880470A488047EB
:102360000A480047FEE7FEE7FEE7FEE7FEE7FEE776
:10237000FEE7FEE7FEE7FEE705480649064A074B8B
:10238000704700005D320090A58000909922009077
:1023900070050024700B00247007002470070024CF
:1023A0007047000010B500F031FB001D10BD00BFEC
:1023B0000D79000053EA020C00F069802DE9F04B22
:1023C0004FF00006002B1FBFB3FA83F503FA05F4A4
:1023D00024FA05F65E4012BF1643B2FA82F502FAFD
:1023E00005F4C5F120051EBF22FA05FC44EA0C04E1
:1023F000203556EA044C4FEA144418BF641C4FF0D1
:1024000000084FF00009904271EB030C39D300290A
:1024100019BFB1FA81F701FA07F6B0FA80F700FAAE
:1024200007F6C7F120071EBF20FA07FC46EA0C0694
:102430002037B6FBF4FCA7EB0507103F07F01F0B96
:10244000CBF120060CFA0BFB2CFA06F644BFB34680
:102450000026202FA4BF5E464FF0000B5BEA060C5F
:1024600008BF4FF0010B19EB0B09ABFB027C48EBEB
:102470000608C01B06FB02CC0BFB03CC71EB0C0166
:10248000C1E70B46024641464846BDE8F08B13B50E
:102490004FF000004FF00001AFF30080BDE81C409A
:1024A000704700000FB4044910B503AA029800F069
:1024B00033FB10BC5DF814FB0C00002470B504461F
:1024C00085690068C10601D5302600E02026C007D6
:1024D00007D070BDD4E9012130469047206A401CE6
:1024E00020626D1EF6D570BD70B504468569007812
:1024F000C00707D170BDD4E9012120209047206A90
:10250000401C20626D1EF6D570BD00002DE9F04123
:102510000646002410687529314616A510D0AFF381
:102520000080002802DA404213A507E031688A07DC
:1025300001D512A502E0490704D511A5012401E047
:10254000AFF3008000210A2206F1240709E0B0FB66
:10255000F2FCB0FBF2F302FB1C003030785418465A
:10256000491C0028F3D123462A463046BDE8F041F5
:1025700000F061BA000000002D0000002B000000F8
:102580002000000070B504460D4621461068AFF3E8
:1025900000802188090502D50F4A7A4402E00E4ADC
:1025A0007A440E32002104F1240305E000F00F0606
:1025B0000009965D5E54491C0028F7D1207800235D
:1025C000000704D5702D02D009B102231132204634
:1025D000BDE8704000F02FBA827800002DE9F05F6E
:1025E000894604464FF0000ADFF874B1FB44C0F896
:1025F00020A02046E1688847002874D0252806D00E
:10260000D4E901219047206A401C2062F1E70026AE
:102610005F462046E16888472028054607DB312DC4
:1026200005D2781910F8200C08B10643F1E7B0077D
:1026300001D526F00406C4F81CA00027C4F818A091
:102640002A2D09D0284606F03FFA38B304EB870854
:10265000303DC8F8185019E059F8041B204604EB27
:1026600087029161E1688847012F054618D1E0692A
:10267000002820DA26F020061DE0D8F8180000EB2C
:10268000800005EB40003038C8F818002046E168AB
:102690008847054606F018FA0028EED1012F0AD027
:1026A0002E2D08D12046E16888477F1C0546022F61
:1026B00046F02006C4DBA069002803DA404246F059
:1026C0000106A061F00701D026F010066C2D0BD09A
:1026D000682D09D04C2D39D06A2D35D0742D35D0C8
:1026E0007A2D33D016E038E0E1682F46204688473F
:1026F000B842054609D16C2F26D04FF48060E168BE
:10270000064320468847054604E06C2F1AD04FF454
:10271000807006430DB3A5F14100192802D8203579
:1027200046F400664A462946204626604E46FFF794
:10273000EDFD80B101280BD0F61D26F0070000F159
:10274000080956E74020E4E78020D8E70020D6E7D4
:1027500006F104094DE7284652E7206ABDE8F09FDC
:10276000587800002DE9F04791460F468046044610
:10277000002614F8015B2DB1FFF714FE0068405DE0
:10278000C007F6D12B2D02D02D2D18D0641E4A463D
:102790003946204600F0D2F927B13968A14201D16B
:1027A000C7F800804FF0020471050BD540420028A5
:1027B00003DD00F02FF90460A007BDE8F08746F4C0
:1027C0008066E4E70028F8DA00F024F904606FF08E
:1027D0000040F2E72DE9F041054690460E46002004
:1027E000044600E0641C44450BD2285D00F016F955
:1027F0000746305D00F012F9381A02D1295D002930
:10280000F0D1BDE8F08110B5431C02E010F8011BC7
:1028100071B18107FAD14FF0013202C88C1A8C4392
:1028200014EAC211F9D0C01A0A0603D0C01E10BDA6
:10283000C01A10BD0A0401D0801E10BD0902FCD0D0
:10284000401E10BD032A40F2308010F0030C00F04F
:10285000158011F8013BBCF1020F624498BF11F8DA
:1028600001CB00F8013B38BF11F8013BA2F1040293
:1028700098BF00F801CB38BF00F8013B11F003030B
:1028800000F06780083AC0F0088051F8043B083A2D
:1028900051F804CBA0E80810F5E7121D5CBF51F811
:1028A000043B40F8043BAFF30080D20724BF11F88B
:1028B000013B11F801CB48BF11F8012B24BF00F8F0
:1028C000013B00F801CB48BF00F8012B7047431AC9
:1028D00028BF9A427FF6B6AF032A1044114440F253
:1028E000268010F0030F1EBF11F8013D521E00F8A4
:1028F000013D10F0030F7FF4F6AF11F0030300F079
:102900007F81083AC0F00B8051F8043D083A51F835
:1029100004CD40F8043D40F804CDFFF7F3BF121D8D
:102920005CBF51F8043D40F8043DAFF30080D2078E
:1029300024BF11F8013D11F801CD48BF11F8012C59
:1029400024BF00F8013D00F801CD48BF00F8012C7C
:10295000704710B5203AC0F00B80B1E81850203A0B
:10296000A0E81850B1E81850A0E81850BFF4F5AF2F
:102970005FEA027C24BFB1E81850A0E8185044BFB9
:1029800018C918C0BDE810405FEA827C24BF51F826
:10299000043B40F8043B08BF7047D20728BF31F81A
:1029A000023B48BF11F8012B28BF20F8023B48BF6B
:1029B00000F8012B70474FF0000200B51346944613
:1029C0009646203922BFA0E80C50A0E80C50B1F187
:1029D0002001BFF4F7AF090728BFA0E80C5048BF9B
:1029E0000CC05DF804EB890028BF40F8042B08BF39
:1029F000704748BF20F8022B11F0804F18BF00F835
:102A0000012B704770477047704770470048704708
:102A100030050024004870471005002410B5044616
:102A2000FFF7C0FC0068005DC00602D504F120007D
:102A300010BD204610BD2DE9F0470D46994692463F
:102A4000044600F124080168880604D5E06921F0F5
:102A50001001216000E00120A84201DD471B00E0D9
:102A60000027A1697A1902EB0900081AA0612078F1
:102A7000C00602D42046FFF721FD002608E0D4E975
:102A800001211AF806009047206A401C761C20623B
:102A90004E45F4DB2078C0060AD52046FFF70EFD30
:102AA00006E0D4E9012130209047206A401C2062D2
:102AB000381EA7F10107F4DC07E0D4E9012118F87A
:102AC00005009047206A401C2062281EA5F10105E0
:102AD000F3DC2046FFF708FD2078000602D502202F
:102AE000BDE8F0870120FBE701694A1C0261087814
:102AF000704700B58FB0CDE901310021059105493E
:102B00007944CDE9031011466846FFF767FD0FB021
:102B100000BD0000E5FFFFFF074B70B50D467B448D
:102B2000FFF7E7FF0446284600F0A6F810B14FF083
:102B3000FF3070BD204670BD236100002DE9F05FBD
:102B4000824615468B4600270AF10104B9460078F3
:102B5000302801D09DB113E014F8010B012778282B
:102B600003D0582801D045B10AE00DB1102D07D18E
:102B7000002714F8010B102502E0082500E00A25C3
:102B80000026B0460EE005FB080005FB06F1012714
:102B90001FFA80F801EB1046B6F5803F00D3B94626
:102BA00014F8010B294600F059F80028EBDABBF1C4
:102BB000000F05D00FB1641E00E05446CBF8004072
:102BC000B9F1000F06D0FFF725FF02210160C81EF2
:102BD000BDE8F09F48EA0640FAE7431A28BF9A4248
:102BE0007FF6B7AE104410F0030F11441EBF11F86A
:102BF000013D521E00F8013D10F0030F7FF4F6AFC7
:102C0000103AC0F00A8010B531E91850103A20E9A6
:102C10001850BFF4F9AFBDE81040530724BF31E9A5
:102C2000081020E9081044BF51F8043D40F8043D65
:102C300012F0030F08BF7047D20728BF31F8023DDA
:102C400048BF11F8012C28BF20F8023D48BF00F80A
:102C5000012C704700487047100500243A2800D224
:102C6000303820F02002412A01D3A2F137008842F7
:102C700001D34FF0FF307047007B00F080007047B9
:102C80004FF0013C50F8042B51F8043B9A4215D107
:102C9000A2EB0C03934313EACC130BD150F8042B93
:102CA00051F8043B9A4209D1A2EB0C03934313EA77
:102CB000CC13E7D04FF00000704700BFD01A01BA24
:102CC000B1FA81F101F0180122FA01F0CB40C1F113
:102CD0002001DBB2C0B2C01A2CFA01F3D11A914321
:102CE00011EAC311E6D170477546FFF7B3FFAE4650
:102CF00005006946534620F00700854618B020B508
:102D0000FFF73AFBBDE820404FF000064FF0000708
:102D10004FF000084FF0000B21F00701AC46ACE883
:102D2000C009ACE8C009ACE8C009ACE8C0098D46F0
:102D3000704710B50446AFF300802046BDE8104050
:102D4000FFF704BB0246002004E01378002B03D0F9
:102D5000401C521C8842F8D37047FEE730B58BB058
:102D600000214FF08042082409910A91D511CDE944
:102D7000034105915310CDE90615089169468DE888
:102D80000D00034809AA01F0F1FD0BB030BD0000B1
:102D90003400002430B58BB000224FF080430992FC
:102DA00008240A920D680995DD1149680A9169465F
:102DB0000090CDE90132CDE90342CDE90625044872
:102DC0000592089209AA01F0D1FD0BB030BD0000B8
:102DD0003400002410B58CB00022082309920A9216
:102DE0000C6809941C0549680A916946CDE90002FE
:102DF000CDE90223CDE90624044804920592089205
:102E000009AA01F0B3FD0CB010BD0000340000248D
:102E1000014800F0B1BE000090020024294A016878
:102E200091423AD0274A1832914236D0254A303260
:102E3000914232D0234A483291422ED0214A603208
:102E400091422AD01F4A7832914226D01D4A9032B0
:102E5000914222D01B4AA83291421ED01A4A914276
:102E60001BD0194A1832914217D0174A303291427A
:102E700013D0154A483291420FD0134A6032914222
:102E80000BD0114A7832914207D00F4A90329142CA
:102E900003D00D4AA832914211D1CAB21823103A78
:102EA000B2FBF3F26FF30901032A02F00703074AAA
:102EB000D25CC26500D9091D81650846704721F0C2
:102EC000FF01F9E71000024010040240F29C00905C
:102ED00030B5224A012301689142CAB21BD01F4C6F
:102EE0001434A14217D01D4C2834A14213D01B4CDE
:102EF0003C34A1420FD0194C5034A1420BD0174C96
:102F00006434A14207D0154C7834A14203D0134C4D
:102F10008C34A1420CD11421114C083AB2FBF1F1CE
:102F20000F4A803201F01F0504EB8101AB4010E035
:102F30000C4D1824103A0D44B2FBF4F1A82D00D822
:102F40000831094A01F01F0402EB8101064AA3403F
:102F50008032603080E80E0030BD00000854025816
:102F600000580258F0FBFDBF0008024010B502797E
:102F7000531E072B2DD8174C0168A1421BD0154CAE
:102F80001434A14217D0134C2834A14213D0114C51
:102F90003C34A1420FD00F4C5034A1420BD00D4C09
:102FA0006434A14207D00B4C7834A14203D0094CC1
:102FB0008C34A14203D10849074C443102E007494F
:102FC000064C443104EB8202C0E91B2101219940E7
:102FD000416710BD08540258FC580258FC080240D2
:102FE00010B583694FF0C074826A0146002053B166
:102FF000B3F5005F15D072B1012A0CD0022A0AD0B5
:10300000032A09D104E01AB1012A06D0022A03D109
:10301000C96AC90100D5012010BDC96AA142FAD010
:1030200010BD002AF7D0012AF2D0022AF3D0032AD9
:10303000F3D010BD2DE9F04F804E804FDFF8FC91AA
:103040001836DFF8F8A148370468856D0AF1300AB0
:10305000DFF8ECB14C45DFF8ECC1DFF8ECE16DD006
:10306000B4426BD0544569D0BC4267D0DFF8D08100
:10307000A8F11808444561D05C455FD064455DD037
:1030800074455BD0DFF8C481444557D0DFF8BC817C
:1030900008F11808444551D0DFF8B08108F1300834
:1030A00044454BD0DFF8A48108F14808444545D099
:1030B000DFF8988108F1600844453FD0DFF88C8143
:1030C00008F17808444539D0DFF8808108F190088C
:1030D000444533D0DFF8748108F1A80844452DD069
:1030E000DFF86C81444529D0DFF8648108F11408C9
:1030F000444523D0DFF8588108F1280844451DD005
:10310000DFF84C8108F13C08444517D0DFF84081D6
:1031100008F15008444511D0DFF8348108F1640803
:1031200044450BD0DFF8288108F17808444505D0E4
:10313000DFF81C8108F18C08444509D1D0E9194811
:10314000C4F80480C46E1CB1D0E91C48C4F80480E3
:1031500004684C452ED0B4422CD054452AD0BC42F1
:1031600028D0374E183EB44224D05C4522D0644566
:1031700020D074451ED0354EB4421BD0334E183685
:10318000B44217D0314E3036B44213D02F4E4836A9
:10319000B4420FD02D4E6036B4420BD02B4E783651
:1031A000B44207D0294E9036B44203D0274EA836F9
:1031B000B44215D190F85C603F2406F01F06B4407D
:1031C000AC600468256825F4802525602EE09A60AF
:1031D0000068C160BDE8F08F99600068C260F9E7DF
:1031E0001B4EB4421BD01A4E1436B44217D0184EA0
:1031F0002836B44213D0164E3C36B4420FD0144E8B
:103200005036B4420BD0124E6436B44207D0104E42
:103210007836B44203D00E4E8C36B442DAD190F8F0
:103220005C60012406F01F06B4406C6004686360B3
:103230008368402B0368CFD1C9E70000100002402B
:1032400088000240A0000240B80002401004024082
:1032500008540258704772B6FEE700000548054959
:103260000839026842F00202026008688004FCD556
:10327000704700000C480258014801F0CDBC000026
:1032800034000024014801F0C7BC000034000024D1
:1032900070B5B0F5006F15468CB0064632D271B3EA
:1032A0006DB3082D2ED80024099409A80A94FFF7BD
:1032B000C9FA092D0294CDE9006423D2DFE805F0B4
:1032C0002205071517191B1D2000012000E0022010
:1032D0006946CDE903040C4809AA059406940794AD
:1032E000089401F043FB0CB070BD0320F0E704200C
:1032F000EEE70520ECE70620EAE70720E8E701E033
:103300000820E5E70120EEE73400002400B589B08D
:1033100040F23322002108230491CDE90021CDE9B8
:1033200002130246064805910691079108916946E5
:1033300001F01CFB002801D0FFF78DFF09B000BD94
:1033400034000024014801F067BC00003400002470
:10335000F0B503684FF6FC716D4C426BD3F88450A6
:103360008D4345EA8205C3F88450036853F8845FAF
:10337000068F25F47F0545EA06451D60836B654D84
:103380009F180268D2F888308B4343EA8703C2F85B
:103390008830026852F8883F868F23F4FE0343EAA0
:1033A00006431360066856F8A03FC26B8B4307EBD9
:1033B000420243EA82033360076857F8A03FB0F83F
:1033C000406023F4FE0343EA06433B60D0E9103635
:1033D00003FB06220368D3F8B0608E4346EA8206F8
:1033E000C3F8B0600368B0F84860D3F8B07027F451
:1033F000FE0747EA0646C3F8B060D0E912670368E3
:1034000006FB0722D3F8AC608E4346EA8206C3F877
:10341000AC60D0E91467036806FB0722D3F8F060BC
:103420008E4346EA8206C3F8F0600368B0F858603D
:10343000D3F8F07027F47C1747EA0646C3F8F0602B
:103440000368876D53F8C06F02EB47028E4346EA6C
:10345000820119600168B0F85C20D1F8C03023F413
:103460007C1343EA0242C1F8C020016890F8602052
:10347000D1F8C03023F07C5343EA0262C1F8C02087
:10348000416B04EB8101C166826B01EB8202026732
:10349000C36B02EBC3024267D0E91034634302EB13
:1034A00083028267D0E91234634302EB8302C2676E
:1034B000D0E91434634302EB8302C0F88020836DAB
:1034C00002EBC303C0F88430C46D826E544303EB37
:1034D0008403C0F88830046E544303EB8402C0F8C0
:1034E0009020AA420AD9D0F89C20032142F0200261
:1034F000C0F89C2080F898100120F0BD002200E068
:1035000004C1D0F890308B42FAD80020F0BD000002
:1035100000AC0040FCD30040F0B58E680C69D1E9E6
:10352000005744EA0604DFB145F080452C43866E1F
:10353000D1E906C54F695E4391F8203045EA0C0594
:10354000B1F80CC0D0F884E0002047EA0363104FC4
:103550001D430EEB860345EA0C45E3E8024511E006
:1035600044EA8544E3E71418155CA67894F803C090
:1035700094F801E0360445EA0C6446EA0E252C4333
:10358000001D10C3CC683C5D8442ECD8F0BD000047
:10359000FC9C00902DE9F84F044601F0FFFF0090DD
:1035A0003CB194F83500022806D0802161650020E6
:1035B000E4E00120BDE8F88FC74DC74EC649183575
:1035C00020683036DFF81483DFF814938842DFF880
:1035D00014A3DFF814B32ED0A8422CD0B0422AD0C6
:1035E000404528D0484526D0504524D0584522D0C3
:1035F000BD4A183290421ED0BC4A90421BD0BB4AF2
:103600001832904217D0B94A3032904213D0B74A9C
:10361000483290420FD0B54A603290420BD0B34A44
:103620007832904207D0B14A9032904203D0AF4AEC
:10363000A832904209D1026822F01E02026020687E
:10364000426922F08002426103E0026822F00E0229
:10365000026027688F4238464DD0A8424BD0B04216
:1036600049D0404547D0484545D0504543D05845BE
:1036700041D09D4A183290423DD09C4A90423AD067
:103680009A4A1832904236D0984A3032904232D01C
:10369000964A483290422ED0944A603290422AD0C4
:1036A000924A7832904226D0904A9032904222D06C
:1036B0008E4AA83290421ED08D4A90421BD08C4A2E
:1036C0001432904217D08A4A2832904213D0884A46
:1036D0003C3290420FD0864A503290420BD0844AFE
:1036E0006432904207D0824A7832904203D0804AB6
:1036F0008C32974204D1206E026822F480720260FC
:1037000075492068884228D0A84226D0B04224D0EB
:10371000404522D0484520D050451ED058451CD0A9
:1037200071491831884218D07049884215D06F49C4
:103730001831884211D06D49303188420DD06B4923
:103740004831884209D069496031884205D06749CB
:103750007831884201D065499031016821F001013A
:1037600001600EE001F01AFF0099401A052808D9FF
:10377000202262650321002084F8351084F834008B
:1037800017E73868C007EDD1534A012120689042FD
:103790002ED0A8422CD0B0422AD0404528D048454F
:1037A00026D0504524D0584522D04F4B183398424C
:1037B0001ED04E4B98421BD04C4B1833984217D01A
:1037C0004A4B3033984213D0484B483398420FD07D
:1037D000464B603398420BD0444B7833984207D025
:1037E000424B9033984203D0404BA833984208D1C3
:1037F00094F85C703F23A06D07F01F07BB40836007
:1038000007E094F85C30A06D03F01F0301FA03F3A6
:103810004360206890424DD0A8424BD0B04249D07E
:10382000404547D0484545D0504543D0584541D004
:103830002D4A183290423DD02C4A90423AD02B4A21
:103840001832904236D0294A3032904232D0274A3C
:10385000483290422ED0254A603290422AD0234AE4
:103860007832904226D0214A9032904222D01F4A8C
:10387000A83290421ED01E4A90421BD01C4A1432DD
:10388000904217D01A4A2832904213D0184A3C323C
:1038900090420FD0164A503290420BD0144A6432F4
:1038A000904207D0124A7832904203D0104A8C32AC
:1038B00090420BD1D4E919024260E06E30B1026847
:1038C00022F480720260D4E91C024260002084F875
:1038D000351084F834006DE61000024058000240B4
:1038E0007000024088000240A00002401004024024
:1038F000085402582DE9F05F28B190F835100229DC
:1039000004D0802141650120BDE8F09F904C904B90
:103910000168183C18338E4ADFF83C92A1428D4C66
:10392000DFF838E28E4FDFF83CB2DFF83CA28F4D73
:103930008F4E31D091422FD099422DD0A1422BD021
:10394000494529D0714527D0B94225D0DFF810C2AA
:103950000CF1180C61451FD0DFF808C2ACF1600C07
:10396000614519D0DFF8FCC1ACF1480C614513D0BA
:10397000DFF8F0C1ACF1300C61450DD0DFF8E4C1E7
:10398000ACF1180C614507D0594505D0514503D01D
:10399000A94201D0B1422CD1DFF8B4C14FF00408E4
:1039A00080F83580ACF1180C61451DD091421BD0D8
:1039B000994219D0A14217D0494515D0714513D06D
:1039C000B94211D06648183081420DD06548603840
:1039D000814209D063484838814205D06148303877
:1039E000814201D05F481838086820F00100086063
:1039F000ABE0D1F800C02CF00E08DFF854C1C1F8DC
:103A00000080ACF1180C0168614527D0914225D0A7
:103A1000994223D0A14221D049451FD071451DD0E4
:103A2000B9421BD0DFF838C10CF1180C614515D034
:103A3000DFF830C1ACF1600C61450FD0DFF824C174
:103A4000ACF1480C614509D0DFF818C1ACF1300C7D
:103A5000614503D0DFF80CC1ACF1180CD1F800C0FF
:103A60002CF0010CC1F800C0DFF8E4804FF0010C2D
:103A70000168A8F11808414546D0914244D09942C6
:103A800042D0A14240D049453ED071453CD0B942D8
:103A90003AD0334A1832914236D0324A603A914293
:103AA00032D0304A483A91422ED02E4A303A914292
:103AB0002AD02C4A183A914226D0594524D0514553
:103AC00022D0A94220D0B1421ED02A4A91421BD016
:103AD000284A1432914217D0264A2832914213D0F4
:103AE000244A3C3291420FD0224A503291420BD0AC
:103AF000204A6432914207D01E4A7832914203D064
:103B00001C4A8C32914218D1016E0A6822F48072EC
:103B10000A6090F85C20816D02F01F020CFA02F23C
:103B20004A60D0E919124A60C16E31B10A6822F4C4
:103B300080720A60D0E91C124A600022016D80F890
:103B400035C080F8342001B188470020DCE6000051
:103B500028000240580002407000024088000240E5
:103B6000A00002407004024088040240A004024009
:103B7000B8040240085402582DE9FC5F0446F74E91
:103B80000020DFF8D88300904FF41652F44808F173
:103B90001808A56DDFF8C493DFF8C0A3016809F128
:103BA000300920680AF1480AB1FBF2F1B0420191F4
:103BB0002F68D5F800C0DFF8ACB335D04146884255
:103BC00032D0484530D050452ED058452CD0E5490C
:103BD0001831884228D0E3493031884224D0E14965
:103BE0004831884220D0E04988421DD0DE49183152
:103BF000884219D0DC493031884215D0DA49483141
:103C0000884211D0DFF860E30EF1600E70450BD0F2
:103C1000D54A7832904207D0D34B9033984203D0A4
:103C2000D149A83188427DD194F85C20082102F066
:103C30001F0201FA02F23A424AD0B04232D0404565
:103C400030D048452ED050452CD058452AD0C54AB2
:103C50001832904226D0C34A3032904222D0C14A14
:103C6000483290421ED0C04A90421BD0BE4A183201
:103C7000904217D0BC4A3032904213D0BA4A4832F0
:103C800090420FD0B84A603290420BD0B64A783298
:103C9000904207D0B44A9032904203D0B24AA83240
:103CA000904203D1026802F0040202E0026802F0CE
:103CB00008026AB1026822F00402026094F85C0013
:103CC00000F01F008140A960606D40F00100606558
:103CD00094F85C00012100F01F008140394240D07F
:103CE0002068B04234D0404532D0484530D05045AD
:103CF0002ED058452CD09B4A1832904228D0994A51
:103D00003032904224D0974A4832904220D0964A8E
:103D100090421DD0944A1832904219D0924A3032C3
:103D2000904200E0AFE113D08F4A483290420FD06A
:103D30008D4A603290420BD08B4A7832904207D045
:103D4000894A9032904203D0874AA83290427DD16E
:103D5000406910F0800F04D0A960606D40F002004F
:103D6000606594F85C00042100F01F008140394236
:103D70003ED02068B04232D0404530D048452ED0A9
:103D800050452CD058452AD0764A1832904226D039
:103D9000744A3032904222D0724A483290421ED049
:103DA000714A90421BD0704A1832904217D06E4A26
:103DB0003032904213D06C4A483290420FD06A4A57
:103DC000603290420BD0684A7832904207D0664AFF
:103DD0009032904203D0644AA83290424ED100689B
:103DE00010F0020F04D0A960606D40F0040060651F
:103DF00094F85C00102100F01F008140394258D037
:103E00002068B04234D0404532D0484530D050458B
:103E10002ED058452CD0534A1832904228D0514ABF
:103E20003032904224D04F4A4832904220D04E4AFD
:103E300090421DD04C4A1832904219D04A4A303232
:103E4000904215D0484A4832904200E014E00FD02A
:103E5000454A603290420BD0434A7832904207D0B4
:103E6000414A9032904203D03F4AA832904207D153
:103E7000006800F0080006E0006872E70068B7E735
:103E8000006800F00400A0B1A9602068016849033F
:103E900004D50068000308D5A16C07E00168C905D6
:103EA00003D4016821F008010160216C09B12046AA
:103EB000884794F85C00202100F01F0081403942BF
:103EC00079D02068B04232D0404530D048452ED01D
:103ED00050452CD058452AD0224A1832904226D03C
:103EE000204A3032904222D01E4A483290421ED0A0
:103EF0001D4A90421BD01C4A1832904217D01A4AD1
:103F00003032904213D0184A483290420FD0164AAD
:103F1000603290420BD0144A7832904207D0124A55
:103F20009032904203D0104AA832904203D10068E8
:103F300000F0100002E0006800F00200B0B3A960D9
:103F400094F835000428206801680FD049037ED515
:103F5000006800032BD4616C2AE0000010000240CE
:103F60001C000024700002401004024021F01601E1
:103F700001602068416921F080014161206C08B92D
:103F8000A06C20B12068016821F00801016094F85C
:103F90005C303F21012003F01F0300229940A960FB
:103FA00084F8350084F83420216D65E003E0E16B8E
:103FB00009B120468847606D00287DD0606DC0073C
:103FC00059D02068042184F83510B0422BD04045E8
:103FD00029D0484527D0504525D0584523D09D4964
:103FE000884220D09B49183188421CD099493031F1
:103FF000884218D09849884215D09749183188428C
:1040000011D09549303188420DD0934948318842CA
:1040100009D091496031884205D08F497831884272
:1040200001D08D499031016821F0010101602068C3
:104030000099019A491C0091914202D80168C90770
:10404000F6D10068C00710D003200FE0FFE7016839
:10405000C905ACD403680121002223F010030360DA
:1040600084F8351084F83420A1E7012084F8350065
:10407000002084F83400E16C00291DD002B02046F5
:10408000BDE8F05F0847754988421DD07349143177
:10409000884219D071492831884215D06F493C3186
:1040A000884211D06D49503188420DD06B4964313E
:1040B000884209D0694900E084E07831884203D021
:1040C00066498C3188427DD194F85C800427016870
:1040D00008F01F0807FA08F717EA0C0F009746D0F8
:1040E0004F0744D500980F04686003D5C8033CD43B
:1040F000A16CC1E7880638D42068B0422DD055495C
:104100006039884229D0484527D0504525D05845A8
:1041100023D05049884220D04E49183188421CD0C3
:104120004C493031884218D04B49884215D04A4911
:104130001831884211D04849303188420DD0464963
:104140004831884209D0704507D0904205D0984246
:1041500003D04149A831884203D1016821F0080108
:1041600002E0016821F004010160216C84E702276C
:1041700007FA08F717EA0C0F00974ED08F074CD5B7
:1041800000980F04686003D5C80344D4616C73E7DA
:10419000880640D42068B0422FD02E49603988422A
:1041A0002BD0484529D0504527D0584525D02949FE
:1041B000884222D02749183188421ED02549303103
:1041C000884200E044E018D02349884215D02249B3
:1041D0001831884211D02049303188420DD01E4913
:1041E0004831884209D0704507D0904205D09842A6
:1041F00003D01949A831884203D1016821F0140184
:1042000002E0016821F00A010160012184F8351003
:10421000002084F83400E16B2EE7082202FA08F24D
:1042200012EA0C0F14D0090712D5016821F00E0113
:10423000016094F85C100120002201F01F0100FAD7
:1042400001F16960606584F8350084F8342012E774
:10425000BDE8FC9F88000240100402400854025848
:104260002DE9F05F044601F099F9002C07467DD056
:10427000E34E022120684FF00308DFF888934FF0E7
:104280000005DFF884A3B042DFF880B334D0DC4A05
:104290001832904230D048452ED050452CD0584549
:1042A0002AD0DA4A1832904226D0D84A3032904288
:1042B00022D0D64A483290421ED0D54A90421BD0D6
:1042C000D34A1832904217D0D14A3032904213D09C
:1042D000CF4A483290420FD0CD4A603290420BD044
:1042E000CB4A7832904207D0C94A9032904203D0EC
:1042F000C74AA83290427DD184F83510B04284F884
:1043000034502ED0BE49183188422AD0484528D092
:10431000504526D0584524D0BC491831884220D079
:10432000BA49303188421CD0B8494831884218D047
:10433000B749884215D0B6491831884211D0B449DE
:10434000303188420DD0B2494831884209D0B04955
:104350006031884205D0AE497831884201D0AC49FD
:104360009031016821F00101016008E027E100BF00
:1043700001F014F9C01B052801D920211CE1206897
:104380000068C007F4D104F108002168D4E9053CB5
:104390008E4685C809681043D4E907281F43636A1D
:1043A00038439C4F40EA0C001043394040EA080073
:1043B000042B40EA010003D1D4E90B121143084356
:1043C000954909686FF30F01B1F1005F0FD3616880
:1043D000A1F12902052A08D9163A032A05D9083A73
:1043E000012A02D94F39032901D840F48010CEF8B0
:1043F000000000E023E02068676A4069042F20F095
:10440000070047EA00070DD1D4E90A01074349B183
:104410002046FEF7E5FD28B140206065012184F8C3
:104420003510CCE0206847612046FEF7F7FC94F891
:104430005C203F2102F01F029140816054E0774AE6
:1044400090421BD0754B1433984217D0734B2833CE
:10445000984213D0714B3C3398420FD06F4B50337E
:1044600098420BD06D4B6433984207D06B4B783336
:10447000984203D0694B8C3398427DD184F8351033
:1044800084F83450664B0168A26801EA030E402AA2
:1044900073D0802A72D00022D4E90378D4E90531A0
:1044A00042EAD70242EAD8085C4AD4E9077C48EAE3
:1044B000D30848EAD10141EAD701524241EA1C112E
:1044C000142341EA0E01016020681044B0FBF3F0B0
:1044D0008000E0652046FEF7A1FC94F85C200121F5
:1044E00002F01F02914041602068B04257D0444919
:1044F0001831884253D0484551D050454FD0584587
:104500004DD042491831884249D040493031884223
:1045100045D03E494831884241D03D4988423ED04D
:104520003B49183188423AD039493031884236D037
:1045300037494831884232D03549603188422ED0DF
:104540003349783188422AD031499031884226D087
:104550002F49A831884222D0304988421FD02F49A4
:10456000143188421BD02D492831884217D02B495D
:104570003C31884213D002E01DE017E018E02749E3
:10458000503188420BD025496431884207D02349F5
:104590007831884203D021498C31884229D1204684
:1045A000FEF796FCA06880280CD00CE0102273E780
:1045B0004FF4804270E74021616584F83580012026
:1045C000BDE8F09F6560216E20790860D4E919018B
:1045D00041606068401E072808D82046FEF7C6FCE8
:1045E000E06E0560D4E91C01416002E0E5662567E4
:1045F00065670120656584F835000020E0E700006C
:10460000100002404000024058000240700002408A
:10461000100402403F8010FE0010005C0854025855
:104620000F00FEFF2DE9F84F04008C464FF000000C
:10463000009014D094F83400012812D094F835502A
:104640000120002184F83400012D0CD0C0026065E7
:104650000120009084F834100098BDE8F88F012004
:10466000FBE70220F9E78C4D0226206884F83560CC
:10467000A8428A4D61658A4E8A4FDFF82C82DFF8A6
:104680002C92DFF82CA2DFF82CB226D0A84224D03E
:10469000B04222D0B84220D040451ED048451CD060
:1046A00050451AD0584518D08349884215D08249C0
:1046B0001831884211D08049303188420DD07E496E
:1046C0004831884209D07C496031884205D07A4916
:1046D0007831884201D078499031016821F0010198
:1046E000016061462046FEF7A5FC6B4920688842C0
:1046F0002CD0A8422AD0B04228D0B84226D040457B
:1047000024D0484522D0504520D058451ED06A4A72
:1047100090421BD0684A1832904217D0664A303215
:10472000904213D0644A483290420FD0624A6032BD
:1047300090420BD0604A7832904207D05E4A903265
:10474000904203D05C4AA83290420CD1026822F019
:104750001E0242F016020260206C88B120680268D6
:1047600042F008020BE0026822F00E0242F00A0258
:104770000260206C20B12068026842F004020260EE
:10478000206888424BD0A84249D0B04247D0B842B6
:1047900045D0404543D0484541D050453FD058458D
:1047A0003DD0454A90423AD0434A1832904236D0E2
:1047B000414A3032904232D03F4A483290422ED065
:1047C0003D4A603290422AD03B4A7832904226D00D
:1047D000394A9032904222D0374AA83290421ED0B5
:1047E000364A90421BD0354A1432904217D0334A91
:1047F0002832904213D0314A3C3290420FD02F4A97
:10480000503290420BD02D4A6432904207D02B4A4E
:104810007832904203D0294A8C3290420DD1206EDA
:104820000268D20303D5026842F480720260E06E2F
:1048300018B1026842F4807202602068884226D073
:10484000A84224D0B04222D0B84220D040451ED049
:1048500048451CD050451AD0584518D016498842B2
:1048600015D015491831884211D01349303188428A
:104870000DD011494831884209D00F496031884232
:1048800005D00D497831884201D00B49903101683B
:1048900041F001010160DFE6100002402800024003
:1048A0004000024058000240700002408800024070
:1048B000A0000240B8000240100402400854025810
:1048C00070B5044600F06AFE0546601C02D004483C
:1048D0000078044400F062FE401BA042FAD370BD91
:1048E0001000002410B590F89830012B09D0022B4D
:1048F00007D0D0F89C1041F00201C0F89C100120B4
:1049000010BD03689C6D0C4203D1DC6D44F00104C2
:1049100004E09C6D31EA04041FD00324DC658B05A0
:1049200005D50368D3F8E0401443C3F8E0404B05D5
:1049300005D50368D3F8E4401443C3F8E4400068A5
:10494000084A01EA0203446D074A1C4344651068A3
:1049500040EA91701060002010BDDC6D44F002044C
:10496000DCE70000FFFFCF3F14A8004070B504460D
:1049700090F89800022804D0D4F89C0040F0080079
:104980000DE02068D0F8C03013F07C5F0BD0D0F879
:10499000C4309B020CD5D4F89C0040F40070C4F8DD
:1049A0009C00012070BDD4F89C0040F02000F6E788
:1049B000D0F8C400C0F3044520462B46FEF7ACFDFA
:1049C00021680120A840C1F8D000C4F8940000205C
:1049D00070BD704770B590F89820012A09D0022A5E
:1049E00007D0D0F89C1041F00201C0F89C100120C3
:1049F00070BD0B68CA6883B10B69072A43EA42732A
:104A000025D00C7A4A6942EA84724968006F00EB4B
:104A1000C100C0E90032002070BD072A0DD00C7A19
:104A2000D6060D8A4B6943EA847246EA0543C06E96
:104A300049681A4340F82120EDE70B8A4FF0605592
:104A4000D1E9062442EA034245EA0423EFE78A69F2
:104A5000DBE730B590F89850039C012D07D0D0F8D3
:104A60009C1041F00401C0F89C10012030BD0D01E4
:104A7000016845EA820040EA43002043C1F8800013
:104A8000002030BD70477047F0B590F89850002472
:104A9000022D04D0D0F89C1041F0080129E04029F3
:104AA00005D0412929D0056D8D4219D942E005680C
:104AB000D5F8A06016F4FE0F12D0D5F8A4607606E3
:104AC00013D0D5F8A460F60105D5D5F8A06016F08E
:104AD000004F00D50124D5F8A470466F456C24E042
:104AE000D0F89C1041F0200103E0D0F89C1041F474
:104AF0008071C0F89C100120F0BD0568D5F8B06049
:104B000016F4FE0FECD0D5F8B4607606EDD0D5F8EB
:104B1000B460F60105D5D5F8B06016F0004F00D5A9
:104B20000124D5F8B470866FC56CC7F305273C44E3
:104B3000654302E0456DC66F4D4306EB85052E6863
:104B400016F0804656602E6836D026F06046166015
:104B5000D5F800C000262E4F0CF0005CC2F808C04B
:104B6000D5F800C00CF0004CC2F810C0B5F804C075
:104B70001FFA8CFCC2F81CC0D5F804C0CCF3034C5F
:104B8000C2F80CC0D5F804C00CF4801CC2F814C0E4
:104B9000D5F804C00CF4001CC2F818C0D5F804C045
:104BA000CCF3066CC2F820C0D5F804C008354FEA33
:104BB000DC7CC2F824C008E0C6F38A46C7E700BF21
:104BC00015F806C003F806C0761CD2F80CC017F81A
:104BD0000CC0B445F4D840290AD041290CD0202972
:104BE0004FF001020CD200688A40C0F898200DE016
:104BF0000068C0F8A84009E00068C0F8B84005E0C7
:104C0000006801F01F018A40C0F89C200020F0BD20
:104C1000FC9C0090704700002DE9FF5FDFF80CB3AB
:104C200004460BF10401DBF8000025680F68AA4672
:104C30008007D5F85090696DD5F850806E6D2A6D5B
:104C4000D5F854C02B6D00EA8770009009F47049C4
:104C50006F6D286D01EA09010191DAF85410DAF854
:104C60005490DAF8505008F00F0806EA0806029649
:104C700002F0F00203F071536FEA09061F4000F0E2
:104C800060700CEA020CCDF80CC0F20501EA0009D4
:104C90000CD4E843C00509D400214FF48073CAF84E
:104CA0005030CBF800102046FFF7B4FF700512D447
:104CB000E84340050FD4206800234FF48068D0F803
:104CC000DC20D0F8E410C0F85080CBF80030114060
:104CD000204600F035FBDFF858A2009850B122685A
:104CE000830F00EA0A001065CBF8003020460099D7
:104CF000FFF76FFE019850B12268830F00EA0A00A7
:104D00001065CBF800302046019900F01BFB02989B
:104D100050B12268830F00EA0A001065CBF800301A
:104D20002046029900F088FA039850B12268830F58
:104D300000EA0A001065CBF800302046039900F025
:104D4000DFFA30050CD4E843000509D423680020BD
:104D50004FF400621A65CBF80000204600F0F3FA29
:104D6000B00512D4E84380050FD4206800234FF427
:104D70000078D0F8D820D0F8E010C0F85080CBF8F8
:104D800000301140204600F0DCFA30030CD4E84338
:104D9000000309D4236800204FF400221A65CBF8E1
:104DA0000000204600F046FAF0030CD4E843C003AC
:104DB00009D4236800204FF480321A65CBF8000034
:104DC000204600F0BCFA70030CD4E843400309D439
:104DD000226800204FF480231365CBF800002046A2
:104DE00000F0ACFAB0030FD4E84380030CD423687E
:104DF00000204FF400321A65CBF80000D4F89C0074
:104E000040F08000C4F89C00B9F1000F0BD022687C
:104E10004FEA997309EA0A001065CBF80030494659
:104E20002046FFF730FE5FB12268BB0F07EA0A0099
:104E30001065CBF80030D4F89C003843C4F89C00CF
:104E40003C492068884268D1606881468068800754
:104E500063D0D9F82060D9F82410D9F82080D9F887
:104E60002400D9F820C0D9F82470D9F82030D9F816
:104E70002450D9F8202003F4FC4306F00F0AD9F897
:104E800024601D40D9F824B008F030080CF4C07C30
:104E900002F4F02211EA0A0100EA080807EA0C0706
:104EA00006EA0206D9F820A004D0C9F8201020464E
:104EB00000F041FAB8F1000005D06168086241468F
:104EC000204600F03AFA6FEA0B0040060ED46FEA73
:104ED0000A0040060AD460684021C36BC26B0162BD
:104EE0002046190C02F03F0200F026FA2FB160684C
:104EF00007623946204600F01DFA35B16068056248
:104F0000D4F89C002843C4F89C0036B1606806625F
:104F1000D4F89C003043C4F89C00D4F89C000028CE
:104F200002D02046FFF7AEFDBDE8FF9F10A800406D
:104F3000FFFFCF3F00A000402DE9F04194B08D4924
:104F40004C2204466846FDF704FD64B18A4D206892
:104F5000A84202D100F58070606094F898004FF08C
:104F6000000820B108E0012014B0BDE8F08120461F
:104F700084F8998000F002F92068816921F010011D
:104F8000816100F00BFB0327064604E000F006FBFE
:104F9000801B0A2811D8206880690007F6D4206891
:104FA000816941F00101816100F0F8FA06460DE0E7
:104FB00000F0F4FA801B0A2808D9D4F89C0040F0CD
:104FC0000100C4F89C0084F89870CCE720688069E0
:104FD000C007EDD02068816941F002018161207C29
:104FE00001282068816937D041F040018161607CEF
:104FF00001282068816932D021F480418161A07C40
:105000000128206881692DD041F480518161206898
:10501000A268816921F4407111438161206881692E
:1050200021F0A40181612068016921F01001016172
:10503000E068012819D010B302281BD020688169CC
:1050400041F0800181612068016941F01001016136
:10505000E06803280ED012E021F04001C6E741F4D9
:105060008041CBE721F48051D0E72068816941F08D
:10507000040103E02068816941F020018161207E04
:105080006FF0FF02D4E90773A68A1102400602EB13
:105090000727A0F10070384327685B1E184301EB17
:1050A00006463043F861A068B0F5407F11D104F1A5
:1050B0002800A68C6FF00F0C89C801EB0641401E3A
:1050C00002EB0322104322680CEB0713184308433A
:1050D000D060206E30B12068626ED0F8C0101143ED
:1050E000C0F8C010D4E917126846D14209D021682F
:1050F000A36E51F8C82F50F8233022F007021A434C
:105100000A60216C49B12168626C51F8BC3F50F8CB
:10511000226023F0070232430A60A16C51B121687A
:10512000E36C51F8BC2F50F8233022F0700242EAB1
:1051300003120A60216D51B12168626D51F8BC3FC4
:1051400050F8220023F4E06242EA00200860206860
:10515000A84204D16068816821F003018160C4F82D
:1051600094800121C4F89C8084F898102046FEF7B2
:10517000EFF8F9E60C9D009000A0004010B5B6B025
:105180000446142130A8FDF716FCC0216846FDF73F
:1051900012FC25492068884244D100201C904FF41D
:1051A0000041CDE90010684600F096FC08B1FEF71A
:1051B00052F81E48016841F480710160006800F4F3
:1051C0008070359019480C38016841F00101016088
:1051D00000680DF1C00C022100F0010035900122A1
:1051E000032309244FF4C0508CE81F00104830A955
:1051F00000F0AAF800220521132000F0BBFA1320CA
:1052000000F0AAFA00220521152000F0B3FA1520BB
:1052100000F0A2FA002205213F2000F0ABFA3F2067
:1052200000F09AFA36B010BD00A00040EC440258DD
:10523000000002587047000070B5C90728D0154B10
:10524000402103F1B002FFF71FFC002820D1114CD0
:1052500011A0B034257BFDF725F9216815A0FDF7D5
:1052600021F917A02946FDF71DF91AA0FDF71AF933
:10527000084E002405E0315D19A0FDF713F9641C08
:10528000E4B2AC42F7D3BDE8704017A0FDF70AB90D
:1052900070BD0000240000240D0A2D2D2D20E58F67
:1052A00091E78EB0E696B0E68AA5E69687202D2D8A
:1052B0002D0000000D0A49443A203078255800009E
:1052C0000D0AE995BFE5BAA63A20256420E5AD9719
:1052D000E88A82000D0AE58685E5AEB93A2000002D
:1052E00025303258200000000D0A2D2D2D2D2D2D9A
:1052F0002D2D2D2D2D2D2D2D2D2D0D0A00000000D5
:10530000704790F89810012907D0D0F89C1041F010
:105310000401C0F89C1001207047022180F8981009
:10532000002201688B6923F001038B61C0F89C2087
:105330001046704770477047704770477047704716
:1053400070477047704770472DE9F84F03247D4D33
:1053500000234FF001094FF0B04B4FF00F0AE9E086
:1053600009FA03F73A4076D00E7906F00306012ECB
:1053700001D0022E18D1D0F808C04FEA430ECE68F3
:1053800004FA0EF82CEA080C06FA0EF646EA0C06A9
:105390008660D0F804C00E792CEA070CC6F300161C
:1053A0009E4046EA0C0646600E79F643B6070BD0DF
:1053B000C6684FEA43088F6804FA08FC26EA0C0620
:1053C00007FA08F73743C7600E7906F00306022E86
:1053D00012D1DE080F694FEA437C00EB8606B64621
:1053E000366A4FEADC6C0AFA0CF807FA0CF726EA80
:1053F00008063743CEF820700F7906684FEA430855
:1054000007F0030704FA08FC07FA08F726EA0C0677
:10541000374307604E6816F4403F1CD04A4E376849
:1054200047F00207376036689F0706F002060096CD
:1054300023F0030606F1B046B6463F0FD6F80864DF
:10544000DFF808810AFA07FC404526EA0C0603D17A
:105450004FF0000C41E06CE0DFF8F4C0604502D191
:105460004FF0010C39E0DFF8ECC0604502D14FF09D
:10547000020C32E0DFF8E0C0604502D14FF0030CCF
:105480002BE0DFF8D8C0604502D14FF0040C24E0D7
:10549000DFF8CCC0604502D14FF0050C1DE0DFF80D
:1054A000C4C0604502D14FF0060C16E0DFF8B8C06A
:1054B000604502D14FF0070C0FE0DFF8B0C0604547
:1054C00002D14FF0080C08E0DFF8A4C0604502D11B
:1054D0004FF0090C01E04FF00A0C0CFA07FC4CEA03
:1054E000060CCEF808C44F68DBF80060FF0226EA1D
:1054F000020600D516435F46CBF80060D1F804C021
:10550000DBF804605FEA8C2C26EA020600D516431D
:105510007E606E684F6826EA0206BF0300D5164318
:105520006E602E684F6826EA0206FF0300D5164318
:105530002E605B1C0A6832FA03F67FF411AFBDE8F7
:10554000F88F000080000058F44402580000025810
:105550000004025800080258000C025800100258BB
:105560000014025800180258001C0258002002586B
:1055700000240258426921EA02030A4043EA024138
:10558000816170470AB1816170470904FBE700003F
:1055900001480068000C70470010005C01488068FA
:1055A000704700001000002402488168027811440E
:1055B0008160704710000024032010B500F0FAF855
:1055C00001F002F90F4A104914681368C4F303226A
:1055D00003F00F038A5CC95C02F01F0201F01F0197
:1055E000D0400A4A20FA01F11160094908600F20F1
:1055F00000F010F808B1012010BD00F09FF8002065
:1056000010BD000018440258809D00902000002426
:105610001C00002410B5102804468AB02CD20022A9
:105620000146362000F0A6F8362000F095F817481D
:1056300004601748016841F010010160006809A981
:1056400000F010000890684601F04AF80598B0B1E3
:1056500001F096F840000F4900220F4CB0FBF1F129
:105660000E4840F2E7330460C0E90332491EC0E946
:10567000011201F009FC28B101200AB010BD01F0AF
:105680007FF8E8E7054801F031FCF6E71400002454
:10569000E844025840420F00001000400803002474
:1056A000154BF0B5083B427813491A600B680A1F86
:1056B00023F001030B6043681360057BC67A827A8E
:1056C000437B2D07847B45EA0665C77B90F809C0BC
:1056D000067A90F800E045EAC24040EA834040EA9A
:1056E000444040EA074040EA0C2040EA460040EAD5
:1056F0000E000860F0BD0000A0ED00E0BFF35F8F7A
:10570000044800210368034A23F4803303607032A5
:105710001160704724ED00E0074A40F0010006499F
:1057200070321060086840F480300860BFF34F8F1B
:10573000BFF36F8F7047000024ED00E0054808B507
:10574000016841F002010160006800F00200009071
:1057500008BD0000F4440258002809DB410900F0AC
:105760001F028900012001F1E0219040C1F80001F1
:10577000704700000E4BF0B41B680D46C3F30223C4
:10578000C3F10706042E00D90426191D072901D2EA
:10579000002300E0DB1E012404FA06F19C40491EB0
:1057A0002940641E994014402143F0BC03F07BB9AA
:1057B0000CED00E0064900F0070210B54FF6FF04BB
:1057C0000868044B204040EA02201843086010BDDE
:1057D0000CED00E00000FA05134970B50A68D243E9
:1057E000520705D5096801F00701814213D118E07D
:1057F0000A6822F0070202430A60FFF7CFFE0A4D53
:105800004FF47A760446083D07E000BFFFF7C6FE76
:10581000001BB04201D9012070BD2868C04380043C
:10582000F4D4002070BD00000C48025810B500F000
:1058300085FF05490968054AC1F30211515C01F071
:105840001F01C84010BD000020440258809D0090F8
:10585000494930B5484C0B1D0A68143409681D6865
:10586000246802F00303C5F30012C1F30531C4F349
:10587000CC04002914FB02F200EE102AF8EE400AD4
:1058800075D03F4A9FED3D1AB7EE000A6BB1DFEDD0
:105890003D1A012B01D0022B64D002EE101A1168C0
:1058A000F8EE422A81EEA22A21E0334C283C2368FC
:1058B0009B0612D5344B246801EE901A1168C4F38C
:1058C000C104F8EE612AE34001EE903AC1F3080109
:1058D000F8EE611A81EEA22A0BE001EE901ADFEDDC
:1058E0002B2A00BFF8EE611A116882EEA12AC1F3DB
:1058F000080101EE901A1168F8EE611A40EE811A63
:1059000071EE800A62EE200AC1F3462101EE101A00
:10591000B8EE411A31EE001AC0EE811ABCEEE11A5F
:1059200080ED001A1168C1F3064101EE101AB8EEBD
:10593000411A31EE001AC0EE811ABCEEE11A80ED78
:10594000011A1168C1F3066101EE101AB8EE411A8E
:1059500031EE000A80EE801ABCEEC10A80ED020A28
:1059600030BD04E001EE901ADFED092ABAE700210C
:10597000016041608160F3E728440258000000396B
:10598000384402580024744A0090D0030024744C18
:1059900020BCBE4B494930B5484C0B1D0A681C342D
:1059A00009681D68246802F00303C5F30022C1F3EF
:1059B0000551C4F3CC04002914FB02F200EE102AB6
:1059C000F8EE400A75D03F4A9FED3D1AB7EE000A47
:1059D0006BB1DFED3D1A012B01D0022B64D002EE3A
:1059E000101A1168F8EE422A81EEA22A21E0334C07
:1059F000283C23689B0612D5344B246801EE901A8C
:105A00001168C4F3C104F8EE612AE34001EE903A54
:105A1000C1F30801F8EE611A81EEA22A0BE001EE53
:105A2000901ADFED2B2A00BFF8EE611A116882EEA2
:105A3000A12AC1F3080101EE901A1168F8EE611A6B
:105A400040EE811A71EE800A62EE200AC1F346210F
:105A500001EE101AB8EE411A31EE001AC0EE811AAA
:105A6000BCEEE11A80ED001A1168C1F3064101EEA7
:105A7000101AB8EE411A31EE001AC0EE811ABCEECF
:105A8000E11A80ED011A1168C1F3066101EE101AE6
:105A9000B8EE411A31EE000A80EE801ABCEEC10A5F
:105AA00080ED020A30BD04E001EE901ADFED092A14
:105AB000BAE70021016041608160F3E728440258A1
:105AC00000000039404402580024744A0090D0037A
:105AD0000024744C20BCBE4B2DE9FE4F0546DFF878
:105AE000E48350F8081B0024F64FC943019005F1E8
:105AF0002800264608F12408009008011DD4A86E4D
:105B000050B1B0F5801F0CD0B0F5001F0ED0B0F52D
:105B1000401F1ED001240FE0386840F40030386088
:105B200017E00198022101F041FF03E000980221F3
:105B300001F0CCFF04000CD026462888C043C005E5
:105B400023D4A86D05281ED2DFE800F00C11161B27
:105B50001B00AA6ED8F8001021F440111143C8F8B8
:105B60000010EAE7386840F40030386009E0019836
:105B7000002101F01BFF03E00098002101F0A6FFC7
:105B8000044674B100E0012426462888C0438005FD
:105B900028D4E86D80281ED00CDC90B140280ED1AE
:105BA00014E0AA6DD8F8001021F007011143C8F8DD
:105BB0000010EAE7C02813D0B0F5807F10D0012490
:105BC0000FE0386840F40030386009E001980021A7
:105BD00001F0ECFE03E00098002101F077FF04469D
:105BE0009CB126462888DFF8DC92C04309F12C09D5
:105BF00040052CD4D5F8A800B0F5800F20D00DDCDE
:105C0000A0B1B0F5001F0FD115E0EA6DD8F8001073
:105C100021F4E0711143C8F80010E3E7B0F5C00FBC
:105C200013D0B0F5000F10D001240FE0386840F415
:105C30000030386009E00198002101F0B7FE03E070
:105C40000098002101F042FF04467CB126462888D6
:105C5000C04300052DD4D5F8AC00B0F1007F21D0B1
:105C60000EDCA8B1B0F1807F10D116E0D5F8A820E5
:105C7000D9F8001021F460011143C9F80010E6E7DB
:105C8000B0F1407F13D0B0F1806F10D001240FE04D
:105C9000386840F40030386009E00198002101F0D4
:105CA00085FE03E00098002101F010FF044674B166
:105CB00026462868C04380011FD4E86CD8B110285C
:105CC0000FD0202812D0302815D0012414E0D5F8A8
:105CD000AC20D9F8001021F0E0611143C9F80010A0
:105CE000E7E7386840F40030386004E001980221AA
:105CF00001F05CFE044674B126462888C043C00407
:105D00002BD4286EB0F5005F20D00DDCA0B1B0F52B
:105D1000805F0FD115E06B48EA6C2030016821F0FC
:105D2000300111430160E8E7B0F5405F13D0B0F5F2
:105D3000804F10D001240FE0386840F40030386004
:105D400009E00198002101F031FE03E000980021F4
:105D500001F0BCFE04468CB126462888C04380046E
:105D600029D4686EB0F5403F23D010DC08B3B0F5FD
:105D7000803F14D0B0F5003F0FD115E02A6ED8F85F
:105D8000001021F4E0411143C8F80010E5E7B0F538
:105D9000802F0ED0B0F5A02F0BD001240AE001987F
:105DA000012101F003FE03E00098012101F08EFEC5
:105DB000044694B126462888C04340042AD4D5F826
:105DC000B000B0F1405F23D010DC08B3B0F1805FC9
:105DD00014D0B0F1005F0FD115E06A6ED8F8001052
:105DE00021F4E0211143C8F80010E4E7B0F1804F3E
:105DF0000ED0B0F1A04F0BD001240AE00198012190
:105E000001F0D4FD03E00098012101F05FFE04469B
:105E100074B126462888C04300041FD4286FD8B127
:105E2000B0F1805F0ED0B0F1005F10D0012414E01B
:105E3000D5F8B020D9F8001021F0E0411143C9F89D
:105E40000010E7E7386840F40030386004E001985B
:105E5000012101F0ABFD044674B126462868C04319
:105E6000C0011ED4A86CD0B101280ED0022811D0D8
:105E7000032814D0012413E02A6FD8F8001021F071
:105E800040511143C8F80010E8E7386840F400308A
:105E9000386004E00198022101F088FD0446ACB1AD
:105EA00026462868DFF81CB0C043ABF11C0B40024B
:105EB00052D40548016841F480710160FFF76EFB20
:105EC000824611E02C44025800480258FA48AA6C55
:105ED000016821F0030111430160E2E7FFF75EFB77
:105EE000A0EB0A00642835D8F4480068C005F5D551
:105EF0008CBBDFF8C4A3B5F8B4100AF1240ADAF8B1
:105F0000000001F4407100F44070884211D0DAF8CA
:105F10000010DAF8002021F4407142F48032CAF80F
:105F20000020DAF8002022F48032CAF80020CAF8F3
:105F30000010D5F8B400B0F5807F1AD1FFF72EFB22
:105F4000029012E0FFF72AFB0299411A41F28830D1
:105F500081420AD9032426462878DFF85CA3C0438F
:105F60000AF1080AC00721D03CE0DAF800008007F7
:105F7000E8D5D5F8B410C1F30120032858460DD058
:105F8000016821F47C510160B5F8B420DAF8001002
:105F9000C2F30B021143CAF80010DDE7C84A0368D8
:105FA00002EA111223F47C511143ECE7E86F182840
:105FB00016D005DCA0B1082808D0102804D10AE0CA
:105FC00020280DD028280BD001240AE001980121B7
:105FD00001F0ECFC03E00098012101F077FD04469C
:105FE00064B126462878C04380071ED4A86F0628CF
:105FF00019D2DFE800F0160C11161616EA6FDAF85F
:10600000001021F038011143CAF80010EAE70198A6
:10601000012101F0CBFC03E00098012101F056FDC5
:1060200004467CB100E0012426462878C04340079E
:106030001FD4D5F89400062819D2DFE800F0160C1A
:1060400011161616AA6FDAF8001021F00701114395
:10605000CAF80010E9E70198012101F0A7FC03E06C
:106060000098012101F032FD0446A4B100E00124B2
:1060700026462878C04380062BD4D5F89000B0F18E
:10608000405F24D011DC10B3B0F1805F15D0B0F1C7
:10609000005F10D116E0D5F89420D9F8001021F057
:1060A00007011143C9F80010E3E7B0F1804F0ED0AB
:1060B000B0F1A04F0BD001240AE00198002101F0BB
:1060C00075FC03E00098022101F000FD044694B144
:1060D00026462878C04340062BD4D5F89C00B0F55E
:1060E000406F24D011DC10B3B0F5806F15D0B0F53F
:1060F000006F10D116E0D5F89020DAF8001021F0EA
:10610000E0411143CAF80010E3E7B0F5805F0ED01C
:10611000B0F5A05F0BD001240AE00198002101F046
:1061200045FC03E00098022101F0D0FC044694B144
:1061300026462878C04300062BD4D5F8A000B0F539
:10614000C04F24D011DC10B3B0F5005F15D0B0F50E
:10615000804F10D116E0D5F89C20D9F8001021F41A
:10616000E0511143C9F80010E3E7B0F5004F0ED03D
:10617000B0F5204F0BD001240AE00198002101F076
:1061800015FC03E00098022101F0A0FC044654B184
:1061900026462878C04300071ED4D5F88400B0F501
:1061A000805F0AD00FE0D5F8A020D9F8001021F4C4
:1061B00060411143C9F80010EBE70098022101F09B
:1061C00085FC00B10126D5F88420DAF8001021F40E
:1061D00040511143CAF800102878C043C00613D4B8
:1061E000D5F89800B0F5807F05D10098022101F024
:1061F0006DFC00B10126D5F89820D9F8001021F4E3
:1062000040711143C9F800102868C043000316D438
:10621000D5F8A40038B1B0F5803F09D0B0F5003F03
:106220000BD001240AE00198002101F0BFFB03E03C
:106230000098022101F04AFC04468CB126462868E9
:10624000C043400322D4D5F88800B0F5801F11D098
:10625000B0F5001F13D0B0F5401F15D0012414E095
:10626000D5F8A420D9F8001021F440311143C9F821
:106270000010E4E7386840F40030386004E000982B
:10628000012101F023FC04465CB126462868C04386
:10629000C00323D4286DA8B1B0F5803F17D00124E6
:1062A0001BE0D5F88820DAF8001021F440111143E2
:1062B000CAF80010EAE700004C44025800480258AF
:1062C000CFFFFF00386840F40030386004E00198E8
:1062D000022101F06BFB0446E4B126462868C04366
:1062E000800005D40098022101F0F0FB00B10126E6
:1062F0002868C04380031BD4D5F88000B0B1B0F546
:10630000807F0FD0B0F5007F10D0B0F5407F0DD06A
:1063100001240CE05A482A6D016821F480311143B0
:106320000160DBE7386840F400303860ECB32646A3
:106330002868C043C00207D46A6FD8F8001021F063
:1063400000411143C8F800102868C043C00008D4B9
:10635000D5F8B820DBF8001021F480411143CBF8C8
:1063600000102868C043800207D4EA6ED8F80010F5
:1063700021F080711143C8F800102868C043400024
:106380000CD4DBF8001021F40041CBF80010DBF84E
:106390000010D5F8BC201143CBF800102868C0438A
:1063A00008D437486A6D016800E018E021F04051D8
:1063B000114301602868C043000208D4D5F88C203E
:1063C000DAF8001021F440011143CAF800102879CE
:1063D0000024C04300F0010020430AD00FE0D5F8AC
:1063E0008020DAF8001021F440711143CAF800103F
:1063F0009EE70198002101F0D9FA00B106462879FC
:10640000C04300F00200204305D10198012101F0B2
:10641000CDFA00B106462879C04300F004002043BD
:1064200005D10198022101F0C1FA00B10646287990
:10643000C04300F00800204305D10098002101F07E
:1064400045FB00B106462879C04300F01000204308
:1064500005D10098012101F039FB00B106462879E9
:10646000C04300F02000044304D10098022101F051
:106470002DFB00B916B10120BDE8FE8F0020FBE71F
:106480004C4402582DE9F05F04000F467ED0DFF83F
:106490003882D8F8000000F00F00B8420CD2D8F8CB
:1064A000001021F00F013943C8F80010D8F800009F
:1064B00000F00F00B84269D12078844D40070AD51A
:1064C0002069296801F07001884204D9296821F007
:1064D00070010143296020787C4E361D00070AD5E3
:1064E0006069316801F07001884204D9316821F097
:1064F0007001014331602078C0060AD5A069316877
:1065000001F4E061884204D9316821F4E06101437B
:1065100031602078DFF8B4B180060BF1080B0CD5A0
:10652000E1695846DBF8002002F07002914204D97C
:10653000026822F070020A430260207880070AD5C0
:10654000E068296801F00F01884204D9296821F028
:106550000F01014329602078C0073ED05B49A26843
:106560002868183920F47060104328606068022899
:1065700018D0032819D00968012819D04907002923
:106580004ADADFF848A1AAF1080A00E044E0DAF8A4
:10659000002022F007020243CAF80020FEF7FEFFA7
:1065A000814612E009688903E9E709688901E6E79D
:1065B000C905E4E7FEF7F2FFA0EB090141F28830DC
:1065C000814202D90320BDE8F09F6168DAF800003B
:1065D00000F03800B0EBC10FECD1207880070AD56D
:1065E000E068296801F00F01884204D2296821F08F
:1065F0000F0101432960D8F80010404601F00F0157
:10660000B9420BD9016821F00F01394301600068DC
:1066100000F00F00B84201D00120D4E720784007F5
:106620000AD52069296801F07001884204D22968DE
:1066300021F0700101432960207800070AD56069C4
:10664000316801F07001884204D2316821F0700194
:10665000014331602078C0060AD5A069316801F491
:10666000E061884204D2316821F4E0610143316085
:10667000207880060CD5E1695846DBF8002002F04E
:106680007002914204D2026822F070020A43026052
:1066900000F09AF80E492A682B68C2F3032203F02F
:1066A0000F038A5CC95C02F01F0201F01F01D04099
:1066B000084A20FA01F1116007490860074800689C
:1066C000BDE8F05FFEF7A6BF002000521844025854
:1066D000809D0090200000241C0000241400002451
:1066E00070B5144C3F220260124A24680832131D10
:1066F000114D04F00704446016681C1D06F4706612
:106700008660166806F00F06C660126802F0700216
:1067100002611A6802F0700242611A6802F4E062D3
:106720008261226802F07002C261286800F00F00E6
:10673000086070BD104402580020005230B500F0CF
:1067400043F80B4A0B490C4B15681468C5F3032238
:1067500004F00F048A5C095D02F01F0201F01F01C2
:10676000D040064A20FA01F119601060084630BD99
:1067700018440258809D0090200000241C00002432
:1067800000B5FFF7DBFF05490968054AC1F30211AF
:10679000515C01F01F01C84000BD00001C440258BC
:1067A000809D009000B5FFF7C9FF05490968054ABB
:1067B000C1F30221515C01F01F01C84000BD00007F
:1067C0001C440258809D0090454970B545480968B1
:1067D000434B103B11F0380208D00111082A03D0B6
:1067E000102A0BD0182A0BD0084670BD19688906EC
:1067F000FBD51968C1F3C101C84070BD3A4870BDEE
:106800003749374D18310C1D24350A680968266848
:106810002D6802F0030406F00102C1F30511C5F36F
:10682000CC0515FB02F200EE102AB8EE400AE9B3DF
:106830002F4ADFED2E0AB7EE001A6CB1DFED2D1AEC
:10684000012C01D0022C43D002EE101A1068F8EE91
:10685000422A81EEA22A1EE01C68A40611D51B68FC
:1068600001EE901A1168C3F3C103F8EE612AD84013
:1068700001EE900AC1F30800F8EE611A81EEA22A37
:106880000BE001EE901ADFED1C2A00BFF8EE611A52
:10689000106882EEA12AC0F3080001EE900AF8EE1B
:1068A000611A40EE201A31EE810A00E015E022EE76
:1068B000000A1068C0F34620401C00EE900AF8EE73
:1068C000600A80EE201ABCEEC10A10EE100A70BDFC
:1068D00001EE901ADFED092AD8E7002070BD000014
:1068E000104402580090D00340787D010000003928
:1068F000304402580024744A0024744C20BCBE4B1F
:106900002DE9F05F04007DD0FF4F2078FE4D183751
:10691000DFF8F493103DC00748D0D9F8000039687B
:1069200000F03800102815D0182803D101F003001A
:1069300002280FD06068B0F5803F12D010B1B0F5DA
:10694000A02F18D0286820F480302860286820F410
:10695000802009E02868800328D560680028D2D00C
:1069600024E0286840F480302860606888B1FEF731
:1069700015FE064609E0286840F480202860F0E70C
:10698000FEF70CFE801B64286FD828688003F7D5BB
:106990000CE0FEF703FE064605E000BFFEF7FEFD35
:1069A000801B6428F0D828688003F7D4207841F24F
:1069B0000308D54E0C3E800769D5D9F80000396828
:1069C00010F038000ED0182801D188070AD0E068EE
:1069D00090B3296821F0190101432960FEF7DEFD1B
:1069E000824631E02868400702D5E06800288AD056
:1069F000E168286820F0190008432860FEF7CEFD02
:106A0000824607E0DFE000BFFEF7C8FDA0EB0A000A
:106A10000228B9D828684007F6D500BFFEF7B8FDB0
:106A200040451BD82069402812D0316821F47C31C0
:106A300041EA003030602AE018E000BFFEF7AEFD0A
:106A4000A0EB0A0002289FD828684007F6D5E5E7A2
:106A5000306820F47C3040F40030EBE7207C316873
:106A600021F0FE4141EA0060E4E70DE1286820F0F2
:106A700001002860FEF792FD824605E0FEF78EFDDC
:106A8000A0EB0A0002288DD828684007F6D42078A9
:106A9000C0065DD5D9F80000DFF86CB2396800F0A7
:106AA0003800ABF1040B082810D0182803D101F0EE
:106AB000030001280AD0E0690028286838D040F097
:106AC00080002860FEF76AFD824623E02868C00542
:106AD00023D5E069802876D11FE0206A202821D0C4
:106AE000316821F0F84141EA8060306030E000BF59
:106AF00094F82010DBF8002022F07C5242EA016179
:106B0000CBF8001024E000BFFEF748FDA0EB0A0020
:106B1000022898D82868C005F6D5FEF739FD40450B
:106B2000E6D8DAE7306820F0F84040F08040DCE753
:106B300020F080002860FEF731FD064605E000BF2A
:106B4000FEF72CFD801B02289DD82868C005F7D4CD
:106B50002078000729D56C48616964300029804697
:106B6000016811D041F001010160FEF717FD0646F2
:106B700005E000BFFEF712FD801B0228C9D8D8F837
:106B800000008007F6D510E021F001010160FEF75A
:106B900005FD064605E000BFFEF700FD801B02284C
:106BA00072D8D8F800008007F6D42078800623D564
:106BB000A0690028286810D040F480502860FEF7B3
:106BC000EDFC064605E036E1FEF7E8FC801B0228F6
:106BD0005AD828688004F7D50EE020F48050286049
:106BE000FEF7DCFC064604E0FEF7D8FC801B02281A
:106BF0004AD828688004F7D4207840074FD5DFF8BA
:106C00000C81D8F8001041F48071C8F80010FEF72C
:106C1000C5FC064605E000BFFEF7C0FC801B6428EB
:106C200032D8D8F80000C005F6D5374EA0686036D7
:106C300001280AD008B1052813D0306820F00100DF
:106C40003060306820F0040002E0306840F001005D
:106C50003060A06841F2883A90B1FEF79FFC804610
:106C60000AE0306840F004003060EEE7FEF796FC82
:106C7000A0EB0801514507D830688007F6D50EE033
:106C8000FEF78CFC804607E084E000BFFEF786FC40
:106C9000A0EB080151457DD830688007F6D4606AC2
:106CA000B0B3DFF86480D9F8001008F120084FF67F
:106CB000F87B08F10409C1F3C2010329A8F1040A11
:106CC00069D00228286820F08070286003D0FEF781
:106CD00065FC044684E0FEF761FC064605E000BF63
:106CE000FEF75CFC801B022877D828688001F7D467
:106CF000E26A40F2F331386854F8283F884340EAAA
:106D000002101843386004E010440258004802584A
:106D1000B5E0217B434622894FF4FE0C208A4FF0D8
:106D2000FE474902267D521E401EA1F50071C2F3A6
:106D300008088AB2761E0CEA004042EA08020243C2
:106D4000504607EA06610A431A60DAF8002022F08A
:106D50000102CAF80020D9F80020266A22EA0B02B4
:106D600042EAC602C9F80020DAF80010A26921F050
:106D70000C011143CAF800100168E26921F0020118
:106D800011430160016841F480310160016841F400
:106D9000003101E021E027E00160016841F4802139
:106DA0000160016841F001010160286840F08070D5
:106DB0002860FEF7F3FB044605E000BFFEF7EEFB9C
:106DC000001B022809D828688001F7D557E000BFCA
:106DD000FEF7E4FB001B022802D90320BDE8F09F68
:106DE00028688001F4D44AE039680128D8F8000006
:106DF00021D0A26A01F0030393421CD1E26AC1F3DD
:106E000005118A4217D1216BC0F30802491E8A423C
:106E100011D1616BC0F34622491E91420BD1A16B87
:106E2000C0F30642491E914205D1E16BC0F30660F2
:106E3000491E814201D00120D0E7A16C4E46D9F80D
:106E40000000C0F3CC00814219D0DAF800005546AA
:106E500020F00100CAF80000FEF7A0FB4FEA00078F
:106E6000FEF79CFBB842FBD0A26C306820EA0B0016
:106E700040EAC2003060286840F00100286000202D
:106E8000ACE770477047704710B5040003D094F822
:106E90003D0010B107E0012010BD002084F83C0047
:106EA000204600F022F8022084F83D002068211DD1
:106EB00001F07AF9012084F8480084F83E0084F853
:106EC0003F0084F8400084F8410084F8420084F8D0
:106ED000430084F8440084F8450084F8460084F8B0
:106EE000470084F83D00002010BD704790F83D1029
:106EF000012901D001207047174A022180F83D1076
:106F00000168CB6843F00103CB600068904214D065
:106F1000B0F1804F11D0114988420ED010498842FB
:106F20000BD01049884208D00F49884205D00F493C
:106F3000884202D00E49884207D181680D4A11402B
:106F4000062906D0B1F5803F03D0016841F0010168
:106F50000160002070470000000001400004004074
:106F600000080040000C00400004014000180040F0
:106F7000004001400700010070472DE9F041044640
:106F800000680027C6680569A90713D5B10711D5A0
:106F9000FA1E02610121217720688069800720465E
:106FA00002D0FFF7E9FF04E000F08BF8204600F084
:106FB00089F82777680716D5700714D5226802204C
:106FC0006FF00401116120772068806910F4407F20
:106FD000204602D0FFF7D0FF04E000F072F8204610
:106FE00000F070F82777280715D5300713D52268E9
:106FF00004206FF00801116120772068C0698007C4
:10700000204602D0FFF7B8FF04E000F05AF820460F
:1070100000F058F82777E80616D5F00614D5226850
:1070200008206FF01001116120772068C06910F40A
:10703000407F204602D0FFF79FFF04E000F041F8B8
:10704000204600F03FF82777E80708D0F00706D081
:1070500021686FF001000861204600F035F828062D
:1070600001D4A80408D5300606D521686FF4025073
:1070700008612046FFF706FFE80508D5300606D56B
:1070800021686FF4807008612046FFF7FAFE6806F9
:1070900008D5700606D521686FF0400008612046CB
:1070A00000F01CF8A8060AD5B00608D521686FF0D4
:1070B000200008612046BDE8F041FFF7E4BEBDE8CE
:1070C000F08170477047000000680349884201D191
:1070D000FEF76ABA7047000000100040704730B5F4
:1070E00090F88410012918D0012280F884202421EE
:1070F000C0F888100022202401680B680D6823F076
:10710000005325F001050D60426601680B60C0F870
:10711000884080F88420104630BD022030BD10B574
:107120000446D0F88C00202801D0022010BD61B1A7
:107130005AB10123E36600202067204601F00EFCCF
:107140000028F3D1E16E012901D0012010BD226891
:1071500010211162226852E8001F41F0100142E83C
:107160000013002BF6D110BD10B50068154A9042EF
:1071700027D11548941500F01F0303F58073BFF362
:107180004F8F124A10602030203B002BFADCBFF3F7
:107190004F8FBFF36F8F0C4AFF294FF0000001D8CB
:1071A000505401E082F8FF000A460749084800F001
:1071B00087FD05492246BDE8104001F58070FFF7C4
:1071C000AEBF10BD00100140FC0000245CEF00E0E9
:1071D00078040024704770B5044690F884000128B4
:1071E0001DD0012284F884202420C4F8880020685F
:1071F0000568026822F0010202602068826822F0BD
:1072000060620A438260204601F034F8226820213F
:1072100000201560C4F8881084F8840070BD022036
:1072200070BD70B5044690F8840001281DD001227D
:1072300084F884202420C4F8880020680568026847
:1072400022F0010202602068826822F060420A4354
:107250008260204601F00EF822682021002015608F
:10726000C4F8881084F8840070BD022070BD704797
:10727000704770472DE9F04107680025044640F645
:107280000F030226F8693968BA6818420AD18306E2
:107290007ED501F0200302F0805C53EA0C0377D026
:1072A000616F7EE1D44BDFF854C3134001EA0C0C4C
:1072B00053EA0C0C6CD05FEAC07C0CD05FEAC15C76
:1072C00009D54FF0010CC7F820C0D4F8907047F0F2
:1072D0000107C4F89070870709D5D70707D027683A
:1072E0003E62D4F8906046F00406C4F89060460709
:1072F0000AD5D60708D0276804263E62D4F89060E5
:1073000046F00206C4F8906006070CD501F020068E
:107310001E4308D0266808233362D4F8903043F027
:107320000803C4F8903003050BD54B0109D5266836
:107330004FF400633362D4F8903043F02003C4F874
:107340009030D4F89030002B3DD0800609D501F064
:10735000200002F08051084303D0616F09B120463C
:1073600088472168D4F890008968490602D410F053
:10737000280F2AD0204601F0D9F8206880684006FE
:107380001ED52068083050E8001F21F0400100E0C1
:1073900021E040E80012002AF3D1D4F8800078B14F
:1073A00097490165D4F88000FCF7A4FA00280AD0B8
:1073B000D4F88000016D00E02046BDE8F0410847A8
:1073C0002046FFF756FFBDE8F0812046FFF751FF4A
:1073D000C4F89050F7E7D4F86CC02023BCF1010F3B
:1073E0007ED15FEAC06C7BD55FEAC16C78D5102096
:1073F000386220688068400673D5D4F880208149BF
:107400001068884234D07F491831884230D07D4995
:10741000303188422CD07B494831884228D0794984
:107420006031884224D077497831884220D075492C
:10743000903188421CD07349A831884218D07249D3
:10744000884215D070491831884211D06E493031C8
:1074500088420DD06C494831884209D06A49603170
:10746000884205D068497831884201D06649903118
:1074700040684FF480770004000C40D0B4F85C10F2
:1074800081423CD9A4F85E00D069B8422FD021686F
:1074900051E8000F20F4807041E80002002AF6D184
:1074A0002068083050E8001F21F0010140E8001278
:1074B000002AF5D12068083050E8001F21F0400173
:1074C00040E80012002AF5D1C4F88C30E566206847
:1074D00050E8001F21F0100140E80012002A01E0EE
:1074E0004AE019E0F3D1D4F88000FCF753F826679E
:1074F000B4F85C00B4F85E10401A81B208E0B4F849
:107500005C1081427FF466AFD069B842FAD1266739
:107510002046FFF729FE56E7B4F85C00B4F85E1089
:10752000B4F85E20401A81B2002AF4D00029F2D0CB
:10753000226852E8000F20F4907042E80007002F04
:10754000F6D1324F206800F1080050E8002F02EA1F
:10755000070240E8002CBCF1000FF3D1C4F88C30D6
:10756000E5666567226852E8000F20F0100042E8E7
:107570000003002BF6D1CAE7C60209D5560207D58B
:107580004FF4801038622046BDE8F041FFF770BE2E
:1075900006060AD501F0800602F40002164304D064
:1075A000A16F00297FF408AF0DE7420611D54A0606
:1075B0000FD52046016851E8002F22F0400241E833
:1075C0000024002CF6D1C0F88830856700F0CCF894
:1075D000F9E6020206D54A0004D52046BDE8F0418E
:1075E000FFF745BEC00196D5002994DA2046BDE8D4
:1075F000F041FFF7EFBD0000010000102001000482
:107600002B8400901000024010040240FEFFFFEFA8
:1076100010B5040003D0D4F8880010B107E00120B1
:1076200010BD002084F88400204600F027F82420B4
:10763000C4F888002068016821F001010160A06A97
:1076400010B1204600F038FE204600F0B1FF0128BE
:10765000E6D02068416821F490414160206881684B
:1076600021F02A0181602068016841F00101016078
:107670002046BDE8104000F083BE00002DE9F04335
:10768000B7B00646142130A8FBF795F9C02168462B
:10769000FBF791F92E493068884256D100201F909F
:1076A00001210546CDE900106846FEF715FA08B13C
:1076B000FBF7D1FD2748016841F010010160006827
:1076C00000F01000359023481038016841F00101A6
:1076D0000160006807244FF00208DFF87C9000F09A
:1076E00001000121CDE93215CDE934404FF4806726
:1076F0004846CDE9307830A9FDF726FE7910309163
:10770000CDE93185CDE9335430A94846FDF71CFE5B
:10771000124C2921124884E82300C4E9035765610B
:107720002046A561E56125626562FCF799FD08B117
:10773000FBF791FDC6F8804000220521A6632520B5
:10774000FEF718F82520FEF707F837B0BDE8F083FC
:1077500000100140F044025800000258900200243A
:1077600010000240704770477047FEE7094808B5AF
:10777000016841F00101016000680022052100F06C
:10778000010000900B20FDF7F5FFBDE808400B203D
:10779000FDF7E2BFD844025832480F23F0B5304D10
:1077A000002491B0846005600127C4600526077439
:1077B0000421447400F1300C84743E25466120227B
:1077C000C0E90613C0E908161026C0E90A138CE8C0
:1077D0007200C0E9102108230365C0E91221C0E945
:1077E0001514C0E91742C0E91941FDF7A5FB08B11E
:1077F000FBF731FD40F2FF7140F2231002AA019421
:107800000225CDE9050182E8B000164801A9FDF77F
:10781000E1F808B1FBF71FFD09AA4FF080406FF0B7
:10782000604182E8B100CDE90D410E4809A9FDF79C
:10783000D1F808B1FBF70FFD02230A481A46194692
:107840000095FDF706F90748FDF75BFD08B1FBF76A
:1078500002FD044800220121FDF744F811B0F0BDFB
:1078600000A000403400002470B586B014216846A2
:10787000FBF7A1F82948016841F0040101600168A3
:1078800001F004010591016841F002010160016805
:1078900001F002010591016841F0010101600168F8
:1078A00001F001010591016841F08001016001686A
:1078B00001F080010591016841F02001016000683C
:1078C0000122174E032100F0200005903046FDF7FD
:1078D00059FE00256946012402946003CDE90005A4
:1078E0001048FDF731FD0C206946CDE900050E4832
:1078F0000294FDF729FD022000946946CDE901506C
:107900000A48FDF721FD03206946CDE90004CDE9D1
:1079100002453046FDF718FD06B070BDE044025840
:107920000004025800080258001C025800000258C7
:107930001A48002110B5184C0C224FF4E1330460B2
:10794000C0E90131C160C0E904128161C161016215
:1079500041628162FFF75CFE08B1FBF77CFC0F48D7
:107960000021FFF75EFC08B1FBF775FC0B48002116
:10797000FFF731FC08B1FBF76EFC0848FFF7AFFBDF
:1079800008B1FBF768FCBDE8104005494FF4807270
:107990000248FFF7C4BB000000100140FC010024B6
:1079A000FC000024FEE7FEE7704700002DE9F047E9
:1079B000454D044689464FF0000A2868C0438007B9
:1079C0000AD0414E283E306820F080603060FDF7DC
:1079D000E5FD0746B04608E00120BDE8F08700BF9E
:1079E000FDF7DCFDC01B022867D8D8F800000001B5
:1079F000F6D4206829684FF4FE0721F47C313E025A
:107A000041EA00302860207AA389B4F804C040021B
:107A10002D4D2D495B1E227CACF1010C1035091D4A
:107A2000A0F5007080B2521ECCF3080C07EA0343A5
:107A300040EA0C00184306EA026210432860086816
:107A4000626920F0C000104308600A68A06922F053
:107A5000200202430A60281D0A6822F010020A6010
:107A600002684FF6F873E4699A4342EAC40202607E
:107A70000868B9F1000F40F010020A6011D00868E0
:107A8000B9F1010F11D040F400100860D8F80000DF
:107A9000444640F08060C8F80000FDF77FFD0546D1
:107AA0000DE0086840F40020EFE740F48010ECE7B8
:107AB000FDF774FD401B022801D903208DE72068E3
:107AC0000001F5D5504688E7284402582DE9F047D3
:107AD000454D044689464FF0000A2868C043800798
