:0200000490006A
:10200000082902247123009001B6009037A40090A3
:10201000E1AF00905B2B009025DA009000000000FB
:10202000000000000000000000000000B12200904D
:102030002D350090000000000D23009055BE00904B
:102040008F2300908F2300908F2300908F23009088
:102050008F2300908F2300908F2300908F23009078
:102060008F2300908F2300908F230090552F009096
:102070008F2300908F2300908F2300908F23009058
:102080008F2300908F2300908F230090593500906C
:102090008F230090693500908F2300908F2300904C
:1020A0008F2300908F2300908F2300908F23009028
:1020B0008F2300908F2300908F2300908F23009018
:1020C0008F2300908F2300908F2300908F23009008
:1020D0008F23009015DA00908F2300908F230090BB
:1020E0008F2300908F230090000000008F2300902A
:1020F0008F2300908F2300908F2300908F230090D8
:102100008F2300908F2300908F2300908F230090C7
:102110008F2300908F230090B5C000908F230090F4
:102120008F2300908F2300908F2300908F230090A7
:102130008F2300908F2300908F230090793500909B
:10214000000000000000000000000000000000008F
:102150008F2300908F2300908F2300908F23009077
:102160008F2300908F2300908F2300908F23009067
:102170008F2300908F2300908F2300908F23009057
:102180008F2300908F2300908F2300908F23009047
:102190008F2300908F2300908F2300908F23009037
:1021A0008F2300908F230090652F00908F23009045
:1021B0008F2300908F2300908F2300908F23009017
:1021C0008F2300908F2300908F2300908F23009007
:1021D0008F2300908F2300908F2300908F230090F7
:1021E0008F2300908F2300908F2300908F230090E7
:1021F0008F2300908F2300908F2300908F230090D7
:102200008F2300908F2300908F2300908F230090C6
:102210008F2300908F2300908F2300908F230090B6
:102220008F2300908F2300908F23009000000000E8
:102230008F2300908F230090000000008F230090D8
:102240008F2300908F2300908F2300908F23009086
:102250008F2300908F2300908F2300908F23009076
:102260008F2300908F2300908F2300908F23009066
:102270008F2300908F2300908F2300900000000098
:102280008F2300908F2300908F2300900000000088
:10229000000000008F230090DFF810D000F0F4FB66
:1022A00000480047B5950390AFF300800829022449
:1022B0002C4B19680868B0E8F04F80F30988BFF329
:1022C0006F8F4FF0000080F311887047000000000E
:1022D00008480068006880F308884FF0000080F329
:1022E000148862B661B6BFF34F8FBFF36F8F00DF04
:1022F00000BF00BF08ED00E0DFF80C00016841F40A
:1023000070010160704700BF88ED00E0EFF30980C5
:10231000BFF36F8F134B1A681EF0100F08BF20ED2C
:10232000108A20E9F04F106009B44FF0500080F39C
:102330001188BFF34F8FBFF36F8F48F0EFFF4FF05F
:10234000000080F3118809BC19680868B0E8F04FF4
:102350001EF0100F08BFB0EC108A80F30988BFF39D
:102360006F8F704744000024EFF305807047000032
:10237000074880470748804707480047FEE7FEE7D1
:10238000FEE7FEE7FEE7FEE7FEE7FEE7FEE7FEE725
:102390003535009041BF0090992200902DE9F05F03
:1023A0000546002092469B468846064681464024C4
:1023B0001BE0284641464746224600F0EBF85346CC
:1023C0005A46C01A914110D311461846224600F0D1
:1023D000D2F82D1A67EB01084F4622460120002152
:1023E00000F0C9F817EB00094E41201EA4F10104CA
:1023F000DFDC484631462A464346BDE8F09F0000F0
:10240000004870475068269010B5431A934209D28D
:102410008318881803E010F8011D03F8011D521EEF
:10242000F9D210BD40EA01039B0703D009E008C9B7
:10243000121F08C0042AFAD203E011F8013B00F889
:10244000013B521EF9D210BDD2B201E000F8012BBF
:10245000491EFBD270470022F6E710B513460A4624
:1024600004461946FFF7F0FF204610BD421C10F845
:10247000011B0029FBD1801A704710B5002200E033
:10248000521C835C8C5CA34201D1002BF8D1D8B2E2
:10249000E1B2401A10BD034611F8012B00F8012BE0
:1024A000002AF9D1184670472DE9F0410546002071
:1024B00090460E46044600E0641C44450BD2285D5D
:1024C00000F078F80746305D00F074F8381A02D151
:1024D000295D0029F0D1BDE8F0812DE9F047914652
:1024E0000F4680460446002614F8015B2DB1FFF725
:1024F00087FF0068405DC007F6D12B2D02D02D2D3F
:1025000018D0641E4A463946204600F059F827B1D3
:102510003968A14201D1C7F8008071054FF002046B
:102520000BD54042002803DD0BF0F0FD0460A0074E
:10253000BDE8F08746F48066E4E70028F8DA0BF09F
:10254000E5FD04606FF00040F2E730B50B46014650
:1025500000202022012409E021FA02F59D4205D342
:1025600003FA02F5491B04FA02F52844151EA2F1EC
:102570000102F1DC30BD202A04DB203A00FA02F12E
:10258000002070479140C2F1200320FA03F3194361
:1025900090407047202A04DB203A21FA02F0002103
:1025A000704721FA02F3D040C2F120029140084363
:1025B00019467047A0F14101192900D82030704711
:1025C0002DE9F05F82460078002715468B460AF118
:1025D0000104B946302801D09DB113E014F8010B75
:1025E0000127782803D0582801D045B10AE00DB161
:1025F000102D07D10027102514F8010B02E0082543
:1026000000E00A250026B0460EE005FB080005FBA9
:1026100006F1012701EB10461FFA80F8B6F5803F5E
:1026200000D3B94614F8010B294600F051FA0028EE
:10263000EBDABBF1000F05D00FB1641E00E0544689
:10264000CBF80040B9F1000F06D00BF05FFD02217E
:102650000160C81EBDE8F09F48EA0640FAE710B5E1
:10266000141E73F1000408DA401C41F100019218B5
:102670005B411A4301D120F0010010BD2DE9F04D5E
:1026800092469B4611B1B1FA81F202E0B0FA80F2B3
:1026900020329046FFF76FFF04460F4640EA0A00DB
:1026A00041EA0B0153465A46084313D0114653EAF8
:1026B000010019D0C8F140025046FFF76BFF0546F4
:1026C0000E46504659464246FFF755FF084305D08F
:1026D000012004E020463946BDE8F08D0020054386
:1026E00046EAE0762C4337430A986305E40AA0EBF8
:1026F00008000022FD0A44EA47540A3002D50020AF
:102700000146E9E7010510196941DDE908450019AD
:102710006941BDE8F04DA2E72DE9FE4F804681EA10
:102720000300C00F0C46009021F0004123F000454B
:10273000B8EB0200A94105D24046214690461C460E
:102740000B46024623F00040104347D0270DC7F345
:102750000A00C3F30A510290401A019040286BDA34
:10276000C3F3130040F4801B0098924620B100236D
:10277000D2EB030A63EB0B0B01985946C0F1400200
:102780005046FFF7F8FE06460D4650465946019A58
:1027900000F08CF910EB08006141002487EA115227
:1027A00084EAE7731A4340D0009A62B3019A012A7F
:1027B0004FEA075215DC001B61EB02014FF00042AB
:1027C00002EA0752CDE90042001C41F58011324671
:1027D0002B46FFF753FF03B0BDE8F08F404621467C
:1027E000F9E7001B61EB0201001C41F580130018A2
:1027F0005B412018A2F5001747EB030140EAD570B2
:10280000B6196D4111E06D084FEA360645EAC0750C
:102810004FEA0752001B61EB0201001C41F58011D9
:1028200049084FEA30000019514132462B4603B0A7
:10283000BDE8F04FFFF713BF0098012240000023CE
:10284000D0EB020263EBE073009821464FEAE0749C
:10285000B8EB000061EB0401E9E783F000435BE7BC
:1028600081F0004158E72DE9FE4F81EA030404F0AE
:10287000004421F0004100944FF0000B23F000438E
:1028800050EA01045ED052EA03045BD0C3F30A5459
:10289000C1F30A552C44A4F2F3340194A0FB025472
:1028A000C1F3130141F48011C3F3130343F4801304
:1028B00001FB024400FB034E840A970A44EA815458
:1028C00047EA8357A4FB076802958D0A05FB078535
:1028D0004FEA932C04FB0C542705029D4FEA06583F
:1028E00047EA1637B5EB08056EEB070C870E920E1C
:1028F00047EA811742EA8312A7FB0201B6EB0B01FC
:1029000064EB00042B0D43EA0C335E1844EB1C50BF
:10291000DA465146E7FB0201C5F313044FEA0B33D5
:1029200043EA14534FEA0432019C43EA0603A4F13C
:102930000C040294009CCDE900B4FFF79FFE03B0A5
:10294000BDE8F08F00200146F9E72DE9F04D81EA5E
:10295000030404F0004B21F0004514464FF0000A38
:1029600023F0004150EA050220D054EA01021DD0B4
:10297000C5F30A570246C5F31303C1F31300C1F3AD
:102980000A5640F4801543F48013A7EB0608101B89
:10299000D64608F2FD3873EB050002D308F10108B2
:1029A00001E092185B41B8F1000F03DA0020014604
:1029B000BDE8F08D00204FF48011064684460EE0FD
:1029C000171B73EB050705D3121B63EB05030643C7
:1029D0004CEA010C49084FEA300092185B4150EA7A
:1029E0000107EDD152EA030012D082EA040083EA23
:1029F0000501084305D0101BAB4106D2012200237C
:102A000006E000224FF0004302E06FF00102531095
:102A10001AEB06004CEB085110EB0A0041EB0B01DE
:102A2000BDE8F04DFFF71BBEC1F30A52C1F313011D
:102A300040F2FF3341F480119A4202DA002001464D
:102A4000704740F233439A42A2F2334202DC5242D0
:102A5000FFF7A0BDFFF78FBD30B5041E71F1000474
:102A600004DB4FF00044404264EB0101141E73F19B
:102A7000000405DB1C464FF00043524263EB0403A5
:102A8000994208BF904230BD064C074D06E0E06811
:102A900040F0010394E8070098471034AC42F6D3A5
:102AA000FFF7FEFBC8732690E8732690202A06DB0A
:102AB000CB17203A41FA02F043EAE07306E041FA0C
:102AC00002F3D040C2F120029140084319467047FA
:102AD0003A2800D2303820F02002412A01D3A2F156
:102AE0003700884201D34FF0FF30704770B58C1823
:102AF00010F8015B15F0070301D110F8013B2A1112
:102B000006D110F8012B03E010F8016B01F8016BFE
:102B10005B1EF9D12B0705D40023521E0DD401F8FA
:102B2000013BFAE710F8013BCB1A921C03E013F8C3
:102B3000015B01F8015B521EF9D5A142D8D30020F8
:102B400070BD0246002004E0137803B903E0401C86
:102B5000521C8842F8D300BF704700BFFEE7000058
:102B600070B502460B46FF2A2AD00424002124E037
:102B7000144810F8210090421DD10020022B04D0EF
:102B8000032B07D0042B0FD109E00E4D05EB810577
:102B9000E8780BE00B4D05EB8105687806E0094D00
:102BA00005EB8105A87801E0002000BF00BF0525E6
:102BB000054E357070BD481CC1B2A142D8DB00BFC4
:102BC0000020F7E714CF04904200002430B589B00C
:102BD00004460D4600944FF0804001900020029082
:102BE000082003900020049005900690079008901C
:102BF0002946684600F050F909B030BD00B589B0EB
:102C00004FF08040019000200390012004900020AC
:102C1000029005906FF06040069001A9024802F012
:102C20009EFF09B000BD0000E004002400B585B09F
:102C300000221421102037F093FF1E4908601E4B1C
:102C40000FCBCDE90323CDE9010101A838F049F804
:102C50001A49086000221146012038F0F9F8184995
:102C6000086000F0D7F8FFF7C9FF002003460222F2
:102C700011460090134802F0C6FF08B100F057FC5F
:102C800000224FF400610F4802F0CCFE0022012127
:102C90000C4802F0C7FE00224FF0DC51094802F058
:102CA000C1FE084803F025FD08B100F040FC05B066
:102CB00000BD00009C03002498672690A003002418
:102CC000A4030024E00400242DED028B88B000BF93
:102CD0004FF0FF33002203A92D48006837F000FFB2
:102CE0000028F5D103980090DDE90501CDE9010147
:102CF0000098C0F300700028EAD100240098C0F3C7
:102D00000360012842D19DF804109DF8050041EAB6
:102D10000025012D04D0022D04D0042D2ED117E062
:102D200001242DE002A80AF07FFEB0EE408AB0EE4A
:102D3000480A07F025FD07F0F9FB0098C1B2B7EE8D
:102D4000C80A53EC102B13A00AF07EFE012417E0F2
:102D500002A80AF069FEB0EE408AB0EE480A07F019
:102D60002FFD07F0E3FB0098C1B2B7EEC80A53ECA1
:102D7000102B18A00AF068FE012401E0002400BF17
:102D800000BF2146684608F03DFC00BFA0E70000F8
:102D90009C0300245B52585F434D445D20416374A3
:102DA000696F6E3A205365742043757272656E7454
:102DB000207C20536F7572636520426F783A20251E
:102DC00064207C2056616C75653A20252E33662080
:102DD000410D0A005B52585F434D445D20416374CE
:102DE000696F6E3A2053657420566F6C7461676525
:102DF000207C20536F7572636520426F783A2025DE
:102E000064207C2056616C75653A20252E3366203F
:102E1000560D0A0000B589B00020019001200290F3
:102E200000200390012004900020059040F2FF70E4
:102E3000069001A9024802F092FE09B000BD000010
:102E4000E004002410B5FFF7F1FE074A002107480F
:102E500038F0D2F8064908600846006810B905A0A5
:102E60000AF0F2FD10BD0000A8672690C92C009062
:102E7000700400245B4572726F725D2043414E20E6
:102E80005461736B204372656174696F6E20466193
:102E9000696C6564210D0A002DE9F04104460D4678
:102EA0004FF47A711E48006837F0EAFE08B1BDE8B9
:102EB000F08100260EE03046761C44F62061884200
:102EC00008D918480068806920F001001549096890
:102ED000886104E0134802F0E9FF0028EBD000BF4E
:102EE0002A4621460F4802F0F1FD98B914210E48F8
:102EF000006837F077FF68B10CA00AF0A5FD09481B
:102F000002F0D5FE0746012000FA07F1054802F05D
:102F100077FD00BF0248006837F03CFF00BFC6E7FE
:102F2000A0030024E0040024A40300245B43414EDA
:102F30005D2054582054696D656F7574212041746B
:102F400074656D7074696E672041626F72742E2EA5
:102F50002E0D0A0010B5024801F042FB10BD000022
:102F6000BC08002410B50B48406800F0020068B1AE
:102F70000848806840F002000649886006480068FA
:102F800020B101210448006837F0F6FF034800F043
:102F9000D1FD10BD00100052080000247804002468
:102FA0001FB5054B0FCB8DE80F00684637F099FE33
:102FB000024908601FBD000068CE04900C00002488
:102FC0000146374A0868904249D0354A18320868A5
:102FD000904244D0324A3032086890423FD0304A62
:102FE0004832086890423AD02D4A603208689042D0
:102FF00035D02B4A78320868904230D0284A903237
:10300000086890422BD0264AA8320868904226D001
:10301000244A0868904222D0224A18320868904216
:103020001DD0204A30320868904218D01D4A4832DC
:103030000868904213D01B4A6032086890420ED054
:10304000184A78320868904209D0164A90320868C7
:10305000904204D0134AA8320868904201D101205E
:1030600000E00020B0B10A78103A1823B2FBF3F068
:1030700000F007020C4B9A5CCA65032805D90A6860
:103080006FF30902121D8A6503E00A686FF30902F3
:103090008A6503E0086820F0FF008865886D704746
:1030A000100002401004024078CE049010B502686F
:1030B0002B4C0368A34222D0294C14340368A3424A
:1030C0001DD0274C28340368A34218D0244C3C342C
:1030D0000368A34213D0224C50340368A3420ED09D
:1030E0001F4C64340368A34209D01D4C7834036834
:1030F000A34204D01A4C8C340368A34201D10123AB
:1031000000E000238BB10378083B1424B3FBF4F1F7
:10311000144B03EB81030366124B8033436601F0CB
:103120001F040123A340836618E00378103B182492
:10313000B3FBF4F10C4B9A4204D80B4BA83B9A42D8
:1031400000D30831094B03EB81030366074B80333F
:10315000436601F01F040123A340836610BD0000F5
:103160000854025800580258B804024000080240AF
:103170000179A9B3082940D8204B02689A4222D08D
:103180001E4B143302689A421DD01C4B2833026830
:103190009A4218D0194B3C3302689A4213D0174B0D
:1031A000503302689A420ED0144B643302689A423C
:1031B00009D0124B783302689A4204D00F4B8C33FB
:1031C00002689A4201D1012200E000224AB14A1E5F
:1031D0000B4B03EB8202C266094A4032026708E0E9
:1031E0000BE04A1E074B03EB8202C266054A4032DF
:1031F00002674A1E012393404367704708540258F0
:103200000059025800090240014600208A69D2B9DB
:103210008A6A32B1012A0DD0022A03D0032A10D1C2
:103220000EE000BFCA6A02F08072B2F1807F00D166
:10323000012007E0CA6AB2F1C07F00D1012001E09D
:1032400000E000BF36E08A69B2F5005F1BD18A6AF0
:1032500032B1012A07D0022A03D0032A11D10AE091
:1032600000BF01200EE0CA6A02F08072B2F1807FD6
:1032700000D1012006E0CA6AB2F1C07F00D101206E
:1032800000E000BF16E08A6A32B1012A05D0022AA6
:1032900004D0032A0CD103E000BF00BF012008E0E6
:1032A000CA6A02F08072B2F1807F00D1012000E092
:1032B00000BF00BF70470000F0B5856D846D984F6A
:1032C0000668BE4270D0964F18370668BE426BD073
:1032D000934F30370668BE4266D0914F4837066834
:1032E000BE4261D08E4F60370668BE425CD08C4FC4
:1032F00078370668BE4257D0894F90370668BE427D
:1033000052D0874FA8370668BE424DD0854F066819
:10331000BE4249D0834F18370668BE4244D0814F21
:1033200030370668BE423FD07E4F48370668BE42FF
:103330003AD07C4F60370668BE4235D0794F783737
:103340000668BE4230D0774F90370668BE422BD019
:10335000744FA8370668BE4226D0734F0668BE4237
:1033600022D0714F14370668BE421DD06E4F2837E9
:103370000668BE4218D06C4F3C370668BE4213D078
:10338000694F50370668BE420ED0674F64370668F3
:10339000BE4209D0644F78370668BE4204D0624FFF
:1033A0008C370668BE4201D1012600E000263EB1FE
:1033B000D0E919767E60C66E16B1D0E91C767E60C3
:1033C000574F0668BE4249D0554F18370668BE426F
:1033D00044D0534F30370668BE423FD0504F483735
:1033E0000668BE423AD04E4F60370668BE4235D0BE
:1033F0004B4F78370668BE4230D0494F9037066849
:10340000BE422BD0464FA8370668BE4226D0454F55
:103410000668BE4222D0434F18370668BE421DD010
:10342000404F30370668BE4218D03E4F48370668D6
:10343000BE4213D03B4F60370668BE420ED0394FB4
:1034400078370668BE4209D0364F90370668BE42CC
:1034500004D0344FA8370668BE4201D1012600E0EF
:103460000026DEB190F85C6006F01F073F26BE40E4
:10347000AE600668366826F4802607683E600668F7
:1034800073608668402E04D10668B2600668F160F9
:1034900044E00668B1600668F2603FE0224F0668CB
:1034A000BE4222D0204F14370668BE421DD01E4FA8
:1034B00028370668BE4218D01B4F3C370668BE420C
:1034C00013D0194F50370668BE420ED0164F6437DE
:1034D0000668BE4209D0144F78370668BE4204D051
:1034E000114F8C370668BE4201D1012600E000264C
:1034F000A6B190F85C6006F01F070126BE4066602A
:10350000066873608668402E04D10668B26006685B
:10351000F16003E00668B1600668F260F0BD00008B
:10352000100002401004024008540258704772B65E
:1035300000BFFEE70748006840F002000549086048
:1035400000BF04480838006800F400500028F8D094
:10355000704700000C48025810B5024802F0AEFC5B
:1035600010BD0000E004002410B5024802F0A6FCE3
:1035700010BD0000E004002410B5024802F09EFCDB
:1035800010BD0000E004002410B501464A6B086835
:10359000D0F884004FF6FC74A04340EA82000C6827
:1035A000C4F884000868D0F8840020F47F04088FF1
:1035B00044EA00400C68C4F88400886B0244086840
:1035C000D0F888004FF6FC74A04340EA82000C68F3
:1035D000C4F888000868D0F8880020F4FE04888FBA
:1035E00044EA00400C68C4F88800C86B02EB400253
:1035F0000868D0F8A0004FF6FC74A04340EA8200AF
:103600000C68C4F8A0000868D0F8A00020F4FE04FC
:103610004020405A44EA00400C68C4F8A000D1E9B8
:10362000104004FB00220868D0F8B0004FF6FC748C
:10363000A04340EA82000C68C4F8B0000868D0F8E3
:10364000B00020F4FE04B1F8480044EA00400C68E1
:10365000C4F8B000D1E9124004FB00220868D0F899
:10366000AC004FF6FC74A04340EA82000C68C4F83A
:10367000AC00D1E9144004FB00220868D0F8F00047
:103680004FF6FC74A04340EA82000C68C4F8F000D6
:103690000868D0F8F00020F47C14B1F8580044EA2F
:1036A00000400C68C4F8F000886D02EB4002086826
:1036B000D0F8C0004FF6FC74A04340EA82000C68CA
:1036C000C4F8C0000868D0F8C00020F47C14B1F839
:1036D0005C0044EA00400C68C4F8C0000868D0F8F8
:1036E000C00020F07C5491F8600044EA00600C684F
:1036F000C4F8C0002A4C486B04EB8000C866CC6E4E
:10370000886B04EB80040C670C6FC86B04EBC0047F
:103710004C67D1E9100460434C6F04EB80048C6764
:10372000D1E9120460438C6F04EB8004CC67D1E9CB
:1037300014046043CC6F04EB800480204450445850
:10374000886D04EBC004842044508C6EC86D6043C7
:103750008424645804EB8004882044508C6E086EE6
:1037600060438824645804EB8004902044504058FF
:103770000C4CA04209D99831486840F020004860BC
:10378000032001F89809012010BDCB6E02E0002053
:1037900018601B1D902040589842F8D80020F3E78D
:1037A00000AC0040FCD300402DE9F0410546144632
:1037B0001E46D1F804C0BCF1000F0AD1D1F810C0E8
:1037C000D1F808804CEA080CB1F800804CEA884334
:1037D0000BE0D1F810C04CF0804CD1F808804CEAD6
:1037E000080CD1F800804CEA080391F82080D1F849
:1037F0001CC04CEA086CD1F818804CEA080CD1F8CF
:1038000014804CEA080CB1F80C804CEA0847D5F853
:1038100068C00CFB06FCD5F8848008EB8C021360B2
:10382000121D1760121D002019E000F1030C14F89E
:103830000CC04FEA0C6800F1020C14F80CC048EA06
:103840000C4800F1010C14F80CC048EA0C2C14F8D8
:1038500000804CEA080CC2F800C0121D001DDFF801
:103860001480D1F80CC018F80CC08445DDD8BDE830
:10387000F081000080CE049002460868B0B9D1E91A
:1038800001031843CB6818430B6918434B6918436D
:103890008B691843CB6918430B6A18434B6A18436A
:1038A00013686FF30E031843106019E0D1E90703A2
:1038B00018434B6A1843136823F4F8431843106005
:1038C000D1E901031843CB6818430B6918434B69CE
:1038D00018438B69184353686FF30E031843506005
:1038E000002070470246506943F6FE73984340EA51
:1038F000410050610020704710B50346D1E9000433
:1039000020438C68641E40EA4410CC6840EA44209E
:103910001C696FF3150420431861002010BD0000DE
:1039200030B50346FAB90868401E4C68641E40EA88
:1039300004148868401E44EA0024C868401E44EA13
:103940000034088A401E44EA0044888A401E44EA43
:103950000054087E401E44EA00609C6804F07044F5
:103960002043986022E0C868401E0403888A401EF5
:1039700044EA00509C680E4D2C4020439860086833
:10398000401E4C68641E40EA04148868401E44EAE5
:103990000024088A401E44EA0044087E401E44EA8F
:1039A0000060DC6804F070442043D860002030BD23
:1039B000FF0F0FFF13B504463CB19DF8040020B182
:1039C00001AA0D21204626F00DFE1CBDFFF7E8FAE6
:1039D000114A0021114837F00FFB1149086029F006
:1039E0008FF831F0DDFB31F00DFC0AF035FB09F00A
:1039F000E3FE0C4988680C4930F008FA09490023B5
:103A00001A46886808492BF0D5FC00BF35F02AF823
:103A1000052037F00FF8F9E7B4CF049035BE0090D9
:103A2000CC000024181C022471270190704700006C
:103A300070B502460C465068B0F5403F02D0506861
:103A400000B100BF012C09D1C4EBC40602F128006B
:103A500000EB860040680B2800D100BF00BF92F841
:103A60006000012801D1022070BD012082F86000B1
:103A700000BF022082F86100C4EBC40602F12800F6
:103A800000EB86010E89486840EA06400E8A40EA4B
:103A900006508E8A40EA4653254D48680A2802D0CF
:103AA0004868092804D1C86800F07F40034302E059
:103AB000087B43EA0063A4B91068406AA84318432E
:103AC0001668706208681668B06148680A2802D0F3
:103AD0004868092821D1C86820F07F401668B06284
:103AE0001BE048680B2804D1088B43EA804345F467
:103AF00040251068C069A84318431668F06108683B
:103B00001668306148680A2802D04868092804D13C
:103B1000C86820F07F4016683062012082F861009A
:103B200000BF002082F8600000BF00BF9CE70000DB
:103B30000F0033FF70B504462068456820680668AA
:103B400005F00100E0B106F48070C8B1206800689B
:103B500020F4807021680860606E40F001006066AB
:103B6000012021688860042084F8610000BF0020E3
:103B700084F8600000BF606A10B12046616A88471F
:103B800005F02000E0B106F40050C8B120680068DC
:103B900020F4005021680860202021688860606E51
:103BA00040F002006066042084F8610000BF00203D
:103BB00084F8600000BF606A10B12046616A8847DF
:103BC00005F00800E0B106F40060C8B120680068A4
:103BD00020F4006021680860082021688860606E19
:103BE00040F004006066042084F8610000BF0020FB
:103BF00084F8600000BF606A10B12046616A88479F
:103C000005F0040070B106F4806058B120680068C7
:103C100020F48060216808600420216888602046C4
:103C200000F080F805F00200D0B106F40070B8B1E1
:103C30002068006820F40070216808600220216874
:103C40008860606E6066012084F8610000BF00201B
:103C500084F8600000BF206A10B12046216A8847BE
:103C600005F01000C0B106F48050A8B120680068CB
:103C700020F4805021680860102021688860606E00
:103C80006066012084F8610000BF002084F86000B5
:103C900000BF2046FFF7CAFE70BD000010B5044605
:103CA0000CB9012010BD94F8610028B9002084F8F7
:103CB0006000204600F038F8022084F86100E169D5
:103CC0006068084321680968154A11400843216863
:103CD0000860A169A06808432168496B40F2071297
:103CE00091430843216848632068006C6FF30F001C
:103CF000E168084321680864208A0105A08A41EA36
:103D000040502168496B21F4401108432168486301
:103D100000206066012084F861000020C2E70000F6
:103D2000BFFFF8FF7047000038B504460D49206812
:103D3000884215D100BF0C48006840F010000A49C5
:103D400008600846006800F01000009000BF00BF47
:103D5000002205215A2003F099F95A2003F082F934
:103D600038BD000000100052D44402582DE9F04143
:103D7000044602F011FF804614B90120BDE8F0812D
:103D800094F83500022808D08020606500BF00202C
:103D900084F8340000BF0120F0E7FE492068884223
:103DA00049D0FC4918312068884244D0F949303163
:103DB000206888423FD0F7494831206888423AD08D
:103DC000F44960312068884235D0F2497831206862
:103DD000884230D0EF499031206888422BD0ED499D
:103DE000A8312068884226D0EB492068884222D03A
:103DF000E9491831206888421DD0E74930312068F0
:103E0000884218D0E44948312068884213D0E249FA
:103E10006031206888420ED0DF49783120688842BE
:103E200009D0DD4990312068884204D0DA49A831B0
:103E30002068884201D1012000E0002068B120689C
:103E4000006820F01E00216808602068406920F0AA
:103E5000800021684861256806E02068006820F03D
:103E60000E00216808602568CA492068884270D021
:103E7000C8491831206888426BD0C6493031206863
:103E8000884266D0C34948312068884261D0C14920
:103E90006031206888425CD0BE4978312068884211
:103EA00057D0BC4990312068884252D0B949A831D6
:103EB000206888424DD0B8492068884249D0B64928
:103EC00018312068884244D0B34930312068884294
:103ED0003FD0B1494831206888423AD0AE4960317C
:103EE0002068884235D0AC4978312068884230D08B
:103EF000A9499031206888422BD0A749A831206871
:103F0000884226D0A5492068884222D0A34914318E
:103F1000206888421DD0A14928312068884218D0E5
:103F20009E493C312068884213D09C49503120681A
:103F300088420ED0994964312068884209D0974957
:103F400078312068884204D094498C3120688842B6
:103F500001D1012000E0002028B1206E006820F48B
:103F60008070216E08608B492068884249D0894959
:103F700018312068884244D0864930312068884210
:103F80003FD084494831206888423AD08149603125
:103F90002068884235D07F4978312068884230D007
:103FA0007C499031206888422BD07A49A83120681A
:103FB000884226D078492068884222D07649183134
:103FC000206888421DD0744930312068884218D05A
:103FD000714948312068884213D06F4960312068A8
:103FE00088420ED06C4978312068884209D06A49ED
:103FF00090312068884204D06749A83120688842FF
:1040000006D12068006820F001002168086005E002
:104010002068006820F001002168086011E002F0CB
:10402000BBFDA0EB080005280BD92020606503200C
:1040300084F8350000BF002084F8340000BF012060
:104040009CE6286800F001000028E8D1514920686A
:10405000884249D04F4918312068884244D04D49A0
:104060003031206888423FD04A4948312068884230
:104070003AD0484960312068884235D04549783186
:104080002068884230D043499031206888422BD044
:104090004049A8312068884226D03F49206888429C
:1040A00022D03D491831206888421DD03A4930312C
:1040B0002068884218D0384948312068884213D097
:1040C00035496031206888420ED033497831206804
:1040D000884209D0304990312068884204D02E4966
:1040E000A8312068884201D1012000E0002040B1C1
:1040F000A66D94F85C0000F01F013F208840B0607E
:1041000007E0A76D94F85C0000F01F0101208840D3
:10411000786020492068884276D01E49183120688E
:10412000884271D01B493031206888426CD01949CF
:1041300048312068884267D016496031206888423B
:1041400062D014497831206888425DD0114990319D
:104150002068884258D00F49A8312068884253D03F
:104160000D49206888424FD00B4918312068884299
:104170004AD0094930312068884245D00649483143
:104180002068884240D004496031206888423BD092
:10419000014905E010000240100402400854025892
:1041A0007831206888422FD02549206888422BD05A
:1041B000234918312068884226D022492068884245
:1041C00022D020491431206888421DD01D49283151
:1041D0002068884218D01B493C312068884213D09F
:1041E00018495031206888420ED016496431206841
:1041F000884209D0134978312068884204D0114997
:104200008C312068884201D1012000E0002068B193
:10421000D4E919104860E06E40B1E06E006820F407
:104220008070E16E0860D4E91C104860012084F8B9
:10423000350000BF002084F8340000BF00BF9DE5BA
:10424000A00402400854025870B504460CB901207D
:1042500070BD94F83500022803D0802060650120ED
:10426000F6E7DC492068884249D0DA4918312068ED
:10427000884244D0D7493031206888423FD0D54960
:104280004831206888423AD0D2496031206888425B
:1042900035D0D04978312068884230D0CD4990312E
:1042A000206888422BD0CB49A8312068884226D08C
:1042B000C9492068884222D0C749183120688842FD
:1042C0001DD0C54930312068884218D0C2494831D4
:1042D0002068884213D0C0496031206888420ED0DF
:1042E000BD4978312068884209D0BB4990312068A7
:1042F000884204D0B849A8312068884201D1012001
:1043000000E00020F0B3042084F83500B1492068B3
:1043100088424BD0AF4918312068884246D0AD4919
:1043200030312068884241D0AA494831206888420B
:104330003CD0A84960312068884237D0A5497831FF
:104340002068884232D0A3499031206888422DD01D
:10435000A049A8312068884228D09F492068884217
:1043600024D09D491831206888421FD09A493031A5
:10437000206888421AD0984948312068884215D070
:10438000954900E020E06031206888420ED09249D3
:1043900078312068884209D08F499031206888425E
:1043A00004D08D49A8312068884206D12068006871
:1043B00020F001002168086009E12068006820F011
:1043C00001002168086002E12068006820F00E000A
:1043D000216808607F492068884249D07D491831AA
:1043E0002068884244D07B493031206888423FD0E1
:1043F00078494831206888423AD07649603120684F
:10440000884235D0734978312068884230D071496C
:104410009031206888422BD06E49A83120688842AC
:1044200026D06D492068884222D06B491831206817
:1044300088421DD0684930312068884218D06649CA
:1044400048312068884213D063496031206888422F
:104450000ED0614978312068884209D05E49903198
:104460002068884204D05C49A8312068884206D17F
:104470002068006820F001002168086005E02068DD
:10448000006820F0010021680860524920688842D5
:1044900070D050491831206888426BD04D49303176
:1044A0002068884266D04B4948312068884261D0F4
:1044B00048496031206888425CD04649783120689C
:1044C000884257D0434990312068884252D04149B0
:1044D000A831206888424DD03F492068884249D0A1
:1044E0003D4918312068884244D03B49303120682A
:1044F00088423FD038494831206888423AD036490E
:1045000060312068884235D033497831206888424C
:1045100030D031499031206888422BD02E49A831C3
:104520002068884226D02D492068884222D02B4915
:104530001431206888421DD02849283120688842DB
:1045400018D026493C312068884213D02349503185
:10455000206888420ED0214964312068884209D001
:104560001E4978312068884204D01C498C3120686B
:10457000884201D1012000E00020D8B1206E0068FF
:1045800020F48070216E0860A56D94F85C0000F046
:104590001F01012088406860D4E919104860E06E6E
:1045A00040B1E06E006820F48070E16E0860D4E9EC
:1045B0001C104860012084F8350000BF002084F8FA
:1045C000340000BF206D10B12046216D88470020C7
:1045D0003EE6000010000240100402400854025859
:1045E0002DE9F84F044600200090FE4800684FF483
:1045F0001651B0FBF1FAA66DD4F858803768D8F898
:104600000090F9492068884249D0F749183120685C
:10461000884244D0F4493031206888423FD0F24982
:104620004831206888423AD0EF496031206888429A
:1046300035D0ED4978312068884230D0EA49903150
:10464000206888422BD0E849A8312068884226D0CB
:10465000E6492068884222D0E4491831206888421F
:104660001DD0E24930312068884218D0DF494831F6
:104670002068884213D0DD496031206888420ED01E
:10468000DA4978312068884209D0D84990312068C9
:10469000884204D0D549A8312068884201D1012040
:1046A00000E0002000287DD094F85C0000F01F019D
:1046B000082088403840002868D0CB4920688842CC
:1046C00049D0C94918312068884244D0C6493031A0
:1046D000206888423FD0C4494831206888423AD097
:1046E000C14960312068884235D0BF49783120689F
:1046F000884230D0BC499031206888422BD0BA49DA
:10470000A8312068884226D0B8492068884222D043
:10471000B6491831206888421DD0B449303120682C
:10472000884218D0B14948312068884213D0AF4937
:104730006031206888420ED0AC49783120688842C8
:1047400009D0AA4990312068884204D0A749A831ED
:104750002068884204D12068006800F0040003E06B
:104760002068006800F0080080B12068006820F030
:1047700004002168086094F85C0000F01F01082024
:104780008840B060606D40F00100606594F85C00A6
:1047900000F01F01012088403840E8B392492068AA
:1047A000884200E0B7E24BD08F4918312068884238
:1047B00046D08D4930312068884241D08A494831FD
:1047C000206888423CD0884960312068884237D0D0
:1047D000854978312068884232D0834990312068F9
:1047E00088422DD08049A8312068884228D07F494E
:1047F0002068884224D07D491831206888421FD023
:104800007A493031206888421AD078494831206886
:10481000884215D0754900E026E060312068884262
:104820000ED0724978312068884209D06F499031A2
:104830002068884204D06D49A8312068884204D19C
:104840002068406900F0800002E0206800680020D5
:1048500050B194F85C0000F01F0101208840B06066
:10486000606D40F00200606594F85C0000F01F018C
:10487000042088403840E8B35B49206888424BD028
:10488000594918312068884246D05749303120684C
:10489000884241D054494831206888423CD052492E
:1048A00060312068884237D04F497831206888428B
:1048B00032D04D499031206888422DD04A49A831E4
:1048C0002068884228D049492068884224D0474936
:1048D0001831206888421FD044493031206888420E
:1048E0001AD0424948312068884215D03F4960318A
:1048F000206800E024E088420ED03C4978312068EE
:10490000884209D0394990312068884204D037491B
:10491000A8312068884204D12068006800F00200B5
:1049200002E020680068002050B194F85C0000F0BC
:104930001F0104208840B060606D40F00400606595
:1049400094F85C0000F01F01102088403840E8B364
:1049500025492068884251D023491831206888426F
:104960004CD0214930312068884247D01E49483117
:104970002068884242D01C496031206888423DD07E
:10498000194978312068884238D017499031206819
:10499000884233D01449A831206888422ED0134968
:1049A000206888422AD0114918312068884225D0D1
:1049B0000E4930312068884220D00C4948312068A7
:1049C00088421BD009496031206800E04DE08842F0
:1049D00014D006497831206888420FD003499031BD
:1049E000206805E03400002410000240100402405A
:1049F000884203D0FE492068884204D120680068BC
:104A000000F0080003E02068006800F0040060B3D4
:104A100094F85C0000F01F0110208840B06020680E
:104A2000006800F4802080B12068006800F4002055
:104A300028B9206CC8B12046216C884715E0A06CCD
:104A400098B12046A16C88470FE02068006800F408
:104A5000807028B92068006820F00800216808608C
:104A6000206C10B12046216C884794F85C0000F05F
:104A70001F0120208840384000287DD0DD49206873
:104A8000884249D0DB4918312068884244D0D9494E
:104A90003031206888423FD0D6494831206888426A
:104AA0003AD0D44960312068884235D0D149783134
:104AB0002068884230D0CF499031206888422BD07E
:104AC000CC49A8312068884226D0C949A839206835
:104AD000884221D0C6499039206888421CD0C449F8
:104AE00078392068884217D0C149603920688842E7
:104AF00012D0BF494839206888420DD0BC493039AE
:104B00002068884208D0BA4918392068884203D002
:104B1000B7492068884204D12068006800F010007E
:104B200003E02068006800F0020028B394F85C00FD
:104B300000F01F0120208840B06094F83500042860
:104B40002DD12068006820F01600216808602068D8
:104B5000406920F0800021684861206C08B9A06C91
:104B600028B12068006820F008002168086094F8E7
:104B70005C0000F01F0100E03FE03F208840B06093
:104B8000012084F8350000BF002084F8340000BF05
:104B9000206D10B12046216D8847BDE8F88F206850
:104BA000006800F4802080B12068006800F40020D4
:104BB00028B9606C08B32046616C88471DE0E06B43
:104BC000D8B12046E16B884717E02068006800F400
:104BD000807068B92068006820F0100021680860C3
:104BE000012084F8350000BF002084F8340000BFA5
:104BF000E06B10B12046E16B8847606D00287AD0E9
:104C0000606D00F00100E8B3042084F835007949B4
:104C1000206888424BD0774918312068884246D0B6
:104C2000744930312068884241D072494831206847
:104C300088423CD06F4960312068884237D06D4946
:104C400078312068884232D06A49903120688842A1
:104C50002DD06849A8312068884228D06449A839F5
:104C60002068884223D062499039206888421ED04B
:104C70005F4978392068884219D05D4960392068D9
:104C8000884200E040E012D0594948392068884203
:104C90000DD0574930392068884208D05449183916
:104CA0002068884203D052492068884206D1206893
:104CB000006820F001002168086005E020680068B5
:104CC00020F001002168086000BF0098401C00909F
:104CD000504500D905E02068006800F00100002878
:104CE000F3D100BF2068006800F0010020B103206C
:104CF00084F8350003E00DE0012084F8350000BFA2
:104D0000002084F8340000BFE06C002802D0204668
:104D1000E16C8847D9E138492068884222D0364979
:104D20001431206888421DD03349283120688842D8
:104D300018D031493C312068884213D02E49503177
:104D4000206888420ED02C4964312068884209D0FE
:104D5000294978312068884204D027498C3120685D
:104D6000884201D1012000E000200028D2D0206834
:104D7000056894F85C0000F01F010420884000EAF8
:104D80000900D8B305F00400C0B394F85C0000F04B
:104D90001F0104208840C8F8040005F4004080B1D9
:104DA00005F4803030B9A06C0028B3D02046A16C47
:104DB00088478AE1206C0028ACD02046216C8847C7
:104DC00083E105F02000E8BB0A492068884253D0FF
:104DD00008491831206888424ED006493031206891
:104DE000884249D0034948312068884244D006E0CF
:104DF000B804024010000240085402584FE0B44981
:104E000060312068884237D0B149783120688842C3
:104E100032D0AF499031206888422DD0AC49A831BA
:104E20002068884228D0AB492068884224D0A9490C
:104E30001831206888421FD0A64930312068884246
:104E40001AD000E025E0A34948312068884213D0F9
:104E5000A0496031206888420ED09E497831206890
:104E6000884209D09B4990312068884204D09949F2
:104E7000A8312068884206D12068006820F0080028
:104E80002168086005E02068006820F004002168BF
:104E90000860206C10B32046216C884715E194F817
:104EA0005C0000F01F010220884000EA0900E8B31E
:104EB00005F00200D0B394F85C0000F01F0102205E
:104EC0008840C8F8040005F4004070B105F4803053
:104ED00028B9606C10B12046616C8847F5E0E06B42
:104EE000F0B32046E16B8847EFE005F02000C0BB3F
:104EF0007749206888424ED0754918312068884229
:104F000049D0734930312068884244D070494831D3
:104F1000206888423FD06E496031206888423AD08C
:104F20006B4978312068884235D000E04EE068490E
:104F30009031206888422ED06549A8312068884287
:104F400029D064492068884225D0624918312068F8
:104F5000884220D05F493031206888421BD001E070
:104F60006EE02DE05B4948312068884213D05949F2
:104F70006031206888420ED05649783120688842D6
:104F800009D0544990312068884204D05149A83151
:104F90002068884206D12068006820F0140021684B
:104FA000086005E02068006820F00A0021680860B9
:104FB000012084F8350000BF002084F8340000BFD1
:104FC000E06BE8B32046E16B88477EE094F85C0034
:104FD00000F01F010820884000EA090080B305F0B6
:104FE000080068B33A49206888424BD038491831E4
:104FF0002068884246D0364930312068884241D006
:1050000033494831206888423CD0314960312068BA
:10501000884237D02E4978312068884232D02C49D6
:105020009031206888422DD02949A83120688842D3
:1050300028D028492068884224D02649183100E029
:1050400043E0206888421DD02249303120688842E0
:1050500018D0204948312068884213D01D4960315A
:10506000206888420ED01B4978312068884209D0D8
:10507000184990312068884204D01649A831206828
:10508000884206D12068006820F01C002168086072
:1050900005E02068006820F00E002168086094F8A0
:1050A0005C0000F01F0101208840C8F804000120C6
:1050B000606584F8350000BF002084F8340000BF2C
:1050C000E06C10B12046E16C884700BF65E5000048
:1050D00010000240100402402DE9F041044601F0A6
:1050E0005BFD804614B90120BDE8F081FE492068CF
:1050F000884249D0FC4918312068884244D0FA4996
:105100003031206888423FD0F749483120688842D2
:105110003AD0F54960312068884235D0F24978317B
:105120002068884230D0F0499031206888422BD0E6
:10513000ED49A8312068884226D0EC492068884291
:1051400022D0EA491831206888421DD0E749303121
:105150002068884218D0E54948312068884213D039
:10516000E2496031206888420ED0E04978312068F9
:10517000884209D0DD4990312068884204D0DB495B
:10518000A8312068884201D1012000E000200028D9
:1051900073D0606A00B100BF022084F8350000BF00
:1051A000002084F8340000BFCF492068884249D0ED
:1051B000CD4918312068884244D0CB49303120682D
:1051C00088423FD0C8494831206888423AD0C64911
:1051D00060312068884235D0C349783120688842E0
:1051E00030D0C1499031206888422BD0BE49A831C7
:1051F0002068884226D0BD492068884222D0BB4919
:105200001831206888421DD0B84930312068884262
:1052100018D0B64948312068884213D0B34960316C
:10522000206888420ED0B14978312068884209D080
:10523000AE4990312068884204D0AC49A83120683A
:10524000884206D12068006820F0010021680860CB
:1052500005E02068006820F00100216808600DE08A
:1052600001F09AFCA0EB0800052807D92020606512
:10527000032084F83500012036E76AE020680068E2
:1052800000F001000028EBD120680568984805402F
:10529000D4E9020108432169084361690843A1690F
:1052A0000843E1690843216A08430543606A04280A
:1052B00003D1D4E90B01084305438E4800686FF31E
:1052C0000F00B0F1005F1DD36068292802D3606829
:1052D0002E2811D960683F2802D3606842280BD974
:1052E0006068472802D36068482805D960684F285D
:1052F00004D36068522801D8012000E0002008B1E2
:1053000045F48015206805602068456925F007058B
:10531000606A0543606A04280DD1A06A0543E06A0B
:1053200048B12046FDF770FF28B14020606501209C
:1053300084F83500D8E6206845612046FDF740FE38
:10534000064694F85C0000F01F013F208840B060E2
:105350009EE069492068884222D06749143120685C
:1053600088421DD0644928312068884218D062499B
:105370003C312068884213D05F4950312068884210
:105380000ED05D4964312068884209D05A4978318D
:105390002068884204D058498C312068884201D165
:1053A000012000E00020E0B353492068884222D069
:1053B00051491431206888421DD04F492831206856
:1053C000884218D04C493C312068884213D04A4961
:1053D0005031206888420ED04749643120688842A5
:1053E00009D0454978312068884204D042498C313F
:1053F0002068884201D1012000E0002000B100BFF8
:10540000022084F8350000BF002084F8340000BF7B
:105410002068056839480540A068402802D110215D
:1054200006E02EE0A068802801D1C10100E0002143
:10543000E06841EAD001206941EAD001606941EAAF
:10544000D001A06941EAD001E06941EAD001206AB7
:1054500041EA101005432068056027492068401A7A
:105460001421B0FBF1F08000E0652046FDF7A8FDB7
:10547000074694F85C0000F01F0101208840786026
:1054800006E040206065032084F8350001202BE60B
:105490001549206888427FD0134918312068884216
:1054A0007AD0114930312068884275D00E49483190
:1054B0002068884270D00C496031206888426BD0E7
:1054C000094978312068884266D0074990312068C0
:1054D000884261D00449A831206888425CD00349E1
:1054E0002068884258D00BE01000024010040240AF
:1054F0003F8010FE0010005C085402580F00FEFFB1
:105500003B4918312068884246D0394930312068FB
:10551000884241D036494831206888423CD03449DD
:1055200060312068884237D031497831206888421C
:1055300032D02F499031206888422DD02C49A83193
:105540002068884228D02B492068884224D02949E5
:105550001431206888421FD02649283120688842AB
:105560001AD024493C312068884215D02149503155
:105570002068884210D01F496431206888420BD0CF
:105580001C4978312068884206D01A498C3120683D
:10559000884200E000E001D1012000E0002000B3DB
:1055A0002046FDF783FDA068802801D100206060BF
:1055B0002079216E0860D4E919104860606860B1F4
:1055C0006068082809D82046FDF7D2FD0020E16E6A
:1055D0000860D4E91C10486003E00020E066206702
:1055E000606700206065012084F8350000207BE5BD
:1055F00010040240085402582DE9F04104460D46BB
:1056000016461F464FF0000814B90120BDE8F0818E
:1056100000BF94F83400012801D10220F6E70120F0
:1056200084F8340000BF94F8350001287ED10220B0
:1056300084F8350000206065E4492068884249D03C
:10564000E24918312068884244D0E049303120686E
:1056500088423FD0DD494831206888423AD0DB4952
:1056600060312068884235D0D84978312068884236
:1056700030D0D6499031206888422BD0D349A83108
:105680002068884226D0D2492068884222D0D0495A
:105690001831206888421DD0CD49303120688842B9
:1056A00018D0CB4948312068884213D0C8496031AE
:1056B000206888420ED0C64978312068884209D0D7
:1056C000C34990312068884204D0C149A83120687C
:1056D000884206D12068006820F001002168086037
:1056E00005E02068006820F00100216808603B4662
:1056F000324629462046FDF7DFFDB449206888423E
:105700004BD0B24918312068884246D0AF49303179
:105710002068884241D0AD494831206888423CD059
:10572000AA4960312068884237D000E042E1A749A9
:1057300078312068884230D0A4499031206888426E
:105740002BD0A249A8312068884226D0A0492068E1
:10575000884222D09E491831206888421DD09C4939
:1057600030312068884218D09949483120688842F1
:1057700013D097496031206888420ED0944978311F
:105780002068884209D0924990312068884204D02C
:105790008F49A8312068884201D1012000E0002013
:1057A00080B12068006820F01E0040F016002168DB
:1057B0000860206CB0B12068006840F008002168E3
:1057C00008600FE02068006820F00E0040F00A003A
:1057D00021680860206C28B12068006840F004004F
:1057E0002168086079492068884270D0774918316B
:1057F000206888426BD0754930312068884266D075
:10580000724948312068884261D07049603120680F
:1058100088425CD06D4978312068884257D06B4906
:1058200090312068884252D06849A8312068884267
:105830004DD067492068884249D0654918312068B1
:10584000884244D062493031206888423FD0604964
:105850004831206888423AD05D49603120688842EA
:1058600035D05B4978312068884230D05849903132
:10587000206888422BD05649A8312068884226D01B
:1058800054492068884222D0524914312068884205
:105890001DD0504928312068884218D04D493C31EC
:1058A0002068884213D04B495031206888420ED07E
:1058B000484964312068884209D0464978312068D7
:1058C000884204D043498C312068884201D10120AC
:1058D00000E0002090B1206E006800F4803028B114
:1058E000206E006840F48070216E0860E06E28B180
:1058F000E06E006840F48070E16E08603349206813
:10590000884249D0314918312068884244D02F4913
:105910003031206888423FD02C4948312068884285
:105920003AD02A4960312068884235D027497831F9
:105930002068884230D025499031206888422BD099
:105940002249A8312068884226D02149206888420F
:1059500022D01F491831206888421DD01C4930319F
:105960002068884218D01A4948312068884213D0EC
:1059700017496031206888420ED015497831206877
:10598000884209D0124990312068884204D01049D9
:10599000A8312068884206D12068006840F00100E4
:1059A0002168086010E02068006840F0010021686C
:1059B000086009E04FF40060606500BF002084F8D3
:1059C000340000BF4FF0010840461FE610000240BF
:1059D000100402400854025870B5044601F0DCF887
:1059E00006462546681C10B104480078054400BFEF
:1059F00001F0D2F8801BA842FAD370BD3000002419
:105A0000024692F89800022804D11068C0F8D41019
:105A100000207047D2F89C0040F00800C2F89C00BB
:105A20000120F6E730B5034693F89840012C01D0E9
:105A3000022C3ED11868806D084030B91868C06DDE
:105A400040F001001D68E8650EE01868806D0840B0
:105A5000884206D11868C06D40F002001D68E865F4
:105A600002E003201D68E86501F4007030B1186899
:105A7000D0F8E00010431D68C5F8E00001F4806034
:105A800030B11868D0F8E40010431D68C5F8E40090
:105A900000BF1868406D0B4D0D4028431D686865B8
:105AA0000948006840EA9170074D286000BF002057
:105AB00030BDD3F89C0040F00200C3F89C000120E8
:105AC000F6E70000FFFFCF3F14A800402DE9F041AA
:105AD00004460E461746706800B900E000BF94F80F
:105AE0009800022832D12068D0F8C00000F07C5025
:105AF00040B9D4F89C0040F02000C4F89C0001207C
:105B0000BDE8F0812068D0F8C40000F4001038B17E
:105B1000D4F89C0040F40070C4F89C000120EFE72A
:105B20002068D0F8C400C0F304452B463A463146FD
:105B30002046FDF739FE0120A8402168C1F8D000B9
:105B40000120A840C4F894000020D9E7D4F89C00B4
:105B500040F00800C4F89C000120D1E77047F0B580
:105B6000024692F89860012E01D0022E43D1C868F7
:105B7000072800D100BF086818BBC868072800D0F4
:105B800000BFC86807280BD1088A4FF0605747EA62
:105B90000040CF6940EA07208F6940EA07040AE025
:105BA000087A80070F7B40EAC7600F8A40EA074007
:105BB0004F6940EA0704D76E486807EB80031C6012
:105BC00017E0C868072800D000BF0F7B086940EACB
:105BD0004774C868072801D18D6903E00F7A4869C6
:105BE00040EA8775176F486807EBC0031C601B1DF0
:105BF0001D600020F0BDD2F89C0040F00200C2F809
:105C00009C000120F6E770B50446049D94F89800C6
:105C100001280AD1080140EA820040EA43002843F3
:105C20002668C6F88000002070BDD4F89C0040F0C3
:105C30000400C4F89C000120F6E7000070B504469B
:105C400000BF0121144800F091FF00BF204600F082
:105C50002AF80546284600F0F3FC07F04FFF05F050
:105C6000006020B92068006D00F0007098B10B480A
:105C700007F0EAFE204600F056FD2068806920F01B
:105C8000010021688861204600F033FD00220449AC
:105C90002046FFF7C7FE70BD000402580C70269026
:105CA0000100800370470146D1F89C00704701460F
:105CB000D1F89400704700002DE9F04304460D46EA
:105CC0009C46002394F89880B8F1020F74D1402DBF
:105CD00038D12068D0F8A00000F4FE0040B9D4F814
:105CE0009C0040F02000C4F89C000120BDE8F08337
:105CF0002068D0F8A40000F07F0038B9D4F89C00E8
:105D000040F48070C4F89C000120EFE72068D0F8D0
:105D1000A400C0F3006040B12068D0F8A0004FF0AC
:105D20000109B9EBD07F00D101232068D0F8A4008D
:105D3000C0F305200344606C5843D4F8749009EB19
:105D400080014BE0412D38D12068D0F8B00000F43C
:105D5000FE0038B9D4F89C0040F02000C4F89C0044
:105D60000120C3E72068D0F8B40000F07F0038B904
:105D7000D4F89C0040F48070C4F89C000120B5E782
:105D80002068D0F8B400C0F3006040B12068D0F8BB
:105D9000B0004FF00109B9EBD07F00D1012320689A
:105DA000D0F8B400C0F305200344E06C5843D4F8A5
:105DB000789009EB800111E06DE0206DA84207D8D2
:105DC000D4F89C0040F02000C4F89C0001208DE72E
:105DD000606D6843D4F87C9009EB8001086800F09E
:105DE00080405060506820B90868C0F38A40106055
:105DF00003E0086820F060401060086800F0005080
:105E00009060086800F000401061091D088880B2A9
:105E1000D0610868C0F30340D060086800F48010C7
:105E20005061086800F4001090610868C0F30660D3
:105E300010620868C00F5062091D0F46002603E07B
:105E4000B85D0CF80600761CDFF85C90D06819F895
:105E50000000B042F4D8402D03D12068C0F8A8302B
:105E600017E0412D03D12068C0F8B83011E0202D93
:105E700006D20120A840D4F80090C9F8980008E0A4
:105E800005F01F09012000FA09F0D4F80090C9F8C4
:105E90009C0000202AE7D4F89C0040F00800C4F8D9
:105EA0009C00012022E7000080CE049001460A6891
:105EB000D2F8C42002F03F00704770472DE9F04F40
:105EC0008DB00446EF4800688707EE48001D006863
:105ED00007EA80772068006D00F470482068406D04
:105EE00000EA08082068006D00F00F092068406D86
:105EF00000EA09092068006D00F0F00A2068406D92
:105F000000EA0A0A2068006D00F0715B2068406DAD
:105F100000EA0B0B2068006D00F060700C902068A8
:105F2000406D0C9908400C902068456D2068066D06
:105F3000C5F3002070B1C6F3002058B100BF4FF484
:105F40008070216808650020CE49086000BF2046A7
:105F5000FFF7B3FFC5F38020C8B1C6F38020B0B10E
:105F60002068D0F8DC000A902068D0F8E4000A9994
:105F700008400A9000BF4FF4806021680865002047
:105F8000C049086000BF20460A9900F023FC67B1B1
:105F900000BFBD48384021680865B80FB94908609E
:105FA00000BF39462046FFF7D9FDB8F1000F0ED0EB
:105FB00000BFB54808EA0000216808654FEA9870FC
:105FC000B049086000BF4146204600F005FCB9F129
:105FD000000F0ED000BFAC4809EA00002168086538
:105FE0004FEA9970A749086000BF4946204600F073
:105FF00055FBBAF1000F0ED000BFA3480AEA00001B
:10600000216808654FEA9A709E49086000BF5146B2
:10601000204600F06DFBC5F3C02070B1C6F3C02070
:1060200058B100BF4FF40060216808650020954911
:10603000086000BF204600F0D1FBC5F34020C8B186
:10604000C6F34020B0B12068D0F8D8000B9020688B
:10605000D0F8E0000B9908400B9000BF4FF400709F
:106060002168086500208749086000BF20460B9919
:1060700000F0B1FBC5F3C04070B1C6F3C04058B1E9
:1060800000BF4FF400202168086500207D490860AA
:1060900000BF204600F000FBC5F3004070B1C6F31E
:1060A000004058B100BF4FF48030216808650020DF
:1060B0007449086000BF204600F08BFBC5F38040A8
:1060C00070B1C6F3804058B100BF4FF48020216802
:1060D000086500206B49086000BF204600F078FB8F
:1060E000C5F3404088B1C6F3404070B100BF4FF4E3
:1060F00000302168086500206249086000BFD4F8BC
:106100009C0040F08000C4F89C000C9870B100BF67
:106110005D490C980840216808650C98800F594922
:10612000086000BF20460C99FFF7BCFDBBF1000FD3
:1061300010D000BF54480BEA0000216808654FEA00
:106140009B705049086000BFD4F89C0040EA0B00E7
:10615000C4F89C004D49206888427DD16068806801
:1061600000F00300002877D06068006A00F00F009C
:1061700009906068406A0999084009906068006A5F
:1061800000F0300008906068406A08990840089064
:106190006068006A00F4C07007906068406A079900
:1061A000084007906068006A00F4FC400690606850
:1061B000406A0699084006906068006A00F4F02082
:1061C00005906068406A0599084005906068406ADB
:1061D00002906068006A0190099830B1099861687E
:1061E00008622046099900F0F0FA089830B1089842
:1061F000616808622046089900F0E9FA0298C0F345
:106200008010A0B10198C0F3801080B16068C06BAD
:10621000000C04906068C06B00F03F0003904020C9
:10622000616808622046DDE9032100F0CFFA079893
:1062300030B10798616808622046079900F0C4FAF7
:10624000069840B1069861680862D4F89C000699E7
:106250000843C4F89C0000E00AE0059840B10598A6
:1062600061680862D4F89C0005990843C4F89C0052
:10627000D4F89C0010B12046FFF7E0FC0DB0BDE85B
:10628000F08F000010A80040FFFFCF3F00A00040AB
:1062900070B594B004464C22B34901A8FCF7B4F899
:1062A00014B9012014B070BDB0492068884203D1F0
:1062B000206800F580706060A068B0F5407F00D174
:1062C00000BF206C00B100BFA06C00B100BF206D0A
:1062D00000B100BF206E00B100BFD4E91710084420
:1062E00000B100BF94F8980028B9002084F8990004
:1062F000204600F03DF92068806920F010002168F8
:10630000886100F049FC05460EE000F045FC401BAA
:106310000A2809D99834606840F0010060600320C1
:1063200004F898090120BDE72068806900F00800A2
:106330000828EAD02068806940F00100216888615F
:1063400000F02AFC05460EE000F026FC401B0A285F
:1063500009D99834606840F001006060032004F8B7
:10636000980901209EE72068806900F0010000285C
:10637000EAD02068806940F0020021688861207CB2
:10638000012806D12068806920F0400021688861DA
:1063900005E02068806940F0400021688861607CE9
:1063A000012806D12068806940F480402168886116
:1063B00005E02068806920F4804021688861A07C25
:1063C000012806D12068806920F480502168886106
:1063D00005E02068806940F4805021688861206869
:1063E000806920F44070A1680843216888612068B2
:1063F000806920F0A400216888612068006920F08D
:10640000100021680861E068012806D120688069D1
:1064100040F004002168886120E0E068F0B1E068A5
:10642000022815D02068806940F0800021688861CA
:106430002068006940F0100021680861E0680328C6
:106440000CD12068806940F020002168886105E057
:106450002068806940F0200021688861207E401E0D
:106460004106E069401E41EA0020216A491E0843B6
:10647000A18A491E40EA01402168C861A068B0F5C0
:10648000407F0FD1A06A401EE16A491E40EA012107
:10649000206B401E41EA0011A08C401E41EA0040E2
:1064A0002168C860206E38B12068D0F8C000616EE5
:1064B00008432168C1F8C000D4E91710084460B14E
:1064C0002068D0F8C80020F0070001AAA16E52F899
:1064D000211008432168C1F8C800206C60B1206811
:1064E000D0F8BC0020F0070001AA616C52F821101E
:1064F00008432168C1F8BC00A06C68B12068D0F8DE
:10650000BC0020F0700101AAE06C52F8200041EAC2
:1065100000102168C1F8BC00206D68B12068D0F877
:10652000BC0020F4E06101AA606D52F8200041EA4D
:1065300000202168C1F8BC000C492068884205D1C0
:106540006068806820F0030061688860002044F87B
:10655000940FA06001202071943C2046FDF714F8B0
:10656000064630469EE6000090CE049000A0004013
:1065700010B5B8B00446142132A8FBF76CFFC02157
:1065800002A8FBF768FF2B492068884250D14FF4DE
:1065900000410020CDE902101E9002A801F03AF857
:1065A00008B1FCF7C4FF00BF2348006840F48070C6
:1065B000214908600846006800F48070019000BF1F
:1065C00000BF00BF1C480C38006840F001001A49A9
:1065D0000C3908600846006800F00100019000BF17
:1065E00000BF4FF4C050329002203390012034900D
:1065F000032035900920369032A9104800F0B0F9F8
:1066000000220521132000F041FD132000F02AFD97
:1066100000220521152000F039FD152000F022FD93
:10662000002205213F2000F031FD3F2000F01AFD3F
:1066300038B010BD00A00040EC44025800000258E1
:1066400070B5044604B970BD21460AA007F0FCF9F4
:106650000E4D07E02868204018B10DA0696807F0CA
:10666000F3F9083568680028F4D10AA007F0ECF9BE
:1066700000BFE8E7464443414E20436F64653A203B
:10668000307825303858202800000000A803002466
:1066900025732000290A00007047000030B591B032
:1066A00005460C4604F00100E8B105AB07AA4021FD
:1066B0002846FFF701FBA8B90798009008980190B9
:1066C0000A98C0B28DF81000DDE90501CDE902019C
:1066D0000648006830B100231A466946034800683E
:1066E00034F08CFA00BF11B030BD00009C030024D0
:1066F0007047014691F8980001280CD1022081F8DA
:1067000098000868806920F001000A689061002004
:10671000C1F89C007047D1F89C0040F00400C1F81B
:106720009C000120F6E70146002291F8980002281B
:1067300042D10868806940F001000B6898610CE064
:10674000322A09D99831486840F001004860032096
:1067500001F8980901207047521C0868806900F010
:1067600001000028ECD000220868806920F01000A9
:106770000B6898610CE0322A09D99831486840F0DA
:1067800001004860032001F898090120E3E7521C4A
:106790000868806900F008000828ECD00868806963
:1067A00040F002000B6898610020C1F894000120BD
:1067B00081F898000020CEE7D1F89C0040F0080056
:1067C000C1F89C000120C6E77047704770477047CA
:1067D00070477047704770477047000010B5044617
:1067E0000348006818B10248006834F097FB10BDF8
:1067F000A403002400B5B7B0142132A8FBF72BFE88
:106800004E48006808B137B000BD01204B49086010
:10681000C02102A8FBF71FFE4FF080710020CDE9D8
:106820000210149002A800F0F5FE08B1FCF77FFEFC
:1068300000BF4348006840F4805041490860084662
:10684000006800F48050019000BF00BF40F2FF607C
:1068500032900220339000203490032035900C2099
:10686000369032A9374800F07BF80320329002209E
:10687000339000203490032035900C20369032A9BC
:10688000314800F06DF84FF47F4032900220339091
:1068900000203490032035900C20369032A92B48EC
:1068A00000F05EF848F23710329002203390012059
:1068B0003490032035900C20369032A9244800F003
:1068C0004FF84CF203703290022033900120349044
:1068D000032035900C20369032A91E4800F040F875
:1068E0004FF63F0032900220339001203490032075
:1068F00035900C20369032A9174800F031F80D2061
:1069000032900220339001203490032035900C20E7
:10691000369032A9114800F023F84FF6807032907B
:106920000220339001203490032035900C203690C3
:1069300032A9054800F014F800BF64E710000024F5
:10694000D44402580020025800100258001C02587B
:1069500000180258000C025800140258000802588F
:10696000F8B502460B4600216F4DD7E001278F4056
:106970001E6806EA0704002C72D01E7906F0030692
:10698000012E04D01E7906F00306022E13D1906862
:106990004F000326BE40B0434F00DE68BE40304388
:1069A0009060506801268E40B0431E79C6F30016F1
:1069B0008E40304350601E7906F00306032E09D046
:1069C000D0684F000326BE40B0434F009E68BE40D3
:1069D0003043D0601E7906F00306022E13D1CF0893
:1069E00002F1200656F827004E07F70E0F26BE408C
:1069F000B0434F07FF0E1E69BE403043CF0802F17F
:106A0000200646F8270010684F000326BE40B0431A
:106A10001E7906F003064F00BE40304310605E68EA
:106A200006F44036002E78D000BF404E366846F05F
:106A300002063E4F3E603E46366806F0020600966D
:106A400000BF00BF3A4E8F0856F827008E07370F59
:106A50000F26BE40B043374EB24202D100262EE090
:106A60005BE0354EB24201D1012628E0334EB242FE
:106A700001D1022623E0324EB24201D103261EE0AC
:106A8000304EB24201D1042619E02F4EB24201D15C
:106A9000052614E02D4EB24201D106260FE02C4E01
:106AA000B24201D107260AE02A4EB24201D108269D
:106AB00005E0294EB24201D1092600E00A268F07DF
:106AC0003F0FBE4030431A4E8F0846F827004FF064
:106AD000B0463068A0435E6806F4801606B12043D5
:106AE0004FF0B04630607068A0435E6806F4001650
:106AF00006B120434FF0B04670606868A0435E68FE
:106B000006F4003606B1204368602868A0435E683A
:106B100006F4803606B120432860491C1E68CE402A
:106B2000002E7FF423AFF8BD80000058F4440258D3
:106B300008040058000002580004025800080258D7
:106B4000000C025800100258001402580018025895
:106B5000001C025800200258002402580246136903
:106B60000B400BB1012000E00020704710B54269D6
:106B700021EA020302EA010443EA0443836110BDEF
:106B80000AB1816101E00B0483617047014800682C
:106B9000000C70470010005C01480068704700005E
:106BA0002800002403480068034909780844014983
:106BB00008607047280000243000002410B503202E
:106BC00000F0A2FA01F0EAFD10490968C1F30321BF
:106BD0000F4A515C01F01F0120FA01F40B480068D4
:106BE00000F00F001146085C00F01F0024FA00F0CE
:106BF00008490860084804600F2000F00FF808B149
:106C0000012010BD00F016FA0020FAE718440258DF
:106C100004CF04903800002434000024F0B58BB079
:106C20000446102C0AD200222146362000F02EFA0B
:106C3000362000F017FA1C48046002E001200BB077
:106C4000F0BD00BF1948006840F010001749086007
:106C50000846006800F01000019000BF00BF02A9C4
:106C600003A801F01BFD089E1EB901F073FD054647
:106C700002E001F06FFD45000D48B5FBF0F0471E46
:106C80000C480D49086040F2E7310B48C16047608D
:106C900000210161816002F09BFB18B9064802F0F7
:106CA000E5FBCCE70120CAE72C000024E8440258A9
:106CB00040420F00001000403409002470B5044623
:106CC0000E46154600BF94F8A000012801D102200D
:106CD00070BD012084F8A00000BF022084F8A1004C
:106CE00005EB850101EBC50204F1380101EB8200DF
:106CF00034223146FBF788FB2A463146204603F012
:106D00007FFD01202168486284F8A10000BF0020B7
:106D100084F8A00000BF00BFDAE770B504460CB9E4
:106D2000012070BD94F8A10028B9002084F8A000CB
:106D3000204600F057F8022084F8A10020688069FE
:106D400020F0704021688861D4E901010843E168BE
:106D500008432169084321688969084321688861DB
:106D6000A08A0504A069284321688860A08B0504D7
:106D7000206A28432168C860A08C0504A06A2843C3
:106D800021680861A08D0504206B284321684861B3
:106D900094F83500050294F8360006042068C06AAD
:106DA00000F07F402168C86246EA050094F834107C
:106DB00008432168C96A08432168C8622068406B9B
:106DC00040F00600216848632068806940F00100B7
:106DD000216888610020C4F8A400012084F8A10083
:106DE00000209EE710B5B8B00446142132A8FBF786
:106DF00032FBC02102A8FBF72EFB404920688842E5
:106E00007AD141040020CDE9021005200C907821B0
:106E10000D9102210E910F91142110914FF40061F8
:106E2000119100211291139102A800F0F3FB08B117
:106E3000FCF77DFB00BF3248006840F00800304995
:106E400008600846006800F00800019000BF00BF1D
:106E500000BF081F006840F48060091F08600846F2
:106E6000006800F48060019000BF00BF00BF0846CA
:106E7000006840F4007008600846006800F4007084
:106E8000019000BF00BF00BF0846006840F480705A
:106E900008600846006800F48070019000BF00BFE1
:106EA000FF20329002203390002034900320359050
:106EB0000E20369032A91348FFF752FD4FF6FF70AF
:106EC00032900220339000203490032035900E2021
:106ED000369032A90C48FFF743FD4FF470403290D2
:106EE0000220339000203490032035900E203690FD
:106EF00032A90648FFF734FD38B010BD001000502D
:106F0000E444025800280258002402580020025885
:106F10002DE9F04104460E46174600BF94F8A00044
:106F2000012802D10220BDE8F081012084F8A000F0
:106F300000BF022084F8A10007EB870000EBC70127
:106F400004F1380000EB81056E623A46294620467E
:106F500003F056FC01202168486284F8A10000BFBC
:106F6000002084F8A00000BF00BFDCE74178154A8C
:106F7000116014490831096821F00101114A0832F1
:106F80001160121F41681160017B0907C27A41EA52
:106F90000261827A41EAC241427B41EA8241827BBC
:106FA00041EA4241C27B41EA0241427A41EA02217E
:106FB000027A41EA420102781143024A0832116022
:106FC0007047000098ED00E000BF00BF00BFBFF3B6
:106FD0005F8F00BF00BF00BF0548006820F480300D
:106FE00003490860002002497031086070470000C2
:106FF00024ED00E040F001010D4A11600C497039A8
:10700000096841F480310A4A703A116000BF00BF3C
:1070100000BFBFF34F8F00BF00BF00BF00BF00BF66
:1070200000BFBFF36F8F00BF00BF00BF70470000FD
:1070300094ED00E008B500BF0948006840F0020088
:10704000074908600846006800F00200009000BF91
:1070500000BF00220F21901E00F018F808BD0000AC
:10706000F44402580146084600280DDB00BF00BF6B
:1070700000F01F0301229A4043099B0003F1E02323
:10708000C3F8002100BF00BF00BF70472DE9F05FCB
:1070900080460D46164607F01DF8074639462A4633
:1070A000334601F00700C0F1070ABAF1040F02D914
:1070B0004FF0040A01E0C0F1070AD14600F1040ACA
:1070C000BAF1070F02D24FF0000A01E0A0F1030A63
:1070D000D4464FF0010A0AFA09FAAAF1010A0AEAAB
:1070E000020A0AFA0CFA4FF0010B0BFA0CFBABF197
:1070F000010B0BEA030B4AEA0B042146404606F05B
:10710000F1FFBDE8F09F000000BF00F00702064B52
:1071100019684FF6FF031940044B0B4343EA022161
:10712000014B196000BF70470CED00E00000FA054C
:1071300070B5044615480068C0F3800048B913488C
:10714000006800F00700A04201D0012070BD0020BF
:10715000FCE70E48006820F0070020430B49086058
:10716000FFF71AFD054607E0FFF716FD401BB0F5D7
:107170007A7F01D90120E9E7044808380068C0F3A4
:1071800040300028F0D00020E0E700000C48025812
:1071900010B501F0B9FA05490968C1F30211044AB2
:1071A000515C01F01F01C84010BD0000204402588E
:1071B00004CF049070B50146844D2D6805F003039B
:1071C000824D2D68C5F30530804D2D1D2D68C5F30A
:1071D00000147E4D14352D68C5F3CC0515FB04F560
:1071E00001EE105AB8EE411AF0EE410A00286FD0B5
:1071F00023B1012B4ED0022B6BD16BE0734D283D98
:107200002D68C5F340153DB3704D283D2D68C5F37D
:10721000C1066F4D25FA06F201EE102AF8EE411A6A
:1072200001EE100AB8EE411A81EE812A9FED691A2B
:10723000C0EE811A654D10352D68C5F3080501EEC5
:10724000105AB8EE411A31EE811AF7EE001A31EEFB
:10725000211A22EE010A1CE001EE100AB8EE411AD2
:10726000DFED5D1A81EE812A9FED5A1AC0EE811A78
:10727000564D10352D68C5F3080501EE105AB8EECD
:10728000411A31EE811AF7EE001A31EE211A22EE80
:10729000010A5BE001EE100AB8EE411ADFED4F1A69
:1072A00081EE812A9FED4B1AC0EE811A474D1035B1
:1072B0002D68C5F3080501EE105AB8EE411A31EEFB
:1072C000811AF7EE001A31EE211A22EE010A3DE092
:1072D00077E01DE001EE100AB8EE411A9FED402A5A
:1072E000C2EE011A9FED3B1A80EE812A374D103510
:1072F0002D68C5F3080501EE105AB8EE411A32EEBA
:10730000011AB7EE002A31EE021A21EE810A1DE0C1
:1073100001EE100AB8EE411ADFED301A81EE812A33
:107320009FED2C1AC0EE811A284D10352D68C5F33B
:10733000080501EE105AB8EE411A31EE811AF7EE47
:10734000001A31EE211A22EE010A00BF00BF1F4DC4
:1073500010352D68C5F3462501EE105AB8EE411AD6
:10736000F7EE001A31EE211AC0EE011ABCEEE11A56
:1073700081ED001A154D10352D68C5F3064501EE57
:10738000105AB8EE411AF7EE001A31EE211AC0EE8B
:10739000011ABCEEE11A81ED011A0C4D10352D6871
:1073A000C5F3066501EE105AB8EE411AF7EE001A61
:1073B00031EE211AC0EE011ABCEEE11A81ED021A7B
:1073C00003E000250D604D608D6070BD28440258BB
:1073D0000090D003000000460024744C0024744A3E
:1073E00020BCBE4B70B50146844D2D6805F00303EB
:1073F000824D2D68C5F30550804D2D1D2D68C5F3B8
:1074000000247E4D1C352D68C5F3CC0515FB04F515
:1074100001EE105AB8EE411AF0EE410A00286FD082
:1074200023B1012B4ED0022B6BD16BE0734D283D65
:107430002D68C5F340153DB3704D283D2D68C5F34B
:10744000C1066F4D25FA06F201EE102AF8EE411A38
:1074500001EE100AB8EE411A81EE812A9FED691AF9
:10746000C0EE811A654D18352D68C5F3080501EE8B
:10747000105AB8EE411A31EE811AF7EE001A31EEC9
:10748000211A22EE010A1CE001EE100AB8EE411AA0
:10749000DFED5D1A81EE812A9FED5A1AC0EE811A46
:1074A000564D18352D68C5F3080501EE105AB8EE93
:1074B000411A31EE811AF7EE001A31EE211A22EE4E
:1074C000010A5BE001EE100AB8EE411ADFED4F1A37
:1074D00081EE812A9FED4B1AC0EE811A474D183577
:1074E0002D68C5F3080501EE105AB8EE411A31EEC9
:1074F000811AF7EE001A31EE211A22EE010A3DE060
:1075000077E01DE001EE100AB8EE411A9FED402A27
:10751000C2EE011A9FED3B1A80EE812A374D1835D5
:107520002D68C5F3080501EE105AB8EE411A32EE87
:10753000011AB7EE002A31EE021A21EE810A1DE08F
:1075400001EE100AB8EE411ADFED301A81EE812A01
:107550009FED2C1AC0EE811A284D18352D68C5F301
:10756000080501EE105AB8EE411A31EE811AF7EE15
:10757000001A31EE211A22EE010A00BF00BF1F4D92
:1075800018352D68C5F3462501EE105AB8EE411A9C
:10759000F7EE001A31EE211AC0EE011ABCEEE11A24
:1075A00081ED001A154D18352D68C5F3064501EE1D
:1075B000105AB8EE411AF7EE001A31EE211AC0EE59
:1075C000011ABCEEE11A81ED011A0C4D18352D6837
:1075D000C5F3066501EE105AB8EE411AF7EE001A2F
:1075E00031EE211AC0EE011ABCEEE11A81ED021A49
:1075F00003E000250D604D608D6070BD2844025889
:107600000090D003000000460024744C0024744A0B
:1076100020BCBE4B2DE9F04104460025A8464FF0A2
:107620000062D4E900101140002013465940404048
:10763000014331D1A06E48B1B0F5801F0DD0B0F537
:10764000001F11D0B0F5401F16D114E0F9480068B2
:1076500040F40030F749086010E0022104F108000E
:1076600003F0F2FF054609E0022104F1280004F0CE
:107670009DF8054602E001E0012500BF00BF55B9B5
:10768000EC482430006820F44010A16E0843E9491A
:107690002431086000E0A8464FF48073D4E900105C
:1076A000194000205940404001432ED1A06D0528CB
:1076B0001BD2DFE800F0030A11181900DD4800684A
:1076C00040F40030DB49086011E0002104F10800BB
:1076D00003F0BAFF05460AE0002104F1280004F097
:1076E00065F8054603E002E001E0012500BF00BFA8
:1076F00055B9D0482430006820F00700A16D084338
:10770000CC492431086000E0A8464FF40073D4E966
:1077100000101940002059404040014334D1E06D31
:10772000802818D003DC40B140281DD10CE0C028CF
:1077300018D0B0F5807F17D115E0BE48006840F43E
:107740000030BC49086011E0002104F1080003F09A
:107750007BFF05460AE0002104F1280004F026F82A
:10776000054603E002E001E0012500BF00BF55B976
:10777000B0482430006820F4E070E16D0843AD4962
:107780002431086000E0A8464FF48063D4E900107B
:107790001940002059404040014339D1D4F8A80095
:1077A000B0F5800F1AD004DC50B1B0F5001F1ED127
:1077B0000DE0B0F5C00F18D0B0F5000F17D115E0EF
:1077C0009C48006840F400309A49086011E00021AC
:1077D00004F1080003F038FF05460AE0002104F137
:1077E000280003F0E3FF054603E002E001E0012585
:1077F00000BF00BF5DB98F482C30006820F46000E6
:10780000D4F8A81008438B492C31086000E0A84642
:107810004FF40062D4E90010114000201346594093
:107820004040014339D1D4F8AC00B0F1007F1AD008
:1078300004DC50B1B0F1807F1ED10DE0B0F1407F8B
:1078400018D0B0F1806F17D115E07A48006840F485
:1078500000307849086011E0002104F1080003F0CD
:10786000F3FE05460AE0002104F1280003F09EFF24
:10787000054603E002E001E0012500BF00BF5DB95D
:107880006C482C30006820F0E060D4F8AC1008435D
:1078900068492C31086000E0A8464FF00073D4E935
:1078A00000011840002158404940084328D1E06CAD
:1078B000A8B1102804D0202809D0302810D10DE01C
:1078C0005C48006840F400305A4908600AE0022130
:1078D00004F1080003F0B8FE054603E002E001E011
:1078E000012500BF00BF55B952482030006820F084
:1078F0003000E16C08434F492031086000E0A846A1
:107900004FF48053D4E90010194000205940404002
:10791000014337D1206EB0F5005F1AD004DC50B1BE
:10792000B0F5805F1ED10DE0B0F5405F18D0B0F526
:10793000804F17D115E03F48006840F400303D49C2
:10794000086011E0002104F1080003F07DFE054607
:107950000AE0002104F1280003F028FF054603E0B7
:1079600002E001E0012500BF00BF55B931482430D5
:10797000006820F4E040216E08432E49243108605D
:1079800000E0A8464FF40053D4E90010194000204D
:1079900059404040014335D1606EB0F5403F1ED0A4
:1079A00007DC68B1B0F5803F0BD0B0F5003F19D1CE
:1079B0000EE0B0F5802F13D0B0F5A02F12D110E05B
:1079C00012E0012104F1080003F03EFE05460BE041
:1079D000012104F1280003F0E9FE054604E003E07C
:1079E00002E001E0012500BF00BF55B91148243075
:1079F000006820F4E020616E08430E4924310860DD
:107A000000E0A8464FF48043D4E90001184000216B
:107A100058404940084337D1D4F8B000B0F1405F36
:107A200020D009DC78B1B0F1805F0DD0B0F1005FFB
:107A30001BD110E02C440258B0F1804F13D0B0F1AC
:107A4000A04F12D110E012E0012104F1080003F070
:107A5000FBFD05460BE0012104F1280003F0A6FE22
:107A6000054604E003E002E001E0012500BF00BF9D
:107A70004DB9FE48006820F0E040D4F8B01008434B
:107A8000FA49086000E0A8464FF40042D4E900102B
:107A900011400020134659404040014329D1206F36
:107AA000B0B1B0F1805F03D0B0F1005F11D108E058
:107AB000EE482C38006840F40030EC492C3908605E
:107AC00009E0012104F1080003F0BEFD054602E0D3
:107AD00001E0012500BF00BF55B9E448083800683F
