:0200000490006A
:1020000078230224712300909D8600906F7F0090BA
:1020100089860090592B00906D9E00900000000072
:10202000000000000000000000000000B12200904D
:102030004D300090000000000D230090698D00904D
:102040008F2300908F2300908F2300908F23009088
:102050008F2300908F2300908F2300908F23009078
:102060008F2300908F2300908F230090B52B00903A
:102070008F2300908F2300908F2300908F23009058
:102080008F2300908F2300908F2300907130009059
:102090008F2300907D3000908F2300908F2300903D
:1020A0008F2300908F2300908F2300908F23009028
:1020B0008F2300908F2300908F2300908F23009018
:1020C0008F2300908F2300908F2300908F23009008
:1020D0008F230090619E00908F2300908F230090AB
:1020E0008F2300908F230090000000008F2300902A
:1020F0008F2300908F2300908F2300908F230090D8
:102100008F2300908F2300908F2300908F230090C7
:102110008F2300908F2300904D8F00908F2300908D
:102120008F2300908F2300908F2300908F230090A7
:102130008F2300908F2300908F2300908930009090
:10214000000000000000000000000000000000008F
:102150008F2300908F2300908F2300908F23009077
:102160008F2300908F2300908F2300908F23009067
:102170008F2300908F2300908F2300908F23009057
:102180008F2300908F2300908F2300908F23009047
:102190008F2300908F2300908F2300908F23009037
:1021A0008F2300908F230090C12B00908F230090ED
:1021B0008F2300908F2300908F2300908F23009017
:1021C0008F2300908F2300908F2300908F23009007
:1021D0008F2300908F2300908F2300908F230090F7
:1021E0008F2300908F2300908F2300908F230090E7
:1021F0008F2300908F2300908F2300908F230090D7
:102200008F2300908F2300908F2300908F230090C6
:102210008F2300908F2300908F2300908F230090B6
:102220008F2300908F2300908F23009000000000E8
:102230008F2300908F230090000000008F230090D8
:102240008F2300908F2300908F2300908F23009086
:102250008F2300908F2300908F2300908F23009076
:102260008F2300908F2300908F2300908F23009066
:102270008F2300908F2300908F2300900000000098
:102280008F2300908F2300908F2300900000000088
:10229000000000008F230090DFF810D000F0F4FB66
:1022A0000048004785B20290AFF3008078230224F3
:1022B0002C4B19680868B0E8F04F80F30988BFF329
:1022C0006F8F4FF0000080F311887047000000000E
:1022D00008480068006880F308884FF0000080F329
:1022E000148862B661B6BFF34F8FBFF36F8F00DF04
:1022F00000BF00BF08ED00E0DFF80C00016841F40A
:1023000070010160704700BF88ED00E0EFF30980C5
:10231000BFF36F8F134B1A681EF0100F08BF20ED2C
:10232000108A20E9F04F106009B44FF0500080F39C
:102330001188BFF34F8FBFF36F8F31F05DF84FF00F
:10234000000080F3118809BC19680868B0E8F04FF4
:102350001EF0100F08BFB0EC108A80F30988BFF39D
:102360006F8F704738000024EFF30580704700003E
:10237000074880470748804707480047FEE7FEE7D1
:10238000FEE7FEE7FEE7FEE7FEE7FEE7FEE7FEE725
:10239000553000902D8E0090992200902DE9F05F2D
:1023A0000546002092469B468846064681464024C4
:1023B0001BE0284641464746224600F0EBF85346CC
:1023C0005A46C01A914110D311461846224600F0D1
:1023D000D2F82D1A67EB01084F4622460120002152
:1023E00000F0C9F817EB00094E41201EA4F10104CA
:1023F000DFDC484631462A464346BDE8F09F0000F0
:10240000004870478C2C109010B5431A934209D2A3
:102410008318881803E010F8011D03F8011D521EEF
:10242000F9D210BD40EA01039B0703D009E008C9B7
:10243000121F08C0042AFAD203E011F8013B00F889
:10244000013B521EF9D210BDD2B201E000F8012BBF
:10245000491EFBD270470022F6E710B513460A4624
:1024600004461946FFF7F0FF204610BD421C10F845
:10247000011B0029FBD1801A704710B5002200E033
:10248000521C835C8C5CA34201D1002BF8D1D8B2E2
:10249000E1B2401A10BD034611F8012B00F8012BE0
:1024A000002AF9D1184670472DE9F0410546002071
:1024B00090460E46044600E0641C44450BD2285D5D
:1024C00000F078F80746305D00F074F8381A02D151
:1024D000295D0029F0D1BDE8F0812DE9F047914652
:1024E0000F4680460446002614F8015B2DB1FFF725
:1024F00087FF0068405DC007F6D12B2D02D02D2D3F
:1025000018D0641E4A463946204600F059F827B1D3
:102510003968A14201D1C7F8008071054FF002046B
:102520000BD54042002803DD07F008FD0460A0073A
:10253000BDE8F08746F48066E4E70028F8DA07F0A3
:10254000FDFC04606FF00040F2E730B50B46014639
:1025500000202022012409E021FA02F59D4205D342
:1025600003FA02F5491B04FA02F52844151EA2F1EC
:102570000102F1DC30BD202A04DB203A00FA02F12E
:10258000002070479140C2F1200320FA03F3194361
:1025900090407047202A04DB203A21FA02F0002103
:1025A000704721FA02F3D040C2F120029140084363
:1025B00019467047A0F14101192900D82030704711
:1025C0002DE9F05F82460078002715468B460AF118
:1025D0000104B946302801D09DB113E014F8010B75
:1025E0000127782803D0582801D045B10AE00DB161
:1025F000102D07D10027102514F8010B02E0082543
:1026000000E00A250026B0460EE005FB080005FBA9
:1026100006F1012701EB10461FFA80F8B6F5803F5E
:1026200000D3B94614F8010B294600F051FA0028EE
:10263000EBDABBF1000F05D00FB1641E00E0544689
:10264000CBF80040B9F1000F06D007F077FC02216B
:102650000160C81EBDE8F09F48EA0640FAE710B5E1
:10266000141E73F1000408DA401C41F100019218B5
:102670005B411A4301D120F0010010BD2DE9F04D5E
:1026800092469B4611B1B1FA81F202E0B0FA80F2B3
:1026900020329046FFF76FFF04460F4640EA0A00DB
:1026A00041EA0B0153465A46084313D0114653EAF8
:1026B000010019D0C8F140025046FFF76BFF0546F4
:1026C0000E46504659464246FFF755FF084305D08F
:1026D000012004E020463946BDE8F08D0020054386
:1026E00046EAE0762C4337430A986305E40AA0EBF8
:1026F00008000022FD0A44EA47540A3002D50020AF
:102700000146E9E7010510196941DDE908450019AD
:102710006941BDE8F04DA2E72DE9FE4F804681EA10
:102720000300C00F0C46009021F0004123F000454B
:10273000B8EB0200A94105D24046214690461C460E
:102740000B46024623F00040104347D0270DC7F345
:102750000A00C3F30A510290401A019040286BDA34
:10276000C3F3130040F4801B0098924620B100236D
:10277000D2EB030A63EB0B0B01985946C0F1400200
:102780005046FFF7F8FE06460D4650465946019A58
:1027900000F08CF910EB08006141002487EA115227
:1027A00084EAE7731A4340D0009A62B3019A012A7F
:1027B0004FEA075215DC001B61EB02014FF00042AB
:1027C00002EA0752CDE90042001C41F58011324671
:1027D0002B46FFF753FF03B0BDE8F08F404621467C
:1027E000F9E7001B61EB0201001C41F580130018A2
:1027F0005B412018A2F5001747EB030140EAD570B2
:10280000B6196D4111E06D084FEA360645EAC0750C
:102810004FEA0752001B61EB0201001C41F58011D9
:1028200049084FEA30000019514132462B4603B0A7
:10283000BDE8F04FFFF713BF0098012240000023CE
:10284000D0EB020263EBE073009821464FEAE0749C
:10285000B8EB000061EB0401E9E783F000435BE7BC
:1028600081F0004158E72DE9FE4F81EA030404F0AE
:10287000004421F0004100944FF0000B23F000438E
:1028800050EA01045ED052EA03045BD0C3F30A5459
:10289000C1F30A552C44A4F2F3340194A0FB025472
:1028A000C1F3130141F48011C3F3130343F4801304
:1028B00001FB024400FB034E840A970A44EA815458
:1028C00047EA8357A4FB076802958D0A05FB078535
:1028D0004FEA932C04FB0C542705029D4FEA06583F
:1028E00047EA1637B5EB08056EEB070C870E920E1C
:1028F00047EA811742EA8312A7FB0201B6EB0B01FC
:1029000064EB00042B0D43EA0C335E1844EB1C50BF
:10291000DA465146E7FB0201C5F313044FEA0B33D5
:1029200043EA14534FEA0432019C43EA0603A4F13C
:102930000C040294009CCDE900B4FFF79FFE03B0A5
:10294000BDE8F08F00200146F9E72DE9F04D81EA5E
:10295000030404F0004B21F0004514464FF0000A38
:1029600023F0004150EA050220D054EA01021DD0B4
:10297000C5F30A570246C5F31303C1F31300C1F3AD
:102980000A5640F4801543F48013A7EB0608101B89
:10299000D64608F2FD3873EB050002D308F10108B2
:1029A00001E092185B41B8F1000F03DA0020014604
:1029B000BDE8F08D00204FF48011064684460EE0FD
:1029C000171B73EB050705D3121B63EB05030643C7
:1029D0004CEA010C49084FEA300092185B4150EA7A
:1029E0000107EDD152EA030012D082EA040083EA23
:1029F0000501084305D0101BAB4106D2012200237C
:102A000006E000224FF0004302E06FF00102531095
:102A10001AEB06004CEB085110EB0A0041EB0B01DE
:102A2000BDE8F04DFFF71BBEC1F30A52C1F313011D
:102A300040F2FF3341F480119A4202DA002001464D
:102A4000704740F233439A42A2F2334202DC5242D0
:102A5000FFF7A0BDFFF78FBD30B5041E71F1000474
:102A600004DB4FF00044404264EB0101141E73F19B
:102A7000000405DB1C464FF00043524263EB0403A5
:102A8000994208BF904230BD064C074D06E0E06811
:102A900040F0010394E8070098471034AC42F6D3A5
:102AA000FFF7FEFB84311090A4311090202A06DB42
:102AB000CB17203A41FA02F043EAE07306E041FA0C
:102AC00002F3D040C2F120029140084319467047FA
:102AD0003A2800D2303820F02002412A01D3A2F156
:102AE0003700884201D34FF0FF30704770B58C1823
:102AF00010F8015B15F0070301D110F8013B2A1112
:102B000006D110F8012B03E010F8016B01F8016BFE
:102B10005B1EF9D12B0705D40023521E0DD401F8FA
:102B2000013BFAE710F8013BCB1A921C03E013F8C3
:102B3000015B01F8015B521EF9D5A142D8D30020F8
:102B400070BD0246002004E01378002B03D0401C27
:102B5000521C8842F8D37047FEE7000030B5FF28CA
:102B600022D0124B0424002213F82250854217D1A0
:102B700002294FF0000004D0032906D004290BD10C
:102B800007E003EB8200C07806E003EB82004078A8
:102B900002E003EB820080780521054AD17030BD48
:102BA000521CD2B2A242DFD3002030BD9444039025
:102BB00030000024014801F087B800000407002419
:102BC000094810B54168890709D50849826842F06B
:102BD00002028260086810B1012129F05BFBBDE8A8
:102BE0001040034800F08CBC001000520800002484
:102BF000F40200241FB5054B0FCB8DE80F0068468B
:102C000029F014FB024948601FBD0000E84303900F
:102C100008000024294A016891423AD0274A183214
:102C2000914236D0254A3032914232D0234A48323E
:102C300091422ED0214A603291422AD01F4A7832E6
:102C4000914226D01D4A9032914222D01B4AA8328E
:102C500091421ED01A4A91421BD0194A1832914211
:102C600017D0174A3032914213D0154A4832914258
:102C70000FD0134A603291420BD0114A7832914200
:102C800007D00F4A9032914203D00D4AA8329142A8
:102C900011D1CAB21823103AB2FBF3F26FF3090153
:102CA000032A02F00703074AD25CC26500D9091D56
:102CB00081650846704721F0FF01F9E710000240E6
:102CC00010040240F843039030B5224A0123016802
:102CD0009142CAB21BD01F4C1434A14217D01D4CD4
:102CE0002834A14213D01B4C3C34A1420FD0194CC4
:102CF0005034A1420BD0174C6434A14207D0154C7C
:102D00007834A14203D0134C8C34A1420CD114214D
:102D1000114C083AB2FBF1F10F4A803201F01F0565
:102D200004EB8101AB4010E00C4D1824103A0D4427
:102D3000B2FBF4F1A82D00D80831094A01F01F04B4
:102D400002EB8101064AA3408032603080E80E0029
:102D500030BD00000854025800580258F0FBFDBF77
:102D60000008024010B50279531E072B2DD8174CCE
:102D70000168A1421BD0154C1434A14217D0134C4A
:102D80002834A14213D0114C3C34A1420FD00F4C37
:102D90005034A1420BD00D4C6434A14207D00B4CEF
:102DA0007834A14203D0094C8C34A14203D10849A4
:102DB000074C443102E00749064C443104EB8202DF
:102DC000C0E91B2101219940416710BD08540258F8
:102DD000FC580258FC08024010B583694FF0C074DB
:102DE000826A0146002053B1B3F5005F15D072B17D
:102DF000012A0CD0022A0AD0032A09D104E01AB110
:102E0000012A06D0022A03D1C96AC90100D50120CE
:102E100010BDC96AA142FAD010BD002AF7D0012A1C
:102E2000F2D0022AF3D0032AF3D010BD2DE9F04FDF
:102E3000804E804FDFF8FC911836DFF8F8A1483754
:102E40000468856D0AF1300ADFF8ECB14C45DFF813
:102E5000ECC1DFF8ECE16DD0B4426BD0544569D0E1
:102E6000BC4267D0DFF8D081A8F11808444561D092
:102E70005C455FD064455DD074455BD0DFF8C481AC
:102E8000444557D0DFF8BC8108F11808444551D0BB
:102E9000DFF8B08108F1300844454BD0DFF8A48159
:102EA00008F14808444545D0DFF8988108F16008EA
:102EB00044453FD0DFF88C8108F17808444539D08B
:102EC000DFF8808108F19008444533D0DFF8748141
:102ED00008F1A80844452DD0DFF86C81444529D07D
:102EE000DFF8648108F11408444523D0DFF85881E5
:102EF00008F1280844451DD0DFF84C8108F13C0852
:102F0000444517D0DFF8408108F15008444511D0FE
:102F1000DFF8348108F1640844450BD0DFF82881DC
:102F200008F17808444505D0DFF81C8108F18C08C9
:102F3000444509D1D0E91948C4F80480C46E1CB1D5
:102F4000D0E91C48C4F8048004684C452ED0B44233
:102F50002CD054452AD0BC4228D0374E183EB4421B
:102F600024D05C4522D0644520D074451ED0354E17
:102F7000B4421BD0334E1836B44217D0314E3036DF
:102F8000B44213D02F4E4836B4420FD02D4E603687
:102F9000B4420BD02B4E7836B44207D0294E90362F
:102FA000B44203D0274EA836B44215D190F85C60E5
:102FB0003F2406F01F06B440AC600468256825F481
:102FC000802525602EE09A600068C160BDE8F08F22
:102FD00099600068C260F9E71B4EB4421BD01A4EDC
:102FE0001436B44217D0184E2836B44213D0164EB9
:102FF0003C36B4420FD0144E5036B4420BD0124E71
:103000006436B44207D0104E7836B44203D00E4E28
:103010008C36B442DAD190F85C60012406F01F06C9
:10302000B4406C60046863608368402B0368CFD150
:10303000C9E700001000024088000240A0000240E2
:10304000B80002401004024008540258704772B69B
:10305000FEE70000054805490839026842F002020F
:10306000026008688004FCD5704700000C480258D4
:10307000014801F0ABBD00005C030024014801F0F1
:10308000A5BD00005C030024014801F09FBD0000C5
:103090005C030024F0B503684FF6FC716D4C426B85
:1030A000D3F884508D4345EA8205C3F88450036801
:1030B00053F8845F068F25F47F0545EA06451D60B9
:1030C000836B654D9F180268D2F888308B4343EAC2
:1030D0008703C2F88830026852F8883F868F23F44D
:1030E000FE0343EA06431360066856F8A03FC26B2E
:1030F0008B4307EB420243EA82033360076857F8C9
:10310000A03FB0F8406023F4FE0343EA06433B606F
:10311000D0E9103603FB06220368D3F8B0608E4373
:1031200046EA8206C3F8B0600368B0F84860D3F896
:10313000B07027F4FE0747EA0646C3F8B060D0E94E
:103140001267036806FB0722D3F8AC608E4346EA99
:103150008206C3F8AC60D0E91467036806FB072257
:10316000D3F8F0608E4346EA8206C3F8F060036845
:10317000B0F85860D3F8F07027F47C1747EA064699
:10318000C3F8F0600368876D53F8C06F02EB470225
:103190008E4346EA820119600168B0F85C20D1F8DC
:1031A000C03023F47C1343EA0242C1F8C020016816
:1031B00090F86020D1F8C03023F07C5343EA0262DB
:1031C000C1F8C020416B04EB8101C166826B01EB49
:1031D00082020267C36B02EBC3024267D0E910347C
:1031E000634302EB83028267D0E91234634302EB4C
:1031F0008302C267D0E91434634302EB8302C0F850
:103200008020836D02EBC303C0F88430C46D826EEE
:10321000544303EB8403C0F88830046E544303EB3B
:103220008402C0F89020AA420AD9D0F89C20032139
:1032300042F02002C0F89C2080F898100120F0BDD8
:10324000002200E004C1D0F890308B42FAD8002070
:10325000F0BD000000AC0040FCD30040F0B5D1E967
:103260000843CD690A68C2B10268254322F4F842D6
:1032700013431D430560D1E90125D1E903364C69AB
:103280002A434568334389691A43EB0B2243DB0326
:103290000A431A4342600020F0BDD1E9012ED1E972
:1032A000036CD1E9057142EA0E0246EA0C0632438C
:1032B0003A430A4301682A4322431A436FF30E013B
:1032C0000A430260E7E7426943F6FE739A4342EA23
:1032D000410141610020704770B591E81C00C96848
:1032E0006FF01F0506691A4305EB441444EA4121B7
:1032F0000A4306EA45431A430261002070BD0000FC
:103300002DE9F04F8B8A6FF00F05264C4FF07F4B65
:10331000D1F80C9004EB03536FF0FF044FEA042A3A
:103320001AB386684FEA09321F4FA2F580521A433A
:103330003E4032438260D1E900278E68521E05EB81
:1033400007150F8A2A43C56804EB06240E7E0AEB94
:10335000074322431A430BEB06610A4305F070430F
:103360001A43C2600020BDE8F08F91E804110F4EAF
:10337000521E0F8A05EB08152A4304EB0C2C06EBB2
:1033800009350E7E42EA0C022A4385680AEB07449F
:1033900022431A430BEB06610A4305F070431A43BC
:1033A0008260DFE70000F0FFFF0F0FFF00F0FFFF7C
:1033B00013B5002807D09DF80410002903D00D2173
:1033C00001AA1CF047FE1CBDFFF714FC144A0021A3
:1033D000144828F099FF144908601EF051FC24F0AD
:1033E00059FE24F081FE11482BF09EFB0F4C206803
:1033F00019F046FC06F060FD04F0C8FD06F016FD6D
:103400000B49A06923F02CFF00230949A0691A4643
:1034100020F0DEFB27F0B6FA052028F0CAFEF9E717
:10342000344503904D8D0090C0000024601A0224A2
:10343000D5D4009070470000F0B590F86020012AC4
:1034400022D0C1EBC102012780F86070022380F80E
:10345000613000EB8202284D138F168EB2F83CC00B
:10346000D46A1B05283244EA064643EA4C530A2C28
:1034700046EA03060AD0092C08D0137B46EA036308
:1034800049B10B2C1AD01DE00220F0BDD36803F027
:103490007F433343F4E701684C6AAC431C434C62FE
:1034A000016813688B6151680A2901D009291BD171
:1034B000D168026821F07F41916215E0118B0F4DB8
:1034C00043EA81430168CC69AC431C43CC61016889
:1034D00013680B6151680A2901D0092904D1D16808
:1034E000026821F07F411162002180F8617080F84C
:1034F00060100846F0BD00000F0033FF0F003FFFD3
:103500002DE9F0470446006800274FF004084FF00B
:10351000010946680568F10714D0E90512D503686A
:1035200023F480730360606E40F0010060662068E1
:10353000C0F8089084F8618084F86070616A09B10D
:1035400020468847B00615D5A80413D52068202248
:10355000036823F40053036020688260606E40F0CB
:103560000200606684F8618084F86070616A09B165
:1035700020468847300715D5280513D5206808222E
:10358000036823F40063036020688260606E40F08B
:103590000400606684F8618084F86070616A09B133
:1035A0002046884770070CD568050AD52068026850
:1035B00022F4806202602068C0F80880204600F093
:1035C00071F8B00713D5A80511D520680222036849
:1035D00023F40073036020688260606E606684F884
:1035E000619084F86070216A09B120468847F0062E
:1035F00012D5E80410D52068016821F480510160DB
:10360000226810219160616E616684F861902046A5
:1036100084F86070FFF70EFFBDE8F0872DE9F041F8
:10362000040004D094F86100002518B107E00120DF
:10363000BDE8F081204684F8605000F035F8184E5F
:10364000022084F861000123D4E90010D4F81CC0E2
:1036500040F207120F6840EA0C0037403843086018
:103660002068A769A168466B39439643314341639B
:103670002068E268016C6FF30F0111430164206858
:10368000218AA28A466B090541EA425126F440127A
:1036900011434163656684F861300020C8E700008B
:1036A000BFFFF8FF7047000008B500680B4988426B
:1036B00012D10B48016841F010010160006800223E
:1036C000052100F0100000905A2002F089F9BDE8B1
:1036D00008405A2002F076B908BD000000100052E0
:1036E000D44402582DE9F84F044601F06DFF0090D4
:1036F0003CB194F83500022806D080216165002095
:10370000E4E00120BDE8F88FC74DC74EC649183523
:1037100020683036DFF81483DFF814938842DFF82E
:1037200014A3DFF814B32ED0A8422CD0B0422AD074
:10373000404528D0484526D0504524D0584522D071
:10374000BD4A183290421ED0BC4A90421BD0BB4AA0
:103750001832904217D0B94A3032904213D0B74A4B
:10376000483290420FD0B54A603290420BD0B34AF3
:103770007832904207D0B14A9032904203D0AF4A9B
:10378000A832904209D1026822F01E02026020682D
:10379000426922F08002426103E0026822F00E02D8
:1037A000026027688F4238464DD0A8424BD0B042C5
:1037B00049D0404547D0484545D0504543D058456D
:1037C00041D09D4A183290423DD09C4A90423AD016
:1037D0009A4A1832904236D0984A3032904232D0CB
:1037E000964A483290422ED0944A603290422AD073
:1037F000924A7832904226D0904A9032904222D01B
:103800008E4AA83290421ED08D4A90421BD08C4ADC
:103810001432904217D08A4A2832904213D0884AF4
:103820003C3290420FD0864A503290420BD0844AAC
:103830006432904207D0824A7832904203D0804A64
:103840008C32974204D1206E026822F480720260AA
:1038500075492068884228D0A84226D0B04224D09A
:10386000404522D0484520D050451ED058451CD058
:1038700071491831884218D07049884215D06F4973
:103880001831884211D06D49303188420DD06B49D2
:103890004831884209D069496031884205D067497A
:1038A0007831884201D065499031016821F00101E9
:1038B00001600EE001F088FE0099401A052808D941
:1038C000202262650321002084F8351084F834003A
:1038D00017E73868C007EDD1534A012120689042AC
:1038E0002ED0A8422CD0B0422AD0404528D04845FE
:1038F00026D0504524D0584522D04F4B18339842FB
:103900001ED04E4B98421BD04C4B1833984217D0C8
:103910004A4B3033984213D0484B483398420FD02B
:10392000464B603398420BD0444B7833984207D0D3
:10393000424B9033984203D0404BA833984208D171
:1039400094F85C703F23A06D07F01F07BB408360B5
:1039500007E094F85C30A06D03F01F0301FA03F355
:103960004360206890424DD0A8424BD0B04249D02D
:10397000404547D0484545D0504543D0584541D0B3
:103980002D4A183290423DD02C4A90423AD02B4AD0
:103990001832904236D0294A3032904232D0274AEB
:1039A000483290422ED0254A603290422AD0234A93
:1039B0007832904226D0214A9032904222D01F4A3B
:1039C000A83290421ED01E4A90421BD01C4A14328C
:1039D000904217D01A4A2832904213D0184A3C32EB
:1039E00090420FD0164A503290420BD0144A6432A3
:1039F000904207D0124A7832904203D0104A8C325B
:103A000090420BD1D4E919024260E06E30B10268F5
:103A100022F480720260D4E91C024260002084F823
:103A2000351084F834006DE6100002405800024062
:103A30007000024088000240A000024010040240D2
:103A4000085402582DE9F05F28B190F8351002298A
:103A500004D0802141650120BDE8F09F904C904B3F
:103A60000168183C18338E4ADFF83C92A1428D4C15
:103A7000DFF838E28E4FDFF83CB2DFF83CA28F4D22
:103A80008F4E31D091422FD099422DD0A1422BD0D0
:103A9000494529D0714527D0B94225D0DFF810C259
:103AA0000CF1180C61451FD0DFF808C2ACF1600CB6
:103AB000614519D0DFF8FCC1ACF1480C614513D069
:103AC000DFF8F0C1ACF1300C61450DD0DFF8E4C196
:103AD000ACF1180C614507D0594505D0514503D0CC
:103AE000A94201D0B1422CD1DFF8B4C14FF0040893
:103AF00080F83580ACF1180C61451DD091421BD087
:103B0000994219D0A14217D0494515D0714513D01B
:103B1000B94211D06648183081420DD065486038EE
:103B2000814209D063484838814205D06148303825
:103B3000814201D05F481838086820F00100086011
:103B4000ABE0D1F800C02CF00E08DFF854C1C1F88A
:103B50000080ACF1180C0168614527D0914225D056
:103B6000994223D0A14221D049451FD071451DD093
:103B7000B9421BD0DFF838C10CF1180C614515D0E3
:103B8000DFF830C1ACF1600C61450FD0DFF824C123
:103B9000ACF1480C614509D0DFF818C1ACF1300C2C
:103BA000614503D0DFF80CC1ACF1180CD1F800C0AE
:103BB0002CF0010CC1F800C0DFF8E4804FF0010CDC
:103BC0000168A8F11808414546D0914244D0994275
:103BD00042D0A14240D049453ED071453CD0B94287
:103BE0003AD0334A1832914236D0324A603A914242
:103BF00032D0304A483A91422ED02E4A303A914241
:103C00002AD02C4A183A914226D0594524D0514501
:103C100022D0A94220D0B1421ED02A4A91421BD0C4
:103C2000284A1432914217D0264A2832914213D0A2
:103C3000244A3C3291420FD0224A503291420BD05A
:103C4000204A6432914207D01E4A7832914203D012
:103C50001C4A8C32914218D1016E0A6822F480729B
:103C60000A6090F85C20816D02F01F020CFA02F2EB
:103C70004A60D0E919124A60C16E31B10A6822F473
:103C800080720A60D0E91C124A600022016D80F83F
:103C900035C080F8342001B188470020DCE6000000
:103CA0002800024058000240700002408800024094
:103CB000A00002407004024088040240A0040240B8
:103CC000B8040240085402582DE9FC5F0446F74E40
:103CD0000020DFF8D88300904FF41652F44808F122
:103CE0001808A56DDFF8C493DFF8C0A3016809F1D7
:103CF000300920680AF1480AB1FBF2F1B0420191A3
:103D00002F68D5F800C0DFF8ACB335D04146884203
:103D100032D0484530D050452ED058452CD0E549BA
:103D20001831884228D0E3493031884224D0E14913
:103D30004831884220D0E04988421DD0DE49183100
:103D4000884219D0DC493031884215D0DA494831EF
:103D5000884211D0DFF860E30EF1600E70450BD0A1
:103D6000D54A7832904207D0D34B9033984203D053
:103D7000D149A83188427DD194F85C20082102F015
:103D80001F0201FA02F23A424AD0B04232D0404514
:103D900030D048452ED050452CD058452AD0C54A61
:103DA0001832904226D0C34A3032904222D0C14AC3
:103DB000483290421ED0C04A90421BD0BE4A1832B0
:103DC000904217D0BC4A3032904213D0BA4A48329F
:103DD00090420FD0B84A603290420BD0B64A783247
:103DE000904207D0B44A9032904203D0B24AA832EF
:103DF000904203D1026802F0040202E0026802F07D
:103E000008026AB1026822F00402026094F85C00C1
:103E100000F01F008140A960606D40F00100606506
:103E200094F85C00012100F01F008140394240D02D
:103E30002068B04234D0404532D0484530D050455B
:103E40002ED058452CD09B4A1832904228D0994AFF
:103E50003032904224D0974A4832904220D0964A3D
:103E600090421DD0944A1832904219D0924A303272
:103E7000904200E0AFE113D08F4A483290420FD019
:103E80008D4A603290420BD08B4A7832904207D0F4
:103E9000894A9032904203D0874AA83290427DD11D
:103EA000406910F0800F04D0A960606D40F00200FE
:103EB000606594F85C00042100F01F0081403942E5
:103EC0003ED02068B04232D0404530D048452ED058
:103ED00050452CD058452AD0764A1832904226D0E8
:103EE000744A3032904222D0724A483290421ED0F8
:103EF000714A90421BD0704A1832904217D06E4AD5
:103F00003032904213D06C4A483290420FD06A4A05
:103F1000603290420BD0684A7832904207D0664AAD
:103F20009032904203D0644AA83290424ED1006849
:103F300010F0020F04D0A960606D40F004006065CD
:103F400094F85C00102100F01F008140394258D0E5
:103F50002068B04234D0404532D0484530D050453A
:103F60002ED058452CD0534A1832904228D0514A6E
:103F70003032904224D04F4A4832904220D04E4AAC
:103F800090421DD04C4A1832904219D04A4A3032E1
:103F9000904215D0484A4832904200E014E00FD0D9
:103FA000454A603290420BD0434A7832904207D063
:103FB000414A9032904203D03F4AA832904207D102
:103FC000006800F0080006E0006872E70068B7E7E4
:103FD000006800F00400A0B1A960206801684903EE
:103FE00004D50068000308D5A16C07E00168C90585
:103FF00003D4016821F008010160216C09B1204659
:10400000884794F85C00202100F01F00814039426D
:1040100079D02068B04232D0404530D048452ED0CB
:1040200050452CD058452AD0224A1832904226D0EA
:10403000204A3032904222D01E4A483290421ED04E
:104040001D4A90421BD01C4A1832904217D01A4A7F
:104050003032904213D0184A483290420FD0164A5C
:10406000603290420BD0144A7832904207D0124A04
:104070009032904203D0104AA832904203D1006897
:1040800000F0100002E0006800F00200B0B3A96088
:1040900094F835000428206801680FD049037ED5C4
:1040A000006800032BD4616C2AE00000100002407D
:1040B00028000024700002401004024021F0160184
:1040C00001602068416921F080014161206C08B9DC
:1040D000A06C20B12068016821F00801016094F80B
:1040E0005C303F21012003F01F0300229940A960AA
:1040F00084F8350084F83420216D65E003E0E16B3D
:1041000009B120468847606D00287DD0606DC007EA
:1041100059D02068042184F83510B0422BD0404596
:1041200029D0484527D0504525D0584523D09D4912
:10413000884220D09B49183188421CD0994930319F
:10414000884218D09849884215D09749183188423A
:1041500011D09549303188420DD093494831884279
:1041600009D091496031884205D08F497831884221
:1041700001D08D499031016821F001010160206872
:104180000099019A491C0091914202D80168C9071F
:10419000F6D10068C00710D003200FE0FFE70168E8
:1041A000C905ACD403680121002223F01003036089
:1041B00084F8351084F83420A1E7012084F8350014
:1041C000002084F83400E16C00291DD002B02046A4
:1041D000BDE8F05F0847754988421DD07349143126
:1041E000884219D071492831884215D06F493C3135
:1041F000884211D06D49503188420DD06B496431ED
:10420000884209D0694900E084E07831884203D0CF
:1042100066498C3188427DD194F85C80042701681E
:1042200008F01F0807FA08F717EA0C0F009746D0A6
:104230004F0744D500980F04686003D5C8033CD4E9
:10424000A16CC1E7880638D42068B0422DD055490A
:104250006039884229D0484527D0504525D0584557
:1042600023D05049884220D04E49183188421CD072
:104270004C493031884218D04B49884215D04A49C0
:104280001831884211D04849303188420DD0464912
:104290004831884209D0704507D0904205D09842F5
:1042A00003D04149A831884203D1016821F00801B7
:1042B00002E0016821F004010160216C84E702271B
:1042C00007FA08F717EA0C0F00974ED08F074CD566
:1042D00000980F04686003D5C80344D4616C73E789
:1042E000880640D42068B0422FD02E4960398842D9
:1042F0002BD0484529D0504527D0584525D02949AD
:10430000884222D02749183188421ED025493031B1
:10431000884200E044E018D02349884215D0224961
:104320001831884211D02049303188420DD01E49C1
:104330004831884209D0704507D0904205D0984254
:1043400003D01949A831884203D1016821F0140132
:1043500002E0016821F00A010160012184F83510B2
:10436000002084F83400E16B2EE7082202FA08F2FC
:1043700012EA0C0F14D0090712D5016821F00E01C2
:10438000016094F85C100120002201F01F0100FA86
:1043900001F16960606584F8350084F8342012E723
:1043A000BDE8FC9F880002401004024008540258F7
:1043B0002DE9F05F044601F007F9002C07467DD097
:1043C000E34E022120684FF00308DFF888934FF096
:1043D0000005DFF884A3B042DFF880B334D0DC4AB4
:1043E0001832904230D048452ED050452CD05845F8
:1043F0002AD0DA4A1832904226D0D84A3032904237
:1044000022D0D64A483290421ED0D54A90421BD084
:10441000D34A1832904217D0D14A3032904213D04A
:10442000CF4A483290420FD0CD4A603290420BD0F2
:10443000CB4A7832904207D0C94A9032904203D09A
:10444000C74AA83290427DD184F83510B04284F832
:1044500034502ED0BE49183188422AD0484528D041
:10446000504526D0584524D0BC491831884220D028
:10447000BA49303188421CD0B8494831884218D0F6
:10448000B749884215D0B6491831884211D0B4498D
:10449000303188420DD0B2494831884209D0B04904
:1044A0006031884205D0AE497831884201D0AC49AC
:1044B0009031016821F00101016008E027E100BFAF
:1044C00001F082F8C01B052801D920211CE12068D9
:1044D0000068C007F4D104F108002168D4E9053C64
:1044E0008E4685C809681043D4E907281F43636ACC
:1044F00038439C4F40EA0C001043394040EA080022
:10450000042B40EA010003D1D4E90B121143084304
:10451000954909686FF30F01B1F1005F0FD361682E
:10452000A1F12902052A08D9163A032A05D9083A21
:10453000012A02D94F39032901D840F48010CEF85E
:10454000000000E023E02068676A4069042F20F043
:10455000070047EA00070DD1D4E90A01074349B132
:104560002046FEF739FC28B140206065012184F81F
:104570003510CCE0206847612046FEF74BFB94F8ED
:104580005C203F2102F01F029140816054E0774A95
:1045900090421BD0754B1433984217D0734B28337D
:1045A000984213D0714B3C3398420FD06F4B50332D
:1045B00098420BD06D4B6433984207D06B4B7833E5
:1045C000984203D0694B8C3398427DD184F83510E2
:1045D00084F83450664B0168A26801EA030E402A51
:1045E00073D0802A72D00022D4E90378D4E905314F
:1045F00042EAD70242EAD8085C4AD4E9077C48EA92
:10460000D30848EAD10141EAD701524241EA1C11DC
:10461000142341EA0E01016020681044B0FBF3F05E
:104620008000E0652046FEF7F5FA94F85C20012151
:1046300002F01F02914041602068B04257D04449C7
:104640001831884253D0484551D050454FD0584535
:104650004DD042491831884249D0404930318842D2
:1046600045D03E494831884241D03D4988423ED0FC
:104670003B49183188423AD039493031884236D0E6
:1046800037494831884232D03549603188422ED08E
:104690003349783188422AD031499031884226D036
:1046A0002F49A831884222D0304988421FD02F4953
:1046B000143188421BD02D492831884217D02B490C
:1046C0003C31884213D002E01DE017E018E0274992
:1046D000503188420BD025496431884207D02349A4
:1046E0007831884203D021498C31884229D1204633
:1046F000FEF7EAFAA06880280CD00CE0102273E7DD
:104700004FF4804270E74021616584F835800120D4
:10471000BDE8F09F6560216E20790860D4E9190139
:1047200041606068401E072808D82046FEF71AFB43
:10473000E06E0560D4E91C01416002E0E566256792
:1047400065670120656584F835000020E0E700001A
:104750001000024040000240580002407000024039
:10476000100402403F8010FE0010005C0854025804
:104770000F00FEFF2DE9F84F04008C464FF00000BB
:10478000009014D094F83400012812D094F83550D9
:104790000120002184F83400012D0CD0C002606596
:1047A0000120009084F834100098BDE8F88F0120B3
:1047B000FBE70220F9E78C4D0226206884F835607B
:1047C000A8428A4D61658A4E8A4FDFF82C82DFF855
:1047D0002C92DFF82CA2DFF82CB226D0A84224D0ED
:1047E000B04222D0B84220D040451ED048451CD00F
:1047F00050451AD0584518D08349884215D082496F
:104800001831884211D08049303188420DD07E491C
:104810004831884209D07C496031884205D07A49C4
:104820007831884201D078499031016821F0010146
:10483000016061462046FEF7F9FA6B49206888421C
:104840002CD0A8422AD0B04228D0B84226D0404529
:1048500024D0484522D0504520D058451ED06A4A21
:1048600090421BD0684A1832904217D0664A3032C4
:10487000904213D0644A483290420FD0624A60326C
:1048800090420BD0604A7832904207D05E4A903214
:10489000904203D05C4AA83290420CD1026822F0C8
:1048A0001E0242F016020260206C88B12068026885
:1048B00042F008020BE0026822F00E0242F00A0207
:1048C0000260206C20B12068026842F0040202609D
:1048D000206888424BD0A84249D0B04247D0B84265
:1048E00045D0404543D0484541D050453FD058453C
:1048F0003DD0454A90423AD0434A1832904236D091
:10490000414A3032904232D03F4A483290422ED013
:104910003D4A603290422AD03B4A7832904226D0BB
:10492000394A9032904222D0374AA83290421ED063
:10493000364A90421BD0354A1432904217D0334A3F
:104940002832904213D0314A3C3290420FD02F4A45
:10495000503290420BD02D4A6432904207D02B4AFD
:104960007832904203D0294A8C3290420DD1206E89
:104970000268D20303D5026842F480720260E06EDE
:1049800018B1026842F4807202602068884226D022
:10499000A84224D0B04222D0B84220D040451ED0F8
:1049A00048451CD050451AD0584518D01649884261
:1049B00015D015491831884211D013493031884239
:1049C0000DD011494831884209D00F4960318842E1
:1049D00005D00D497831884201D00B4990310168EA
:1049E00041F001010160DFE61000024028000240B2
:1049F000400002405800024070000240880002401F
:104A0000A0000240B80002401004024008540258BE
:104A100070B5044600F0D8FD0546601C02D004487D
:104A20000078044400F0D0FD401BA042FAD370BDD2
:104A30001C0000247047704770470000F0B590F8E4
:104A400098500024022D04D0D0F89C1041F00801A9
:104A500029E0402905D0412929D0056D8D4219D979
:104A600042E00568D5F8A06016F4FE0F12D0D5F824
:104A7000A460760613D0D5F8A460F60105D5D5F864
:104A8000A06016F0004F00D50124D5F8A470466F41
:104A9000456C24E0D0F89C1041F0200103E0D0F8F0
:104AA0009C1041F48071C0F89C100120F0BD056895
:104AB000D5F8B06016F4FE0FECD0D5F8B4607606E9
:104AC000EDD0D5F8B460F60105D5D5F8B06016F094
:104AD000004F00D50124D5F8B470866FC56CC7F3BC
:104AE00005273C44654302E0456DC66F4D4306EB28
:104AF00085052E6816F0804656602E6836D026F062
:104B000060461660D5F800C000262E4F0CF0005C01
:104B1000C2F808C0D5F800C00CF0004CC2F810C0B4
:104B2000B5F804C01FFA8CFCC2F81CC0D5F804C04C
:104B3000CCF3034CC2F80CC0D5F804C00CF4801CB4
:104B4000C2F814C0D5F804C00CF4001CC2F818C098
:104B5000D5F804C0CCF3066CC2F820C0D5F804C068
:104B600008354FEADC7CC2F824C008E0C6F38A4668
:104B7000C7E700BF15F806C003F806C0761CD2F8D8
:104B80000CC017F80CC0B445F4D840290AD041290C
:104B90000CD020294FF001020CD200688A40C0F8E6
:104BA00098200DE00068C0F8A84009E00068C0F84F
:104BB000B84005E0006801F01F018A40C0F89C2061
:104BC0000020F0BD00440390704700002DE9FF5F16
:104BD000DFF80CB304460BF10401DBF80000256894
:104BE0000F68AA468007D5F85090696DD5F85080B7
:104BF0006E6D2A6DD5F854C02B6D00EA8770009059
:104C000009F470496F6D286D01EA09010191DAF824
:104C10005410DAF85490DAF8505008F00F0806EA09
:104C20000806029602F0F00203F071536FEA0906DB
:104C30001F4000F060700CEA020CCDF80CC0F205C9
:104C400001EA00090CD4E843C00509D400214FF45F
:104C50008073CAF85030CBF800102046FFF7B4FF3D
:104C6000700512D4E84340050FD4206800234FF4A8
:104C70008068D0F8DC20D0F8E410C0F85080CBF881
:104C800000301140204600F0DBFADFF858A200980F
:104C900050B12268830F00EA0A001065CBF800309B
:104CA00020460099FFF7C6FE019850B12268830F95
:104CB00000EA0A001065CBF800302046019900F0A8
:104CC000C1FA029850B12268830F00EA0A00106509
:104CD000CBF800302046029900F087FA039850B1D3
:104CE0002268830F00EA0A001065CBF800302046E6
:104CF000039900F085FA30050CD4E843000509D487
:104D0000236800204FF400621A65CBF800002046AB
:104D100000F099FAB00512D4E84380050FD420685A
:104D200000234FF40078D0F8D820D0F8E010C0F875
:104D30005080CBF800301140204600F082FA30035A
:104D40000CD4E843000309D4236800204FF4002268
:104D50001A65CBF80000204600F046FAF0030CD4A8
:104D6000E843C00309D4236800204FF480321A6559
:104D7000CBF80000204600F062FA70030CD4E84340
:104D8000400309D4226800204FF480231365CBF838
:104D90000000204600F052FAB0030FD4E84380032D
:104DA0000CD4236800204FF400321A65CBF80000C1
:104DB000D4F89C0040F08000C4F89C00B9F1000FCA
:104DC0000BD022684FEA997309EA0A001065CBF804
:104DD000003049462046FFF72FFE5FB12268BB0F27
:104DE00007EA0A001065CBF80030D4F89C0038437D
:104DF000C4F89C003C492068884268D160688146BC
:104E00008068800763D0D9F82060D9F82410D9F8D9
:104E10002080D9F82400D9F820C0D9F82470D9F816
:104E20002030D9F82450D9F8202003F4FC4306F0B0
:104E30000F0AD9F824601D40D9F824B008F03008D2
:104E40000CF4C07C02F4F02211EA0A0100EA08081E
:104E500007EA0C0706EA0206D9F820A004D0C9F830
:104E60002010204600F0E7F9B8F1000005D0616895
:104E700008624146204600F0E0F96FEA0B00400668
:104E80000ED46FEA0A0040060AD460684021C36B62
:104E9000C26B01622046190C02F03F0200F0CCF90F
:104EA0002FB1606807623946204600F0C3F935B17A
:104EB00060680562D4F89C002843C4F89C0036B1B1
:104EC00060680662D4F89C003043C4F89C00D4F8B3
:104ED0009C00002802D02046FFF7ADFDBDE8FF9FF3
:104EE00010A80040FFFFCF3F00A000402DE9F04197
:104EF00094B08D494C2204466846FDF785FA64B1AA
:104F00008A4D2068A84202D100F58070606094F854
:104F100098004FF0000820B108E0012014B0BDE86F
:104F2000F081204684F8998000F002F920688169B8
:104F300021F01001816100F047FB0327064604E0E1
:104F400000F042FB801B0A2811D820688069000706
:104F5000F6D42068816941F00101816100F034FBE1
:104F600006460DE000F030FB801B0A2808D9D4F873
:104F70009C0040F00100C4F89C0084F89870CCE7D5
:104F800020688069C007EDD02068816941F0020186
:104F90008161207C01282068816937D041F040017F
:104FA0008161607C01282068816932D021F48041D0
:104FB0008161A07C0128206881692DD041F4805155
:104FC00081612068A268816921F440711143816187
:104FD0002068816921F0A40181612068016921F0C4
:104FE00010010161E068012819D010B302281BD01C
:104FF0002068816941F0800181612068016941F088
:1050000010010161E06803280ED012E021F0400198
:10501000C6E741F48041CBE721F48051D0E7206816
:10502000816941F0040103E02068816941F02001B9
:105030008161207E6FF0FF02D4E90773A68A110216
:10504000400602EB0727A0F10070384327685B1E7B
:10505000184301EB06463043F861A068B0F5407F85
:1050600011D104F12800A68C6FF00F0C89C801EB58
:105070000641401E02EB0322104322680CEB07138B
:1050800018430843D060206E30B12068626ED0F8BB
:10509000C0101143C0F8C010D4E917126846D142BD
:1050A00009D02168A36E51F8C82F50F8233022F0A0
:1050B00007021A430A60216C49B12168626C51F8F9
:1050C000BC3F50F8226023F0070232430A60A16C13
:1050D00051B12168E36C51F8BC2F50F8233022F015
:1050E000700242EA03120A60216D51B12168626DBB
:1050F00051F8BC3F50F8220023F4E06242EA00205D
:1051000008602068A84204D16068816821F003012A
:105110008160C4F894800121C4F89C8084F89810C0
:105120002046FDF7B7FFF9E61044039000A00040C9
:1051300010B5B6B00446142130A8FDF78CF9C02193
:105140006846FDF788F925492068884244D1002047
:105150001C904FF40041CDE90010684600F0F2FDCC
:1051600008B1FDF774FF1E48016841F480710160C9
:10517000006800F48070359019480C38016841F0DF
:105180000101016000680DF1C00C022100F0010076
:1051900035900122032309244FF4C0508CE81F00EE
:1051A000104830A900F0E2F800220521132000F099
:1051B00017FC132000F006FC00220521152000F04A
:1051C0000FFC152000F0FEFB002205213F2000F01F
:1051D00007FC3F2000F0F6FB36B010BD00A00040F9
:1051E000EC44025800000258704700B5C9078DB062
:1051F00004D040216A460AABFFF720FC0DB000BD89
:10520000704790F89810012907D0D0F89C1041F011
:105210000401C0F89C1001207047022180F898100A
:10522000002201688B6923F001038B61C0F89C2088
:105230001046704770477047704770477047704717
:1052400070477047704770472DE9F043B7B014219D
:105250006846FDF700F93C480168002970D14FF01D
:105260000108C0F80080C02106A8FDF7F4F800206E
:1052700018904FF080710746CDE9061006A800F09F
:1052800061FD08B1FDF7E3FE3048016841F480514B
:105290000160006802250C26694600F480500590E4
:1052A00040F2FF608DE8A10003242948CDE90346C0
:1052B00000F05CF8DFF89C9069468DE8B000CDE91D
:1052C0000346484600F052F84FF47F4069468DE8A7
:1052D000A1002148CDE9034600F048F8474648F2CE
:1052E00037108DE8A1001D486946CDE9034600F05E
:1052F0003DF84CF2037069468DE8A1001848CDE9ED
:10530000034600F033F84FF63F0069468DE8A100F0
:105310001448CDE9034600F029F80D2069468DE8D0
:10532000A1001148CDE9034600F020F84FF6807047
:1053300069468DE8A100CDE90346484600F016F81D
:1053400037B0BDE8F083000010000024D4440258B8
:105350000020025800100258001C02580018025881
:10536000000C025800140258000802582DE9F84FAA
:1053700003247D4D00234FF001094FF0B04B4FF057
:105380000F0AE9E009FA03F73A4076D00E7906F001
:105390000306012E01D0022E18D1D0F808C04FEA22
:1053A000430ECE6804FA0EF82CEA080C06FA0EF644
:1053B00046EA0C068660D0F804C00E792CEA070C89
:1053C000C6F300169E4046EA0C0646600E79F64388
:1053D000B6070BD0C6684FEA43088F6804FA08FC8A
:1053E00026EA0C0607FA08F73743C7600E7906F07D
:1053F0000306022E12D1DE080F694FEA437C00EB50
:105400008606B646366A4FEADC6C0AFA0CF807FAEA
:105410000CF726EA08063743CEF820700F790668A5
:105420004FEA430807F0030704FA08FC07FA08F7F5
:1054300026EA0C06374307604E6816F4403F1CD03E
:105440004A4E376847F00207376036689F0706F014
:105450000206009623F0030606F1B046B6463F0F5B
:10546000D6F80864DFF808810AFA07FC404526EA06
:105470000C0603D14FF0000C41E06CE0DFF8F4C003
:10548000604502D14FF0010C39E0DFF8ECC0604517
:1054900002D14FF0020C32E0DFF8E0C0604502D1EB
:1054A0004FF0030C2BE0DFF8D8C0604502D14FF07D
:1054B000040C24E0DFF8CCC0604502D14FF0050CAD
:1054C0001DE0DFF8C4C0604502D14FF0060C16E0C5
:1054D000DFF8B8C0604502D14FF0070C0FE0DFF8ED
:1054E000B0C0604502D14FF0080C08E0DFF8A4C05E
:1054F000604502D14FF0090C01E04FF00A0C0CFAA4
:1055000007FC4CEA060CCEF808C44F68DBF80060D4
:10551000FF0226EA020600D516435F46CBF800607C
:10552000D1F804C0DBF804605FEA8C2C26EA02069E
:1055300000D516437E606E684F6826EA0206BF03F8
:1055400000D516436E602E684F6826EA0206FF03F8
:1055500000D516432E605B1C0A6832FA03F67FF40E
:1055600011AFBDE8F88F000080000058F4440258E5
:10557000000002580004025800080258000C0258AB
:10558000001002580014025800180258001C02585B
:1055900000200258002402580069084000D0012071
:1055A0007047426921EA02030A4043EA02418161ED
:1055B00070470AB1816170470904FBE70148006840
:1055C000000C70470010005C0148806870470000C4
:1055D0001C000024024881680278114481607047F1
:1055E0001C000024032010B500F01AFA01F022FA82
:1055F0000F4A104914681368C4F3032203F00F0321
:105600008A5CC95C02F01F0201F01F01D0400A4A07
:1056100020FA01F11160094908600F2000F010F82C
:1056200008B1012010BD00F0BBF9002010BD000042
:1056300018440258844403902C00002428000024BD
:1056400010B5102804468AB02CD20022014636201C
:1056500000F0C6F9362000F0B5F917480460174885
:10566000016841F010010160006809A900F0100014
:105670000890684601F06AF90598B0B101F0B6F9F2
:1056800040000F4900220F4CB0FBF1F10E4840F2F0
:10569000E7330460C0E90332491EC0E9011201F09A
:1056A000DDFD28B101200AB010BD01F09FF9E8E747
:1056B000054801F017FEF6E720000024E8440258F0
:1056C00040420F00001000407C0700242DE9F0410B
:1056D000044690F8A00016460F4601281DD001256B
:1056E00084F8A050022084F8A10006EB860000EBAD
:1056F000C600342204EB80003830FCF785FE3246C9
:105700003946204602F052FC216800204D6284F8A0
:10571000A15084F8A000BDE8F0810220FBE72DE94C
:10572000F041040004D094F8A100002518B107E06E
:105730000120BDE8F081204684F8A05000F050F828
:10574000022084F8A10020680123816921F07041C2
:105750008161D4E90010D4E90272266938433243EA
:105760008E691043304388612268A08AA16941EAAA
:10577000004191602268A08B216A41EA0041D1601A
:105780002268A08CA16A41EA004111612268A08DC3
:10579000216B41EA00415161226894F8351094F878
:1057A0003600D66A000406F07F46D662226840EAD8
:1057B000012094F83460D16A31430143D1622068FA
:1057C000416B41F0060141632068816941F00101AC
:1057D0008161C4F8A45084F8A1300020A9E700003A
:1057E000F0B5B7B00446142130A8FCF734FEC02150
:1057F0006846FCF730FE2D492068884254D10DF1EF
:10580000280C4004002102240D46052278238CE850
:105810001C008714CDE90F7114261191CDE9000108
:105820006846CDE90D4600F08DFA08B1FDF70FFC92
:105830001F48016841F008010160006800F008009D
:1058400035901B48001F016841F4806101600168C8
:1058500001F480613591016841F4007101600168D3
:1058600001F400713591016841F4807101600068B4
:1058700030A9032600F4807035900E27FF2081E8C0
:10588000F1000C48FFF772FD30A94FF6FF7081E878
:10589000F1000948FFF76AFD30A94FF4704081E834
:1058A000F1000648FFF762FD37B0F0BD0010005070
:1058B000E4440258002802580024025800200258EC
:1058C00070B5044690F8A0000B46012818D002EBF2
:1058D000820000EBC201012584F8A050022084F868
:1058E000A10004EB81012046CB65383102F05EFB5C
:1058F000216800204D6284F8A15084F8A00070BD9A
:10590000022070BD154BF0B5083B427813491A6070
:105910000B680A1F23F001030B6043681360057BCB
:10592000C67A827A437B2D07847B45EA0665C77B6E
:1059300090F809C0067A90F800E045EAC24040EAD3
:10594000834040EA444040EA074040EA0C2040EAF5
:10595000460040EA0E000860F0BD0000A0ED00E047
:10596000BFF35F8F044800210368034A23F48033A8
:10597000036070321160704724ED00E0074A40F088
:105980000100064970321060086840F480300860F9
:10599000BFF34F8FBFF36F8F7047000024ED00E01F
:1059A000074882B0016841F00201016000680022EE
:1059B0000F2100F002000090901E02B000F010B81D
:1059C000F4440258002809DB410900F01F02890055
:1059D000012001F1E0219040C1F800017047000072
:1059E0000E4BF0B41B680D46C3F30223C3F1070648
:1059F000042E00D90426191D072901D2002300E036
:105A0000DB1E012404FA06F19C40491E2940641E55
:105A1000994014402143F0BC04F07EBA0CED00E044
:105A2000064900F0070210B54FF6FF040868044B62
:105A3000204040EA02201843086010BD0CED00E051
:105A40000000FA05134970B50A68D243520705D51C
:105A5000096801F00701814213D118E00A6822F0B9
:105A6000070202430A60FFF7AFFD0A4D4FF47A7652
:105A70000446083D07E000BFFFF7A6FD001BB0424B
:105A800001D9012070BD2868C0438004F4D40020EF
:105A900070BD00000C48025810B500F085FF0549A4
:105AA0000968054AC1F30211515C01F01F01C840A9
:105AB00010BD00002044025884440390494930B589
:105AC000484C0B1D0A68143409681D68246802F0EC
:105AD0000303C5F30012C1F30531C4F3CC0400295C
:105AE00014FB02F200EE102AF8EE400A75D03F4A8D
:105AF0009FED3D1AB7EE000A6BB1DFED3D1A012BA9
:105B000001D0022B64D002EE101A1168F8EE422A7E
:105B100081EEA22A21E0334C283C23689B0612D553
:105B2000344B246801EE901A1168C4F3C104F8EEF6
:105B3000612AE34001EE903AC1F30801F8EE611AE0
:105B400081EEA22A0BE001EE901ADFED2B2A00BFB6
:105B5000F8EE611A116882EEA12AC1F3080101EE84
:105B6000901A1168F8EE611A40EE811A71EE800AFF
:105B700062EE200AC1F3462101EE101AB8EE411A76
:105B800031EE001AC0EE811ABCEEE11A80ED001A67
:105B90001168C1F3064101EE101AB8EE411A31EE58
:105BA000001AC0EE811ABCEEE11A80ED011A1168EC
:105BB000C1F3066101EE101AB8EE411A31EE000A87
:105BC00080EE801ABCEEC10A80ED020A30BD04E00E
:105BD00001EE901ADFED092ABAE700210160416069
:105BE0008160F3E728440258000000393844025825
:105BF0000024744A0090D0030024744C20BCBE4B97
:105C0000494930B5484C0B1D0A681C3409681D68A9
:105C1000246802F00303C5F30022C1F30551C4F365
:105C2000CC04002914FB02F200EE102AF8EE400A20
:105C300075D03F4A9FED3D1AB7EE000A6BB1DFED1C
:105C40003D1A012B01D0022B64D002EE101A11680C
:105C5000F8EE422A81EEA22A21E0334C283C236848
:105C60009B0612D5344B246801EE901A1168C4F3D8
:105C7000C104F8EE612AE34001EE903AC1F3080155
:105C8000F8EE611A81EEA22A0BE001EE901ADFED28
:105C90002B2A00BFF8EE611A116882EEA12AC1F327
:105CA000080101EE901A1168F8EE611A40EE811AAF
:105CB00071EE800A62EE200AC1F3462101EE101A4D
:105CC000B8EE411A31EE001AC0EE811ABCEEE11AAC
:105CD00080ED001A1168C1F3064101EE101AB8EE0A
:105CE000411A31EE001AC0EE811ABCEEE11A80EDC5
:105CF000011A1168C1F3066101EE101AB8EE411ADB
:105D000031EE000A80EE801ABCEEC10A80ED020A74
:105D100030BD04E001EE901ADFED092ABAE7002158
:105D2000016041608160F3E72844025800000039B7
:105D3000404402580024744A0090D0030024744C5C
:105D400020BCBE4B2DE9FE4F0546DFF8E48350F83A
:105D5000081B0024F64FC943019005F12800264690
:105D600008F12408009008011DD4A86E50B1B0F5C8
:105D7000801F0CD0B0F5001F0ED0B0F5401F1ED014
:105D800001240FE0386840F40030386017E00198D3
:105D9000022102F085FC03E00098022102F010FDD0
:105DA00004000CD026462888C043C00523D4A86D23
:105DB00005281ED2DFE800F00C11161B1B00AA6E8E
:105DC000D8F8001021F440111143C8F80010EAE798
:105DD000386840F40030386009E00198002102F092
:105DE0005FFC03E00098002102F0EAFC044674B175
:105DF00000E0012426462888C043800528D4E86DA9
:105E000080281ED00CDC90B140280ED114E0AA6D81
:105E1000D8F8001021F007011143C8F80010EAE794
:105E2000C02813D0B0F5807F10D001240FE038686F
:105E300040F40030386009E00198002102F030FCA5
:105E400003E00098002102F0BBFC04469CB126460A
:105E50002888DFF8DC92C04309F12C0940052CD4D6
:105E6000D5F8A800B0F5800F20D00DDCA0B1B0F5BA
:105E7000001F0FD115E0EA6DD8F8001021F4E07191
:105E80001143C8F80010E3E7B0F5C00F13D0B0F528
:105E9000000F10D001240FE0386840F40030386063
:105EA00009E00198002102F0FBFB03E000980021CB
:105EB00002F086FC04467CB126462888C0430005D3
:105EC0002DD4D5F8AC00B0F1007F21D00EDCA8B104
:105ED000B0F1807F10D116E0D5F8A820D9F80010D5
:105EE00021F460011143C9F80010E6E7B0F1407FEA
:105EF00013D0B0F1806F10D001240FE0386840F467
:105F00000030386009E00198002102F0C9FB03E08D
:105F10000098002102F054FC044674B1264628681B
:105F2000C04380011FD4E86CD8B110280FD02028BE
:105F300012D0302815D0012414E0D5F8AC20D9F8BF
:105F4000001021F0E0611143C9F80010E7E738685C
:105F500040F40030386004E00198022102F0A0FB18
:105F6000044674B126462888C043C0042BD4286E4A
:105F7000B0F5005F20D00DDCA0B1B0F5805F0FD18F
:105F800015E06B48EA6C2030016821F030011143C4
:105F90000160E8E7B0F5405F13D0B0F5804F10D056
:105FA00001240FE0386840F40030386009E00198BF
:105FB000002102F075FB03E00098002102F000FCD4
:105FC00004468CB126462888C043800429D4686ED4
:105FD000B0F5403F23D010DC08B3B0F5803F14D0BB
:105FE000B0F5003F0FD115E02A6ED8F8001021F46B
:105FF000E0411143C8F80010E5E7B0F5802F0ED05E
:10600000B0F5A02F0BD001240AE00198012102F085
:1060100047FB03E00098012102F0D2FB044694B153
:1060200026462888C04340042AD4D5F8B000B0F1F1
:10603000405F23D010DC08B3B0F1805F14D0B0F122
:10604000005F0FD115E06A6ED8F8001021F4E0214E
:106050001143C8F80010E4E7B0F1804F0ED0B0F162
:10606000A04F0BD001240AE00198012102F018FB97
:1060700003E00098012102F0A3FB044674B1264618
:106080002888C04300041FD4286FD8B1B0F1805FC6
:106090000ED0B0F1005F10D0012414E0D5F8B0208C
:1060A000D9F8001021F0E0411143C9F80010E7E7EA
:1060B000386840F40030386004E00198012102F0B3
:1060C000EFFA044674B126462868C043C0011ED4C6
:1060D000A86CD0B101280ED0022811D0032814D00A
:1060E000012413E02A6FD8F8001021F04051114329
:1060F000C8F80010E8E7386840F40030386004E081
:106100000198022102F0CCFA0446ACB12646286878
:10611000DFF81CB0C043ABF11C0B400252D4054861
:10612000016841F480710160FFF74EFA824611E088
:106130002C44025800480258FA48AA6C016821F021
:10614000030111430160E2E7FFF73EFAA0EB0A000A
:10615000642835D8F4480068C005F5D58CBBDFF855
:10616000C4A3B5F8B4100AF1240ADAF8000001F467
:10617000407100F44070884211D0DAF80010DAF86B
:10618000002021F4407142F48032CAF80020DAF88D
:10619000002022F48032CAF80020CAF80010D5F896
:1061A000B400B0F5807F1AD1FFF70EFA029012E02A
:1061B000FFF70AFA0299411A41F2883081420AD95E
:1061C000032426462878DFF85CA3C0430AF1080AB6
:1061D000C00721D03CE0DAF800008007E8D5D5F808
:1061E000B410C1F30120032858460DD0016821F4F2
:1061F0007C510160B5F8B420DAF80010C2F30B024C
:106200001143CAF80010DDE7C84A036802EA111218
:1062100023F47C511143ECE7E86F182816D005DC15
:10622000A0B1082808D0102804D10AE020280DD0F9
:1062300028280BD001240AE00198012102F030FA4D
:1062400003E00098012102F0BBFA044664B126463F
:106250002878C04380071ED4A86F062819D2DFE82B
:1062600000F0160C11161616EA6FDAF8001021F07D
:1062700038011143CAF80010EAE70198012102F041
:106280000FFA03E00098012102F09AFA04467CB16B
:1062900000E0012426462878C04340071FD4D5F8E3
:1062A0009400062819D2DFE800F0160C1116161615
:1062B000AA6FDAF8001021F007011143CAF80010A4
:1062C000E9E70198012102F0EBF903E000980121D0
:1062D00002F076FA0446A4B100E0012426462878AC
:1062E000C04380062BD4D5F89000B0F1405F24D095
:1062F00011DC10B3B0F1805F15D0B0F1005F10D1A8
:1063000016E0D5F89420D9F8001021F007011143C8
:10631000C9F80010E3E7B0F1804F0ED0B0F1A04F04
:106320000BD001240AE00198002102F0B9F903E042
:106330000098022102F044FA044694B126462878D7
:10634000C04340062BD4D5F89C00B0F5406F24D054
:1063500011DC10B3B0F5806F15D0B0F5006F10D11F
:1063600016E0D5F89020DAF8001021F0E041114352
:10637000CAF80010E3E7B0F5805F0ED0B0F5A05F7B
:106380000BD001240AE00198002102F089F903E012
:106390000098022102F014FA044694B126462878A7
:1063A000C04300062BD4D5F8A000B0F5C04F24D0D0
:1063B00011DC10B3B0F5005F15D0B0F5804F10D1EF
:1063C00016E0D5F89C20D9F8001021F4E0511143D3
:1063D000C9F80010E3E7B0F5004F0ED0B0F5204F3C
:1063E0000BD001240AE00198002102F059F903E0E2
:1063F0000098022102F0E4F9044654B126462878B8
:10640000C04300071ED4D5F88400B0F5805F0AD0E1
:106410000FE0D5F8A020D9F8001021F46041114315
:10642000C9F80010EBE70098022102F0C9F900B1A9
:106430000126D5F88420DAF8001021F440511143E8
:10644000CAF800102878C043C00613D4D5F89800C5
:10645000B0F5807F05D10098022102F0B1F900B1BA
:106460000126D5F89820D9F8001021F44071114385
:10647000C9F800102868C043000316D4D5F8A4005A
:1064800038B1B0F5803F09D0B0F5003F0BD0012402
:106490000AE00198002102F003F903E000980221CC
:1064A00002F08EF904468CB126462868C0434003AA
:1064B00022D4D5F88800B0F5801F11D0B0F5001FA8
:1064C00013D0B0F5401F15D0012414E0D5F8A42056
:1064D000D9F8001021F440311143C9F80010E4E765
:1064E000386840F40030386004E00098012102F080
:1064F00067F904465CB126462868C043C00323D42C
:10650000286DA8B1B0F5803F17D001241BE0D5F865
:106510008820DAF8001021F440111143CAF8001065
:10652000EAE700004C44025800480258CFFFFF0041
:10653000386840F40030386004E00198022102F02D
:10654000AFF80446E4B126462868C043800005D46D
:106550000098022102F034F900B101262868C043F6
:1065600080031BD4D5F88000B0B1B0F5807F0FD088
:10657000B0F5007F10D0B0F5407F0DD001240CE0C5
:106580005A482A6D016821F4803111430160DBE72C
:10659000386840F400303860ECB326462868C043C1
:1065A000C00207D46A6FD8F8001021F000411143EF
:1065B000C8F800102868C043C00008D4D5F8B82037
:1065C000DBF8001021F480411143CBF8001028685B
:1065D000C043800207D4EA6ED8F8001021F0807121
:1065E0001143C8F800102868C04340000CD4DBF801
:1065F000001021F40041CBF80010DBF80010D5F8B2
:10660000BC201143CBF800102868C04308D4374899
:106610006A6D016800E018E021F04051114301600B
:106620002868C043000208D4D5F88C20DAF800109E
:1066300021F440011143CAF8001028790024C04316
:1066400000F0010020430AD00FE0D5F88020DAF8EE
:10665000001021F440711143CAF800109EE7019820
:10666000002102F01DF800B106462879C04300F071
:106670000200204305D10198012102F011F800B178
:1066800006462879C04300F00400204305D1019854
:10669000022102F005F800B106462879C04300F057
:1066A0000800204305D10098002102F089F800B1CC
:1066B00006462879C04300F01000204305D1009819
:1066C000012102F07DF800B106462879C04300F0B0
:1066D0002000044304D10098022102F071F800B9AF
:1066E00016B10120BDE8FE8F0020FBE74C440258A4
:1066F0002DE9F05F04000F467ED0DFF83882D8F82D
:10670000000000F00F00B8420CD2D8F8001021F0C1
:106710000F013943C8F80010D8F8000000F00F004E
:10672000B84269D12078844D40070AD5206929688C
:1067300001F07001884204D9296821F070010143F9
:10674000296020787C4E361D00070AD560693168C3
:1067500001F07001884204D9316821F070010143D1
:1067600031602078C0060AD5A069316801F4E06183
:10677000884204D9316821F4E06101433160207816
:10678000DFF8B4B180060BF1080B0CD5E16958466F
:10679000DBF8002002F07002914204D9026822F076
:1067A00070020A430260207880070AD5E0682968F1
:1067B00001F00F01884204D9296821F00F0101433B
:1067C00029602078C0073ED05B49A2682868183944
:1067D00020F47060104328606068022818D00328F5
:1067E00019D00968012819D0490700294ADADFF8C9
:1067F00048A1AAF1080A00E044E0DAF8002022F0FB
:1068000007020243CAF80020FEF7DEFE814612E0CE
:1068100009688903E9E709688901E6E7C905E4E74A
:10682000FEF7D2FEA0EB090141F28830814202D985
:106830000320BDE8F09F6168DAF8000000F038003E
:10684000B0EBC10FECD1207880070AD5E068296849
:1068500001F00F01884204D2296821F00F010143A1
:106860002960D8F80010404601F00F01B9420BD959
:10687000016821F00F0139430160006800F00F004A
:10688000B84201D00120D4E7207840070AD520691A
:10689000296801F07001884204D2296821F0700152
:1068A00001432960207800070AD56069316801F04A
:1068B0007001884204D2316821F0700101433160D7
:1068C0002078C0060AD5A069316801F4E0618842E9
:1068D00004D2316821F4E061014331602078800600
:1068E0000CD5E1695846DBF8002002F070029142B5
:1068F00004D2026822F070020A43026000F09AF8A3
:106900000E492A682B68C2F3032203F00F038A5C46
:10691000C95C02F01F0201F01F01D040084A20FAB2
:1069200001F111600749086007480068BDE8F05FA1
:10693000FEF786BE0020005218440258844403909B
:106940002C000024280000242000002470B5144CE2
:106950003F220260124A24680832131D114D04F0D0
:106960000704446016681C1D06F47066866016688D
:1069700006F00F06C660126802F0700202611A6823
:1069800002F0700242611A6802F4E06282612268D9
:1069900002F07002C261286800F00F00086070BD4C
:1069A000104402580020005230B500F043F80B4A62
:1069B0000B490C4B15681468C5F3032204F00F044F
:1069C0008A5C095D02F01F0201F01F01D040064AF7
:1069D00020FA01F119601060084630BD18440258D1
:1069E000844403902C0000242800002400B5FFF705
:1069F000DBFF05490968054AC1F30211515C01F04A
:106A00001F01C84000BD00001C440258844403908C
:106A100000B5FFF7C9FF05490968054AC1F302211E
:106A2000515C01F01F01C84000BD00001C44025829
:106A300084440390454970B545480968434B103B71
:106A400011F0380208D00111082A03D0102A0BD007
:106A5000182A0BD0084670BD19688906FBD519683D
:106A6000C1F3C101C84070BD3A4870BD3749374DC8
:106A700018310C1D24350A68096826682D6802F053
:106A8000030406F00102C1F30511C5F3CC0515FBA3
:106A900002F200EE102AB8EE400AE9B32F4ADFED09
:106AA0002E0AB7EE001A6CB1DFED2D1A012C01D0C1
:106AB000022C43D002EE101A1068F8EE422A81EE42
:106AC000A22A1EE01C68A40611D51B6801EE901ACC
:106AD0001168C3F3C103F8EE612AD84001EE900AB1
:106AE000C1F30800F8EE611A81EEA22A0BE001EE74
:106AF000901ADFED1C2A00BFF8EE611A106882EED2
:106B0000A12AC0F3080001EE900AF8EE611A40EEE7
:106B1000201A31EE810A00E015E022EE000A10682A
:106B2000C0F34620401C00EE900AF8EE600A80EEAA
:106B3000201ABCEEC10A10EE100A70BD01EE901AC8
:106B4000DFED092AD8E7002070BD0000104402588C
:106B50000090D00340787D01000000393044025895
:106B60000024744A0024744C20BCBE4B2DE9F05F15
:106B700004007DD0FF4F2078FE4D1837DFF8F493E6
:106B8000103DC00748D0D9F80000396800F038003F
:106B9000102815D0182803D101F0030002280FD0C7
:106BA0006068B0F5803F12D010B1B0F5A02F18D0BA
:106BB000286820F480302860286820F4802009E0CC
:106BC0002868800328D560680028D2D024E028688F
:106BD00040F480302860606888B1FEF7F5FC064616
:106BE00009E0286840F480202860F0E7FEF7ECFC1C
:106BF000801B64286FD828688003F7D50CE0FEF767
:106C0000E3FC064605E000BFFEF7DEFC801B6428BF
:106C1000F0D828688003F7D4207841F20308D54ED5
:106C20000C3E800769D5D9F80000396810F03800AB
:106C30000ED0182801D188070AD0E06890B32968DF
:106C400021F0190101432960FEF7BEFC824631E0C4
:106C50002868400702D5E06800288AD0E1682868E3
:106C600020F0190008432860FEF7AEFC824607E0DA
:106C7000DFE000BFFEF7A8FCA0EB0A000228B9D8AD
:106C800028684007F6D500BFFEF798FC40451BD8A2
:106C90002069402812D0316821F47C3141EA00306B
:106CA00030602AE018E000BFFEF78EFCA0EB0A007F
:106CB00002289FD828684007F6D5E5E7306820F419
:106CC0007C3040F40030EBE7207C316821F0FE415D
:106CD00041EA0060E4E70DE1286820F00100286047
:106CE000FEF772FC824605E0FEF76EFCA0EB0A00A0
:106CF00002288DD828684007F6D42078C0065DD5D4
:106D0000D9F80000DFF86CB2396800F03800ABF158
:106D1000040B082810D0182803D101F00300012823
:106D20000AD0E0690028286838D040F08000286048
:106D3000FEF74AFC824623E02868C00523D5E069B7
:106D4000802876D11FE0206A202821D0316821F0E8
:106D5000F84141EA8060306030E000BF94F82010D4
:106D6000DBF8002022F07C5242EA0161CBF80010EF
:106D700024E000BFFEF728FCA0EB0A00022898D808
:106D80002868C005F6D5FEF719FC4045E6D8DAE7D5
:106D9000306820F0F84040F08040DCE720F08000D0
:106DA0002860FEF711FC064605E000BFFEF70CFC6C
:106DB000801B02289DD82868C005F7D420780007DA
:106DC00029D56C486169643000298046016811D07A
:106DD00041F001010160FEF7F7FB064605E000BF48
:106DE000FEF7F2FB801B0228C9D8D8F80000800704
:106DF000F6D510E021F001010160FEF7E5FB064643
:106E000005E000BFFEF7E0FB801B022872D8D8F82F
:106E100000008007F6D42078800623D5A0690028DA
:106E2000286810D040F480502860FEF7CDFB06465D
:106E300005E036E1FEF7C8FB801B02285AD8286817
:106E40008004F7D50EE020F480502860FEF7BCFBEC
:106E5000064604E0FEF7B8FB801B02284AD82868E3
:106E60008004F7D4207840074FD5DFF80C81D8F89C
:106E7000001041F48071C8F80010FEF7A5FB06462B
:106E800005E000BFFEF7A0FB801B642832D8D8F8CD
:106E90000000C005F6D5374EA068603601280AD03C
:106EA00008B1052813D0306820F001003060306848
:106EB00020F0040002E0306840F001003060A0687B
:106EC00041F2883A90B1FEF77FFB80460AE03068D5
:106ED00040F004003060EEE7FEF776FBA0EB08011F
:106EE000514507D830688007F6D50EE0FEF76CFBF9
:106EF000804607E084E000BFFEF766FBA0EB0801D8
:106F000051457DD830688007F6D4606AB0B3DFF8A9
:106F10006480D9F8001008F120084FF6F87B08F1DA
:106F20000409C1F3C2010329A8F1040A69D00228A7
:106F3000286820F08070286003D0FEF745FB0446E7
:106F400084E0FEF741FB064605E000BFFEF73CFB90
:106F5000801B022877D828688001F7D4E26A40F2C3
:106F6000F331386854F8283F884340EA0210184348
:106F7000386004E01044025800480258B5E0217B14
:106F8000434622894FF4FE0C208A4FF0FE47490207
:106F9000267D521E401EA1F50071C2F308088AB278
:106FA000761E0CEA004042EA08020243504607EA15
:106FB00006610A431A60DAF8002022F00102CAF8DA
:106FC0000020D9F80020266A22EA0B0242EAC60213
:106FD000C9F80020DAF80010A26921F00C01114371
:106FE000CAF800100168E26921F002011143016052
:106FF000016841F480310160016841F4003101E031
:1070000021E027E00160016841F48021016001680E
:1070100041F001010160286840F080702860FEF7AF
:10702000D3FA044605E000BFFEF7CEFA001B0228A3
:1070300009D828688001F7D557E000BFFEF7C4FAE9
:10704000001B022802D90320BDE8F09F28688001B8
:10705000F4D44AE039680128D8F8000021D0A26AA7
:1070600001F0030393421CD1E26AC1F305118A4285
:1070700017D1216BC0F30802491E8A4211D1616BFE
:10708000C0F34622491E91420BD1A16BC0F30642C8
:10709000491E914205D1E16BC0F30660491E814251
:1070A00001D00120D0E7A16C4E46D9F80000C0F312
:1070B000CC00814219D0DAF80000554620F00100DA
:1070C000CAF80000FEF780FA4FEA0007FEF77CFAE4
:1070D000B842FBD0A26C306820EA0B0040EAC20044
:1070E0003060286840F0010028600020ACE7000014
:1070F00070B504000D4603D094F82C0010B107E0E1
:10710000012070BD002084F82D00204600F018F802
:10711000022084F82C002068211DFCF79FF8D4E998
:1071200000022946FCF7ECF804480121026842F00D
:107130000042026084F82C10002070BD0040005214
:10714000FEF782B810B5044690F82C00022804D04F
:1071500094F82C00012801D0012010BD022084F8F1
:107160002C002068FCF7AFF8012084F82C000020E8
:1071700010BD000070B5044690F82C000D460228A2
:1071800004D0012803D0052801D0012070BD0220C1
:1071900084F82C002068FCF79FF82868022805D0A6
:1071A0005FF0010084F82C00002070BD0520F9E795
:1071B0007047704770470000F0B590F83C20012AF6
:1071C0003BD01F4E012480F83C40022280F83D2035
:1071D00002681C4D5368B242D2F808C001D0AA42DE
:1071E00003D14F6823F470033B430F6823F070030F
:1071F0001F4357600268B24213D0B2F1804F10D0E3
:10720000114B9A420DD0114B9A420AD0104B9A4220
:1072100007D0AA4205D00F4B9A4202D00E4B9A4299
:1072200004D189682CF0800319439160002180F813
:107230003D4080F83C100846F0BD0220F0BD000043
:10724000000001400004014000040040000800402C
:10725000000C0040001800400040014010B5040040
:1072600003D094F83D0010B107E0012010BD0020CC
:1072700084F83C00204600F023F8022084F83D000A
:107280002068211D01F068FE012084F8480084F880
:107290003E0084F83F0084F8400084F8410084F800
:1072A000420084F8430084F8440084F8450084F8E0
:1072B000460084F8470084F83D00002010BD00001F
:1072C00008B50068B0F1804F08D10548016841F069
:1072D00001010160006800F00100009008BD00009D
:1072E000E844025890F83D10012901D00120704770
:1072F000174A022180F83D100168CB6843F0010372
:10730000CB600068904214D0B0F1804F11D0114989
:1073100088420ED0104988420BD01049884208D0CC
:107320000F49884205D00F49884202D00E49884251
:1073300007D181680D4A1140062906D0B1F5803F7A
:1073400003D0016841F00101016000207047000096
:10735000000001400004004000080040000C004014
:1073600000040140001800400040014007000100F7
:1073700070B5044690F83C000025012814D03A4B23
:10738000012684F83C60022084F83D002268906861
:10739000184020F47F409060086870282FD010DCDF
:1073A00010F00F0F03D022E04FF0020070BD4FEA43
:1073B0002012072A1BD2DFE802F0535353534B39F4
:1073C0004100B0F1101F4BD009DCB0F5805F0FD049
:1073D000B0F5005F1ED0B0F5801F08D140E0A0F5E9
:1073E000801120393CD010293AD0202938D00125ED
:1073F00084F83D60002084F83C00284670BD4A684F
:107400002068D1E9021301F01AFE2068816841F07A
:10741000770109E04A682068D1E9021301F00FFE04
:107420002068816841F480418160E1E7CA68496869
:10743000206801F0B1FF2068502106E0CA68496861
:10744000206801F0BAFF2068602101F001FECFE75B
:10745000CA684968206801F09FFF20684021F4E76E
:10746000226801461046F0E788FFCEFF70472DE9FD
:10747000F041044600680027C6680569A90713D5CE
:10748000B10711D5FA1E02610121217720688069B8
:107490008007204602D0FFF7E9FF04E000F0B4F8CF
:1074A000204600F089F92777680716D5700714D5AC
:1074B000226802206FF00401116120772068806942
:1074C00010F4407F204602D0FFF7D0FF04E000F028
:1074D0009BF8204600F070F92777280715D530076C
:1074E00013D5226804206FF008011161207720680D
:1074F000C0698007204602D0FFF7B8FF04E000F023
:1075000083F8204600F058F92777E80616D5F006EC
:1075100014D5226808206FF01001116120772068CF
:10752000C06910F4407F204602D0FFF79FFF04E0BF
:1075300000F06AF8204600F03FF92777E80708D006
:10754000F00706D021686FF001000861204600F0C6
:10755000BDF9280601D4A80408D5300606D521684F
:107560006FF4025008612046FFF723FEE80508D5B6
:10757000300606D521686FF4807008612046FFF759
:1075800017FE680608D5700606D521686FF0400022
:107590000861204600F0A4F9A8060AD5B00608D56F
:1075A00021686FF0200008612046BDE8F041FFF738
:1075B00001BEBDE8F081000010B586B0044614217C
:1075C0006846FAF748FF0D492068884214D10C48F4
:1075D000016841F00201016000680021202200F0F2
:1075E0000200059002200092CDE90101CDE90310CF
:1075F00004486946FDF7BAFE06B010BD000400401D
:10760000E044025800040258704770B5044690F8F0
:107610003C0000260D4601280BD0012084F83C00D8
:107620000C2A4AD007DC82B1042A20D0082A06D1CD
:1076300031E0022070BD102A53D0142A63D00126F5
:10764000002084F83C00304670BD206801F00AFD3F
:107650002068816941F0080181612068816921F019
:107660000401816120682A698169114311E0206861
:1076700001F04AFD2068816941F400618161206860
:10768000816921F48061816120682969826942EA07
:1076900001218161D4E7206801F082FD2068C16981
:1076A00041F00801C1612068C16921F00401C16194
:1076B00020682A69C169114311E0206801F0BCFD0E
:1076C0002068C16941F40061C1612068C16921F489
:1076D0008061C16120682969C26942EA0121C161F2
:1076E000AEE7206801F0E4FD2068416D41F008013B
:1076F00041652068416D21F00401416520682A69D7
:10770000416D114311E0206801F00CFE2068416DCD
:1077100041F4006141652068416D21F4806141655B
:1077200020682969426D42EA0121416588E710B568
:10773000040003D094F83D0010B107E0012010BD13
:10774000002084F83C00204600F022F8022084F853
:107750003D002068211D01F0FFFB012084F8480056
:1077600084F83E0084F83F0084F8400084F841002B
:1077700084F8420084F8430084F8440084F845000B
:1077800084F8460084F8470084F83D00002010BDCE
:1077900008B500680649884208D10648016841F0EA
:1077A00002010160006800F00200009008BD0000C6
:1077B00000040040E84402587047000030B5044619
:1077C0004FF0020269B1042912D0082917D00C2900
:1077D0001CD0102921D094F84300012824D0012086
:1077E00030BD94F83E000128F9D184F83E201DE018
:1077F00094F83F000128F2D184F83F2016E094F875
:1078000040000128EBD184F840200FE094F84100BB
:107810000128E4D184F8412008E094F842000128CE
:10782000DDD184F8422001E084F843200122206861
:1078300001F0F8FB1B4B20681B491C4A984209D0F9
:10784000884207D0904205D0194DA84202D0194D68
:10785000A84203D1456C45F4004545642068984230
:1078600012D0B0F1804F0FD0134B98420CD0134B75
:10787000984209D0124B984206D0884204D0114950
:10788000884201D0904207D181680F4A11400629F1
:1078900006D0B1F5803F03D0016841F001010160DD
:1078A000002030BD000001400004014000400140C4
:1078B000004401400048014000040040000800402E
:1078C000000C004000180040070001000068034958
:1078D000884201D1FDF77EBE7047000000100040D5
:1078E000704730B590F88410012918D0012280F833
:1078F00084202421C0F888100022202401680B680D
:107900000D6823F0005325F001050D604266016803
:107910000B60C0F8884080F88420104630BD0220FB
:1079200030BD10B50446D0F88C00202801D00220CC
:1079300010BD61B15AB10123E366002020672046E3
:1079400002F0D0F90028F3D1E16E012901D0012025
:1079500010BD226810211162226852E8001F41F018
:10796000100142E80013002BF6D110BD10B50068DD
:10797000154A904227D11548941500F01F0303F5CE
:107980008073BFF34F8F124A10602030203B002BD2
:10799000FADCBFF34F8FBFF36F8F0C4AFF294FF014
:1079A000000001D8505401E082F8FF000A46074960
:1079B000084800F0FFFF05492246BDE8104001F5E8
:1079C0008070FFF7AEBF10BD0010014070050024AD
:1079D0005CEF00E0EC080024704770B5044690F8B6
:1079E000840001281DD0012284F884202420C4F8BA
:1079F000880020680568026822F0010202602068A1
:107A0000826822F060620A438260204601F0F6FD3F
:107A10002268202100201560C4F8881084F88400B2
:107A200070BD022070BD70B5044690F88400012836
:107A30001DD0012284F884202420C4F88800206806
:107A40000568026822F0010202602068826822F064
:107A500060420A438260204601F0D0FD2268202166
:107A600000201560C4F8881084F8840070BD0220DE
:107A700070BD7047704770472DE9F04107680025D9
:107A8000044640F60F030226F8693968BA681842BE
:107A90000AD183067ED501F0200302F0805C53EA10
:107AA0000C0377D0616F7EE1D44BDFF854C31340F1
:107AB00001EA0C0C53EA0C0C6CD05FEAC07C0CD0D1
:107AC0005FEAC15C09D54FF0010CC7F820C0D4F8BB
:107AD000907047F00107C4F89070870709D5D70761
